:100000000000032011040000B55201006D520100F0
:100010006D5201006D5201006D5201006D520100E0
:100020006D5201006D5201006D520100B552010088
:10003000B55201006D520100B55201005D52010040
:10004000B5520100B5520100B5520100B552010090
:10005000B5520100B5520100B5520100B552010080
:10006000B5520100B5520100B5520100B552010070
:10007000B5520100B5520100B5520100B552010060
:10008000B5520100B5520100B5520100B552010050
:10009000B5520100B5520100B5520100B552010040
:1000A000F14D0100B5520100B5520100B5520100F9
:1000B000B5520100B5520100B55201007561010051
:1000C000B5520100B5520100B5520100B552010010
:1000D000B5520100B5520100B5520100B552010000
:1000E000B5520100B5520100B5520100B5520100F0
:1000F000B5520100B5520100B5520100B5520100E0
:10010000517C0100697C0100817C0100997C010027
:10011000B552010081640100B5520100B5520100E1
:10012000B5520100B5520100B5520100B5520100AF
:10013000B5520100B5520100B5520100B55201009F
:1001400035780100B5520100B5520100B5520100E9
:10015000B5520100B5520100B5520100B55201007F
:10016000B5520100B5520100B5520100B55201006F
:10017000B5520100B5520100B5520100B55201005F
:10018000B5520100B5520100B5520100B55201004F
:10040000FFFFFFFFFFFFFFFFFFFFFFFFDEF9FFFF23
:1004100042F20E03C4F205034CF2205210B51A80CA
:100420004DF628121A8000BF00BF14F047FF48F2B3
:100430003003C4F204034FF030621A6048F238030C
:10044000C4F2040343F68272C0F204021A6048F256
:100450003C03C4F204030122C2F600321A604EF6D5
:100460008853CEF200034FF470021A604FF4005329
:10047000CEF208030322C8F200521A604DF21002B5
:10048000C4F20302136813F4807307D14DF2140110
:10049000C4F203010B604FF4A85313604DF2020342
:1004A000C4F207031A78110703D51A7842F008023C
:1004B0001A704FF46043C4F20703AA221A7046F27E
:1004C000046146F2303347F2EC22C0F20501C2F279
:1004D0000103C2F20102934204D251F8040F43F81F
:1004E000040BF8E748F200034AF2CC32C2F20103EF
:1004F000C2F202020021934202D243F8041BFAE73F
:1005000045F6006040F200010023C2F20100C0F293
:10051000000151F8232040F82320013345F6006202
:10052000742BC2F20102F4D14FF464434EF26441E1
:10053000CEF200038020CEF2000103F8010B8B42C3
:10054000FBD14EF60853CEF200031A604FF4A043DD
:10055000C4F206038A221A704FF48043C4F20603E1
:1005600024225A70A0221A709A799207FCD59A799F
:10057000D406FCD44FF48042C4F20602937903F00F
:100580000C03082BFAD14EF20103C4F207036022D8
:100590001A704EF20303C4F207031A78802AFCD1C2
:1005A0004FF48043C4F2060300221A714E225A719E
:1005B0009A799006FCD59A795106FCD548F2440206
:1005C000C4F204020021C0F20711116048F248028F
:1005D000C4F204020821116020221A704FF48042F4
:1005E000C4F20602937903F00C030C2BFAD148F203
:1005F0000403C4F204034FF48652C0F205021A60E9
:100600004EF21403CEF200034AF67F12C0F2030248
:100610001A604EF21803CEF2000300221A604EF266
:100620001003CEF2000307221A604EF62053CEF2DA
:1006300000030022C2F220021A6062B614F0B6FF74
:100640004DF21403C4F203031B68DA070ED543F21C
:100650001040C5F6D00014F093FF4EF21C03C4F214
:1006600003034CF2A532C5F694221A604FF470438E
:10067000C4F207031B785B0612D54EF21C04C4F2C9
:1006800003044CF2A5332268C5F694239A4207D19D
:1006900043F21040C5F6D00014F072FF002323602F
:1006A00018F02CFC14F012FE17F0D2FEFEE700BF8B
:1006B00010B5054C237833B9044B13B10448AFF39C
:1006C00000800123237010BD008001200000000085
:1006D00008660500084B10B51BB108490848AFF380
:1006E00000800848036803B910BD074B002BFBD0FE
:1006F000BDE81040184700BF000000000480012042
:1007000008660500EC7201200000000010B54DF2F3
:100710005023C0F20403044640F8203B11F05EFF72
:10072000204610BD704700BF4FF69C2008B517212A
:10073000C0F2030016F02EFE49F6D450C2F20200B9
:10074000FE210DF007FD48F21C03C2F201031870F0
:10075000C0B14FF638200221C0F2030016F01AFE95
:100760004AF27030C2F2020017F07AFB4FF6F01135
:1007700049F6D450C0F20301C2F202000DF00EFEA1
:1007800078B108BD4FF6B420C0F203001B2116F06B
:1007900001FE4AF27030C2F20200BDE8084017F0D4
:1007A0005FBB4FF6F01149F6D450C0F20301C2F21C
:1007B00002000DF041FF0028E3D04FF67820C0F290
:1007C00003002021E3E700BF70B540F2002084B0B1
:1007D000C1F6FF70042116F02DFF4AF29812C2F202
:1007E00002024AF21431136803934AF22C344AF29B
:1007F000C4350398C2F20201C2F20204C2F2020539
:100800000B78002B00F0918023789B0700F08D80FF
:1008100013682E689B1B182B40F287804FF6D02060
:100820000821C0F2030016F0B5FD4AF27030C2F2A2
:10083000020017F015FB4FF6DC201421C0F2030074
:1008400016F0A8FD4AF27030C2F2020017F008FB61
:100850004FF6F4200C21C0F2030016F09BFD4AF283
:100860007030F021C2F2020017F074FA4AF27030D0
:10087000C2F2020017F0F4FA4FF604300C21C0F275
:10088000030016F087FD4AF270307821C2F20200B0
:1008900017F060FA4AF27030C2F2020017F0E0FA84
:1008A0004FF614301521C0F2030016F073FD4AF222
:1008B00070302021C2F2020017F04CFA4AF2703078
:1008C000C2F2020017F0CCFA4AF27030C2F2020013
:1008D00017F0C6FAFFF728FF09F05EF907F0A4FD4C
:1008E00048F2C410C2F2010007F070FF4AF2E813A8
:1008F0000022C0F20103F02148F2C4108DE80A0082
:10090000C2F2010011464FF4A07308F0D5FB48F283
:10091000C410C2F2010008F08DFB4FF49050C0F2F9
:100920007A0007F0D5FB04B070BD13680293029BF8
:100930001B1AB3F57A7FFFF463AF6FE770B514F05D
:10094000E3FF054641F2323007F0C2FBC0F599568D
:1009500014F0DAFF4AF27034C2F202041236451B78
:100960003146204617F0F6F94FF62C300A21C0F236
:10097000030016F00FFD00230A222946204617F037
:1009800093FA4FF638300D21C0F2030016F002FD45
:1009900007EE906AB8EEE77A07EE905AF8EE677ABB
:1009A000DFED0A6A87EE276A66EE267A17EE900A6E
:1009B00017F074FF41EC100B2046022117F0D0FA1B
:1009C0002046BDE8704017F04BBA00BF37397C3F76
:1009D000F0B548F2E814C2F201049DB02368DB07C9
:1009E0003BD54AF2981648F22005C2F20206C2F23E
:1009F000010548F2F424C2F2010494F8722594F837
:100A000035379A4218D33368029302992B68CB1A70
:100A100048F22002B3F57A7FC2F2010207D841F210
:100A2000B03007F055FB023026D01DB0F0BD11608C
:100A3000FFF784FF1DB0F0BD16F07EFC0028E2DD5C
:100A400016F03AFC94F87235234483F8230794F89F
:100A50007235013384F87235D5E7204614F044FC32
:100A60004AF29816002840F0508148F22005C2F260
:100A70000206C2F20105BCE74FF648300721C0F27A
:100A8000030016F087FCA378E57894F8656594F880
:100A9000667503EB05254AF27030002310222946C3
:100AA000C2F2020017F000FA4FF650300921C0F2EE
:100AB000030016F06FFC4AF270303946C2F20200B1
:100AC00017F048F94FF65C300121C0F2030016F030
:100AD00061FC4AF270303146C2F2020017F03AF976
:100AE0004FF660300A21C0F2030016F053FC94F870
:100AF000686594F8671594F86335002048F2F4228D
:100B00000890079009900A908DF82C0001EB0621BF
:100B1000C2F20102002B5FD00A44012B92F8AC0410
:100B20008DF81C0058D092F8AD048DF81D00022BF2
:100B300052D092F8AE048DF81E00032B4CD092F8E0
:100B4000AF048DF81F00042B46D092F8B0048DF846
:100B50002000052B40D092F8B1048DF82100062B1F
:100B60003AD092F8B2248DF82220072B34D06218A4
:100B7000082B92F8B3148DF823102DD092F8B414EA
:100B80008DF82410092B27D092F8B5148DF8251074
:100B90000A2B21D092F8B6148DF826100B2B1BD0FF
:100BA00092F8B7148DF827100C2B15D092F8B814C2
:100BB0008DF828100D2B0FD092F8B9148DF829104C
:100BC0000E2B09D092F8BA148DF82A100F2B03D0EF
:100BD00092F8BB348DF82B30002103A817F074FB7A
:100BE0004FF66C31C0F2030103A817F0A1FB07A96F
:100BF00003A817F0CFFB4AF2703003A9C2F202003B
:100C000017F06AF84AF27030C2F2020017F028F9C1
:100C10000CA80DF077FA49F6D451012314A8C2F2BA
:100C20000201039A0DF042FB1CAB9DF8546053F88F
:100C3000132DCDF83D2059689A681B7BCDF84110E3
:100C4000CDF8452016999DF85C208DF8493014A800
:100C50001B9B13938DF83C200E918DF834600DF0A2
:100C60005FFA0CA80DF064FA014606464AF27030AD
:100C7000C2F2020017F06EF82C444AF2703004F20F
:100C8000AC44C2F2020017F0EBF8022221460CA895
:100C90000DF048FA01464AF27030C2F2020017F035
:100CA00059F84AF27030C2F2020017F0D9F8B21EB9
:100CB000214692B20CA80DF035FA074601464AF2D9
:100CC0007030C2F2020017F045F84AF2703048F274
:100CD000F424C2F20200C2F2010417F0C1F817B303
:100CE000023D2E4432124FF2A95384F85B6584F81A
:100CF0005A25E3800CA80DF01FFA0CA80DF010FA8D
:100D000003A817F00DFB1DB0F0BDC2F2020648F2B9
:100D1000200533680193C2F20105019B2B60204638
:100D200014F0E8FA65E64FF674304FF230530F21B5
:100D3000C0F20300E38016F02DFB4AF27030C2F2DD
:100D4000020017F08DF8D5E72DE9F0414AF2303670
:100D5000C2F2020648F22405C2F201054AF2E41882
:100D600032680023C0F2010884B0C5F800806B72BD
:100D70002B612B72EB600AB9BDE01A465369002B58
:100D8000FBD155614DF2502348F244000027C0F2D8
:100D90000403C2F201002B606F61AF80EF8011F09D
:100DA000F3FA48F22400C2F2010011F08FFA48F27F
:100DB000C02446F2204240F20D7148F22400C2F2F3
:100DC0000104C2F20102C0F20001C2F2010018F0F7
:100DD00089F8022104F118023B462772E760384681
:100DE000C4F8008061722261274600E03A6942F847
:100DF0002300617A013348F2C0229942C2F2010213
:100E0000F4DC31684AF23033C2F2020309B974E00B
:100E100019464B69002BFBD14C6148F2C0204DF2C2
:100E200044230026C0F20403C2F20100236066617D
:100E3000A680E68011F0DAF848F2A023C2F201039E
:100E400018461D605C601E725E72DE6016F0C0FCAB
:100E500048F2B023C2F20103012218461D605C6013
:100E60001E72DE605A7216F0B3FC48F2EC10C2F249
:100E700001000AF0D3F848F27C20C2F201000AF027
:100E800081FC0C210E221C2348F2C4100291019215
:100E900000931522FF230F21C2F2010007F068FC26
:100EA00048F23C20C2F201000DF02CF946F220423B
:100EB0004EF2211148F23C20C2F20102C0F20001C0
:100EC000C2F2010018F00EF848F25C20C2F20100F4
:100ED0000DF018F946F220424EF2211148F25C2042
:100EE000C2F20102C0F20001C2F2010004B0BDE88A
:100EF000F04117F0F7BF356044E71A608DE700BF97
:100F000010B448F2F423C2F2010393F88414C1B977
:100F100093F86C240132092A61D883F86C2493F881
:100F2000711448F2F4224807C2F2010209D5B2F85E
:100F30006E44B2F87E04844204BF41F0040182F89A
:100F4000711493F8A80448F2F422C2F20102A0B985
:100F500092F890140131092912D882F8901493F86C
:100F6000712448F2F4235207C2F2010305D5B3F805
:100F70009214B3F8A224914261D05DF8044B7047FB
:100F800092F8911401F00F040134092C60D9090979
:100F90000131052968D992F8921482F8910401F080
:100FA0000F040134092C67D90909013105296FD9CA
:100FB00092F8931482F8920401F07F0012287BD0FB
:100FC00001F00F0001300A286AD911F0700FC6D164
:100FD00001F0400141F0100182F89314BFE793F84B
:100FE0006D2402F00F000130092837D912090132AF
:100FF000052A3DD993F86E2483F86D1402F00F0092
:10100000013009283ED912090132052A44D993F842
:101010006F2483F86E1402F07F01122952D002F07F
:101020000F0101310A2941D912F0700F7FF477AF17
:1010300002F0400242F0100283F86F246FE793F849
:10104000952442F0040283F895245DF8044B704720
:1010500021F00F01214382F8911480E722F00F0262
:10106000024383F86D245AE7090182F8911476E768
:10107000120183F86D2452E721F00F01214382F819
:1010800092146CE722F00F02024383F86E2446E7C5
:10109000090182F8921462E7120183F86E243EE798
:1010A00021F00F01014382F8931458E722F00F0258
:1010B0000A4383F86F2432E7C94321F07F0182F8A5
:1010C00093144CE7D24322F07F0283F86F2426E783
:1010D00010B5044616F0A2FD204610BD38B548F202
:1010E000E024C2F20104036862682360934219D0CD
:1010F000A378462B78D0E278462A7DD0392B39D098
:10110000217A48F2E022C2F2010261B9532B10D0D9
:101110004F2B2AD0512B28D0502B5ED0522B71D080
:101120002368636038BD1178532B41F002011170C0
:10113000EED1637A0133DBB248F2E0250022022BC4
:101140006372C2F2010522602ED96A724FF6E43052
:101150001121C0F2030016F01DF94AF27030C2F2FC
:10116000020016F07DFEA378D2E7237823F0220355
:101170002370D5E7237ADB43DBB248F2E025002277
:101180002372C2F2010522600BBB4FF6D430C0F2CD
:1011900003000E2116F0FEF84AF27030C2F202008F
:1011A00016F05EFEAB78ABE7012B32D0022BCDD12F
:1011B0004FF60440C0F203000B2116F0EBF84AF2A0
:1011C0007030C2F2020016F04BFEAB78A0E74FF68B
:1011D000C430C0F203000D21DCE723784F2243F036
:1011E00020032370A2709BE7E378A3700023E370D1
:1011F00006F036FFA37881E70023E37006F030FFA6
:10120000A3787BE72378512243F020032370A27058
:1012100086E74FF6F830C0F20300CDE700F00F008C
:1012200009285CD017D8062800F096802AD907280C
:1012300062D008284BD148F2F423C2F2010393F89C
:10124000732422F07F0202F0FF00002A00F09A804F
:1012500083F87C1470470D285BD024D90E2800F049
:1012600082800F2833D148F2F423C2F2010321F027
:10127000100283F87324CA0630D5B3F87A24A3F891
:101280006A247047042860D0052820D148F2F4234E
:10129000C2F2010393F8722483F87914D2071DD4A3
:1012A00083F8691470470A2842D00B280FD148F2FE
:1012B000F423C2F2010393F87324120657BF0122EC
:1012C00083F87F1483F86F1483F88424704748F2FE
:1012D000F423C2F20103184480F86414704748F202
:1012E000F423C2F2010393F8732412064CBF83F86F
:1012F0007D1483F86D14704748F2F423C2F20103A1
:1013000093F8732483F87B14D007E7D483F86B1425
:10131000704748F2F422C2F20102080692F88134C2
:101320004CBF1943594001F00F0182F881147047F6
:1013300048F2F423C2F2010393F8732410064CBF61
:1013400083F87E1483F86E14704748F2F423C2F2D7
:10135000010383F87814704748F2F423C2F20103C2
:1013600083F87A14704748F2F423C2F2010321F0A3
:101370001002C90683F87224B0D5B3F87824A3F814
:101380006824704783F86C1483F88404704700BFA6
:101390002DE9F84300F00F04012C25D015D30D2CB6
:1013A0000AD148F2F423C2F20103002293F8710437
:1013B00083F87124BDE8F88348F2F423C2F20103F4
:1013C0001C4494F86404BDE8F88348F2E022C2F2B9
:1013D0000102507A022810D048F2F423C2F201032D
:1013E00093F86404BDE8F88348F2E022C2F20102F7
:1013F00013684BBBFF20BDE8F8839378592B00F0AE
:1014000057815A2B00F055815B2B00F09B815C2BA0
:1014100040F08E81042000F0F700137813F0440FA1
:101420001CBF40F01000C0B2DE0648F2F423C2F246
:10143000010348BF40F0200093F8643448BFC0B2B5
:1014400023EA0000BDE8F88348F2F423C2F2010366
:1014500093F86404002800F02981537A012B00F0EE
:101460003081C043C5B215F001001778967892F824
:10147000038000F05581002E00F097814FF68439EB
:10148000C0F2030948460822314618F029F800281E
:1014900000F0A381C9EB00008440E4B2B8F1000F72
:1014A0000FD04FF68439C0F203094846082241465E
:1014B00018F016F828B1C9EB0000012383401C4343
:1014C000E4B2AA0740F11A81BB0744BF64F07F046D
:1014D000E4B2002E00F012814FF68C39C0F20309FD
:1014E00008224846314617F0FBFF28B1C9EB00003F
:1014F000012383401C43E4B2B8F1000F0FD04FF634
:101500008C39C0F2030908224846414617F0E8FF2B
:1015100028B1C9EB0000012383401C43E4B26B07F0
:1015200022D54FF69439C0F20309082248463146C5
:1015300017F0D6FF28B1C9EB0000012383401C43FC
:10154000E4B2B8F1000F0FD04FF69439C0F203099E
:1015500008224846414617F0C3FF28B1C9EB0000F6
:10156000012383401C43E4B22A0740F1DB804FF69D
:101570009C39C0F2030908224846314617F0B0FFF3
:1015800028B1C9EB0000012383401C43E4B2B8F149
:10159000000F0FD04FF69C39C0F2030908224846CD
:1015A000414617F09DFF28B1C9EB0000012383409D
:1015B0001C43E4B2E80640F1AD804FF6A439C0F216
:1015C000030908224846314617F08AFF28B1C9EBC3
:1015D0000000012383401C43E4B2B8F1000F0FD098
:1015E0004FF6A439C0F2030908224846414617F0D5
:1015F00077FF28B1C9EB0000012383401C43E4B20C
:10160000A90622D54FF6AC39C0F203090822484694
:10161000314617F065FF28B1C9EB00000123834074
:101620001C43E4B2B8F1000F0FD04FF6AC39C0F252
:10163000030908224846414617F052FF28B1C9EB7A
:101640000000012383401C43E4B2680628D5B90694
:1016500044BF44F01004E4B216B34FF6B439C0F2FC
:10166000030908224846314617F03AFF28B1C9EB72
:101670000000012383401C43E4B2B8F1000F0FD0F7
:101680004FF6B439C0F2030908224846414617F024
:1016900027FF28B1C9EB0000012383401C43E4B2BB
:1016A0002A0651D4E043C0B2BDE8F883BDE8F88310
:1016B0000620C30701D500F0FD0047077FF5ADAE5A
:1016C000A9E69178592972D05A2978D05B2900F07F
:1016D00082805C2975D1042303F0F703127812F09D
:1016E000440F1CBF43F01003DBB2D10644BF43F0EC
:1016F0002003DBB220EA0300BDE8F883680702D5C7
:10170000002E7FF40EAF29070CD5002E7FF42FAFEB
:10171000EB069AD4AB0698D5002E7FF473AF94E70E
:101720000446CEE6EA06F5D5002E7FF446AF8CE7F8
:101730005E2B08BF0820BCD05F2B4FF0000057D1B4
:101740000520B8E70A20B4E717F0110F1CBF44F0DA
:101750000404E4B217F0880F1CBF44F02004E4B284
:10176000002E9FD04FF6BC35C0F203053146284607
:10177000082217F0B5FE20B1401B012383401C4313
:10178000E4B2B8F1000F8DD04FF6BC35C0F20305BE
:1017900041462846082217F0A3FE002882D0401BAD
:1017A000012383401C43E4B27CE7344689E60623E8
:1017B000DD0701D503F0FD035C078FD58CE702231D
:1017C000F6E75E2908BF0823F2D05F294FF0000337
:1017D00005D10523EEE70A23EAE704465EE6602921
:1017E00001D10123E6E7612908BF0923E2D0DFE741
:1017F000602B01D101205EE7612B08BF09203FF477
:101800005AAF56E770B448F25873C2F2010348F277
:101810007C250024C2F2010541F2DD06C0F200067B
:101820004FF4D85240F6017148F2EC201C605C6025
:101830009C60DC60EE60C0F2B702C0F20001C2F250
:10184000010070BC16F08CB930B448F2EC23C2F23F
:1018500001038024002546F2204241F2D1011C718F
:101860001D601846C2F20102C0F2000130BC17F040
:1018700039BB00BF00F00F0009285CD017D806283C
:1018800000F096802AD9072862D008284BD148F268
:10189000F423C2F2010393F8972422F07F0202F0AE
:1018A000FF00002A00F09A8083F8A01470470D28EA
:1018B0005BD024D90E2800F082800F2833D148F263
:1018C000F423C2F2010321F0100283F89724CA0620
:1018D00030D5B3F89E24A3F88E247047042860D036
:1018E000052820D148F2F423C2F2010393F896248C
:1018F00083F89D14D2071DD483F88D1470470A28ED
:1019000042D00B280FD148F2F423C2F2010393F81E
:101910009724120657BF012283F8A31483F8931467
:1019200083F8A824704748F2F423C2F20103184454
:1019300080F88814704748F2F423C2F2010393F848
:10194000972412064CBF83F8A11483F891147047B2
:1019500048F2F423C2F2010393F8972483F89F140A
:10196000D007E7D483F88F14704748F2F422C2F20C
:101970000102080692F8A5344CBF1943594001F002
:101980000F0182F8A514704748F2F423C2F2010354
:1019900093F8972410064CBF83F8A21483F892148E
:1019A000704748F2F423C2F2010383F89C14704795
:1019B00048F2F423C2F2010383F89E14704748F200
:1019C000F423C2F2010321F01002C90683F8962421
:1019D000B0D5B3F89C24A3F88C24704783F89014F6
:1019E00083F8A804704700BF00F00F0048F2F4230A
:1019F0000D28C2F2010303D0184490F88804704700
:101A00000022012193F89504597183F895247047B9
:101A100048F27C73C2F20103002205219A601A6029
:101A20005A60DA6019727047F8B548F2F424C2F2CD
:101A3000010407252278E3882179E560561EA7185E
:101A4000951E0133033A9BB254FA85F5227054FA7D
:101A500086F641F004026069227141F010011A0A11
:101A600087F8AC2586F8AC3585F8AC15E380D0F85E
:101A7000FC334FF6FE70984763690546D3F8FC3394
:101A80004FF6FF70984745EA0020E080F8BD00BFA0
:101A900038B548F2F424C2F201040622E0886369F2
:101AA000E260020A411C53F82230E1809847A37893
:101AB000626965781844C0B2431C54FA83F3204429
:101AC00093F8AC1490F8AC3443EA0120030A608127
:101AD00052F8233098472379284310F0FF0014BFB1
:101AE00003F0FD0343F0020303F07F0320F07F02C5
:101AF00013436070237138BD38B548F2F424C2F244
:101B000001040822E0886369E26020FA02F2411CC5
:101B100053F82230E1809847A37862691844C0B234
:101B2000431C54FA83F3204493F8AC1490F8AC347B
:101B300043EA0120030A608152F823309847237951
:101B4000A269400023F0010343EA102310F0FF01D3
:101B5000DBB214BF03F0FD0343F00203608921F000
:101B60007F0503F07F032B43050A237152F82530CC
:101B70009847608963696578020A53F8223098476C
:101B800048F2F423C2F2010328431B7910F0FF004E
:101B900014BF03F0FD0343F0020303F07F0320F0C2
:101BA0007F0213436070237138BD00BF10B548F247
:101BB000F424C2F201040322E0886369E260020AAD
:101BC000411C53F82230E18098472318627893F83B
:101BD000AC34608113432279637014BF02F0FD02BC
:101BE00042F0020202F07F0223F07F010A432271D9
:101BF00010BD00BF10B548F2F424C2F20104052262
:101C0000E0886369E260020A411CE18053F82230F7
:101C100098472218237992F8AC146081490023F088
:101C2000010343EA112311F0FF0114BF03F0FD0388
:101C300043F0020321F07F0203F07F031343A26904
:101C400023711368BDE81040184700BF38B548F24B
:101C5000F424C2F201040522E0886369E260020A0A
:101C6000411C53F82230E1809847636960811B680A
:101C700098472379A269400023F0010343EA102327
:101C800010F0FF01DBB214BF03F0FD0343F00203C9
:101C9000608921F07F0503F07F032B43050A237140
:101CA00052F825309847608963696578020A53F8CD
:101CB0002230984748F2F423C2F2010328431B79EB
:101CC00010F0FF0014BF03F0FD0343F0020303F024
:101CD0007F0320F07F0213436070237138BD00BF83
:101CE00048F2F423C2F2010303201A781979D8606C
:101CF000981841F01001013A1A7080F8AC1570473D
:101D000038B548F2F424C2F201040222E088636983
:101D1000E260020A411C53F822306081E18065785C
:101D200098472379284310F0FF0014BF03F0FD0308
:101D300043F0020303F07F0320F07F02134360703F
:101D4000237138BD48F2F421C2F2010102204A7821
:101D50000B79C860520023F0010343EA122312F00A
:101D6000FF0214BF03F0FD0343F0020303F07F03FF
:101D700022F07F0003434A700B71704738B548F278
:101D8000F424C2F201040422E0886369E260020ADA
:101D900053F8223098470546E08863690130020A0B
:101DA00053F822309847E38845EA002002336081E7
:101DB000E38038BD38B548F2F424C2F201040422AD
:101DC000E0886369E260020A53F8223098470546CA
:101DD000E08863690130020A53F82230984745EAE7
:101DE000002080B2E38862696081010A0233E380E7
:101DF00052F82130657898472379284310F0FF0086
:101E000014BF03F0FD0343F0020303F07F0320F04F
:101E10007F0213436070237138BD00BF70B548F274
:101E2000F424C2F201040622E0886369E260020A37
:101E300053F8223098470546E08863690130020A6A
:101E400053F82230984745EA0020E388626980B25F
:101E5000010A0233E380608152F8213098472379E8
:101E6000A569400023F0010343EA102310F0FF01AD
:101E7000DBB2608914BF03F0FD0343F0020321F0DD
:101E80007F0203F07F031343020A237155F82230C7
:101E9000BDE87040184700BF38B548F2F424C2F2DC
:101EA00001040622E0886369E260020A53F82230E6
:101EB00098470546E08863690130020A53F82230EA
:101EC000984745EA002080B2E38862696081010A90
:101ED0000233E38052F8213098472379A269400009
:101EE00023F0010343EA102310F0FF01DBB214BF1B
:101EF00003F0FD0343F00203608921F07F0503F046
:101F00007F032B43050A237152F8253098476089D7
:101F100063696578020A53F82230984748F2F4233F
:101F2000C2F2010328431B7910F0FF0014BF03F035
:101F3000FD0343F0020303F07F0320F07F0213430D
:101F40006070237138BD00BF38B548F2F424C2F286
:101F500001040522E0886369E260020A411C53F82B
:101F60002230E1809847421C54FA82F2204492F8D1
:101F7000AC2490F8AC34E07803EB02239BB2184415
:101F8000434013F0FF0F02D0E3680133E36080B2F7
:101F9000020A6369608153F822306578984748F2F5
:101FA000F423C2F2010328431B7910F0FF0014BF91
:101FB00003F0FD0343F0020303F07F0320F07F02F0
:101FC00013436070237138BD38B548F2F424C2F26F
:101FD00001040822E0886369E26020FA02F2411CF1
:101FE00053F82230E18098472318013054FA80F2E8
:101FF00093F8AC04E37892F8AC146269184400EBEF
:10200000012080B2030A608152F823309847237977
:10201000A269400023F0010343EA102310F0FF01FE
:10202000DBB214BF03F0FD0343F00203608921F02B
:102030007F0503F07F032B43050A237152F82530F7
:102040009847608963696578020A53F82230984797
:1020500048F2F423C2F2010328431B7910F0FF0079
:1020600014BF03F0FD0343F0020303F07F0320F0ED
:102070007F0213436070237138BD00BF38B548F24A
:10208000F424C2F201040422E0886369E260020AD7
:10209000411C53F82230E1809847A3786269657843
:1020A00012681844C0B2608190472379284310F029
:1020B000FF0014BF03F0FD0343F0020303F07F03AE
:1020C00020F07F0213436070237138BD70B548F271
:1020D000F424C2F201040622E0886369E260020A85
:1020E000411CE18053F822309847A3786269184474
:1020F000C0B21368608198472379A569400023F036
:10210000010343EA102310F0FF01DBB2608914BF22
:1021100003F0FD0343F0020321F07F0203F07F038D
:102120001343020A237155F82230BDE87040184766
:1021300048F2F423C2F2010302211A79D96022F095
:1021400001021A71704700BF38B548F2F424C2F298
:1021500001040422E0886369E260020A53F8223035
:102160009847E578284485B2EB0502D5E36801334A
:10217000E360E08863690130020A53F8223098472F
:1021800005EB002080B2E38862696081010A0233B6
:1021900052F82120E3806578904748F2F423C2F298
:1021A000010328431B7910F0FF0014BF03F0FD0367
:1021B00043F0020303F07F0320F07F0213436070BB
:1021C000237138BD38B548F2F424C2F20104072265
:1021D000E0886369E260020A53F8223098470546B6
:1021E000E08863690130020A53F822309847E178A9
:1021F000E38862690D4405EB002080B2010A0233D6
:10220000E380608152F8213098472379A269400029
:1022100023F0010343EA102310F0FF01DBB214BFE7
:1022200003F0FD0343F00203608921F07F0503F012
:102230007F032B43050A237152F8253098476089A4
:1022400063696578020A53F82230984748F2F4230C
:10225000C2F2010328431B7910F0FF0014BF03F002
:10226000FD0343F0020303F07F0320F07F021343DA
:102270006070237138BD00BF38B548F2F424C2F253
:1022800001040422E0886369E260020A53F8223004
:102290009847A578284485B2EB0502D5E368013359
:1022A000E360E08863690130020A53F822309847FE
:1022B00005EB002080B2E38862696081010A023385
:1022C00052F82120E3806578904748F2F423C2F267
:1022D000010328431B7910F0FF0014BF03F0FD0336
:1022E00043F0020303F07F0320F07F02134360708A
:1022F000237138BD70B548F2F424C2F201040722FC
:10230000E0886369E260020A53F822309847054684
:10231000E08863690130020A53F822309847A178B7
:10232000E388626945EA0020084480B2010A02336A
:10233000E380608152F8213098472379A5694000F5
:1023400023F0010343EA102310F0FF01DBB26089A0
:1023500014BF03F0FD0343F0020321F07F0203F0FA
:102360007F031343020A237155F82230BDE8704001
:10237000184700BF38B548F2F424C2F2010407221E
:10238000E0886369E260020A53F822309847054604
:10239000E08863690130020A53F822309847A17837
:1023A000E388626945EA0020084480B2010A0233EA
:1023B000E380608152F8213098472379A269400078
:1023C00023F0010343EA102310F0FF01DBB214BF36
:1023D00003F0FD0343F00203608921F07F0503F061
:1023E0007F032B43050A237152F8253098476089F3
:1023F00063696578020A53F82230984748F2F4235B
:10240000C2F2010328431B7910F0FF0014BF03F050
:10241000FD0343F0020303F07F0320F07F02134328
:102420006070237138BD00BF70B548F2F424C2F269
:1024300001040622E0886369E260020A53F8223050
:1024400098470546E08863690130020A53F8223054
:1024500098472278E388511E013345EA00209BB259
:10246000A51854FA81F11E0A023A80B285F8AC65CB
:10247000227081F8AC356081E08070BD38B548F2DB
:10248000F424C2F201040622E0886369E260020AD1
:10249000411C53F82230E1809847A378626965783F
:1024A0001844C0B2431C54FA83F3204493F8AC148C
:1024B00090F8AC3443EA0120030A608152F82330DB
:1024C00098472379284014BF03F0FD0343F002032B
:1024D00003F07F0320F07F0213436070237138BD47
:1024E00070B548F2F424C2F201040822E08863695E
:1024F000E26020FA02F2411C53F82230E180984752
:10250000A37862691844C0B2431C54FA83F3204490
:1025100093F8AC1490F8AC3443EA0120030A6081CC
:1025200052F8233098472279A56902F0010343EA63
:10253000400003B222F0010242EA232213F0FF011D
:10254000D2B214BF02F0FD0242F00202608902F032
:102550007F0223F07F031343020A237155F82230D0
:102560009847608963696578020A48F2F42653F84F
:1025700022309847C2F2010628403379607014BFB8
:1025800003F0FD0343F0020303F07F0320F07F021A
:102590001343237170BD00BF38B548F2F424C2F272
:1025A00001040322E0886369E260020A411C53F8D7
:1025B0002230E18098472218237992F8AC1465788C
:1025C000608121F03F0203F03F03134329420CBF17
:1025D00043F0020303F0FD03237138BD38B548F220
:1025E000F424C2F201040322E0886369E260020A73
:1025F000411C53F82230E1809847636960811B6871
:10260000657898472379284014BF03F0FD0343F011
:10261000020303F07F0320F07F02134360702371F5
:1026200038BD00BF10B548F2F424C2F201040522FF
:10263000E0886369E260020A411CE18053F82230BD
:1026400098472318227993F8AC14608102F00103B3
:1026500043EA410322F0010242EA132213F0FF0190
:1026600014BF02F0FD0242F0020202F07F0223F0EA
:102670007F031343A26923711368BDE81040184714
:1026800070B548F2F424C2F201040522E0886369BF
:10269000E260020A411C53F82230E18098476369E6
:1026A00060811B6898472279A56902F0010343EA1B
:1026B000400003B222F0010242EA232213F0FF019C
:1026C000D2B214BF02F0FD0242F00202608902F0B1
:1026D0007F0223F07F031343020A237155F822304F
:1026E0009847608963696578020A48F2F42653F8CE
:1026F00022309847C2F2010628403379607014BF37
:1027000003F0FD0343F0020303F07F0320F07F0298
:102710001343237170BD00BF48F2F423C2F20103DA
:1027200004211A78D9600132D2B299181A7091F83E
:10273000AC2522F0300242F020021A71704700BF2F
:1027400038B548F2F424C2F201040222E088636939
:10275000E260020A411C53F822306081E180657812
:1027600098472379284014BF03F0FD0343F0020388
:1027700003F07F0320F07F0213436070237138BDA4
:1027800048F2F422C2F20102022113795078D1609A
:1027900003F0010141EA400123F0010343EA112360
:1027A00011F0FF0F14BF03F0FD0343F0020303F029
:1027B0007F0321F07F00034351701371704700BF06
:1027C00038B548F2F424C2F201040422E0886369B7
:1027D000E260020A53F8223098470546E0886369B0
:1027E0000130020A53F82230984745EA002080B2AF
:1027F000E38862696081010A0233E38052F8213084
:1028000098472379627803F03F0300F0C0010B433F
:1028100010420CBF43F0020303F0FD03237138BDE7
:1028200038B548F2F424C2F201040422E088636956
:10283000E260020A53F8223098470546E08863694F
:102840000130020A53F82230984745EA002080B24E
:10285000E38862696081010A0233E38052F8213023
:10286000657898472379284014BF03F0FD0343F0AF
:10287000020303F07F0320F07F0213436070237193
:1028800038BD00BF70B548F2F424C2F2010406223C
:10289000E0886369E260020A53F8223098470546EF
:1028A000E08863690130020A53F82230984745EA0C
:1028B0000020E388626980B2010A0233E38060810C
:1028C00052F8213098472279A56902F0010343EAC2
:1028D000400003B222F0010242EA2322D2B213F0F6
:1028E000FF01608914BF02F0FD0242F0020202F013
:1028F0007F0223F07F031343020A237155F822302D
:10290000BDE87040184700BF70B548F2F424C2F229
:1029100001040622E0886369E260020A48F2F426B4
:1029200053F8223098470546E08863690130020A6F
:10293000C2F2010653F82230984745EA002080B2DF
:10294000E38862696081010A0233E38052F8213032
:1029500098472279A56902F0010343EA400003B2D7
:1029600022F0010242EA232213F0FF01D2B214BF87
:1029700002F0FD0242F00202608902F07F0223F0C1
:102980007F031343020A237155F822309847608968
:1029900063696578020A53F82230984733792840F2
:1029A00014BF03F0FD0343F0020303F07F0320F0A4
:1029B0007F0213436070237170BD00BF70B548F291
:1029C000F424C2F201040522E0886369E260020A8D
:1029D000411C53F82230E1809847421C54FA82F29D
:1029E000204492F8AC2490F8AC34E07803EB022356
:1029F0009BB21844434013F0FF0F02D0E368013349
:102A0000E36080B2020A6369608153F8223065781E
:102A100048F2F4269847C2F20106284033796070E4
:102A200014BF03F0FD0343F0020303F07F0320F023
:102A30007F021343237170BD70B548F2F424C2F2D3
:102A400001040822E0886369E26020FA02F2411C76
:102A500053F82230E18098472318013054FA80F26D
:102A600093F8AC04E37892F8AC146269184400EB74
:102A7000012080B2030A608152F8233098472279FE
:102A8000A56902F0010343EA400003B222F001020B
:102A900042EA232213F0FF01D2B214BF02F0FD027A
:102AA00042F00202608902F07F0223F07F031343A9
:102AB000020A237155F82230984760896369657866
:102AC000020A48F2F42653F822309847C2F201066F
:102AD00028403379607014BF03F0FD0343F0020314
:102AE00003F07F0320F07F021343237170BD00BF0A
:102AF00038B548F2F424C2F201040422E088636984
:102B0000E260020A411C53F82230E1809847A37822
:102B10006269657812681844C0B260819047237971
:102B2000284014BF03F0FD0343F0020303F07F03CA
:102B300020F07F0213436070237138BD70B548F2F6
:102B4000F424C2F201040622E0886369E260020A0A
:102B5000411CE18053F822309847A37862691844F9
:102B6000C0B21368608198472279A56902F0010319
:102B700043EA400003B222F0010242EA2322D2B229
:102B800013F0FF01608914BF02F0FD0242F002025F
:102B900002F07F0223F07F031343020A237155F8EA
:102BA0002230BDE87040184770B548F2F424C2F2F4
:102BB00001040622E0886369E260020A411CE180A8
:102BC00053F822309847A37862691844C0B213685A
:102BD000608198472279A56902F0010343EA400029
:102BE00003B222F0010242EA232213F0FF01D2B223
:102BF00014BF02F0FD0242F00202608902F07F027F
:102C000023F07F031343020A237155F822309847BB
:102C1000608963696578020A48F2F42653F8223025
:102C20009847C2F2010628403379607014BF03F060
:102C3000FD0343F0020303F07F0320F07F02134300
:102C4000237170BDFFF7B0BF48F2F423C2F2010355
:102C500002211A79D96042F001021A71704700BF4F
:102C600070B548F2F424C2F201040422E0886369DA
:102C7000E260020A53F822309847E578284485B28A
:102C8000EB0502D5E3680133E360E0886369013056
:102C9000020A48F2F42653F82230984705EB002048
:102CA00080B2E38862696081010A023352F8212010
:102CB000E3806578C2F2010690473379284014BF5B
:102CC00003F0FD0343F0020303F07F0320F07F02D3
:102CD00013436070237170BD70B548F2F424C2F2E2
:102CE00001040722E0886369E260020A48F2F426E0
:102CF00053F8223098470546E08863690130020A9C
:102D0000C2F2010653F822309847E178E3886269FD
:102D10000D4405EB002080B2010A0233E38060819C
:102D200052F8213098472279A56902F0010343EA5D
:102D3000400003B222F0010242EA232213F0FF0115
:102D4000D2B214BF02F0FD0242F00202608902F02A
:102D50007F0223F07F031343020A237155F82230C8
:102D60009847608963696578020A53F8223098476A
:102D70003379284014BF03F0FD0343F0020303F04E
:102D80007F0320F07F0213436070237170BD00BF8A
:102D900070B548F2F424C2F201040422E0886369A9
:102DA000E260020A53F822309847A578284485B299
:102DB000EB0502D5E3680133E360E0886369013025
:102DC000020A48F2F42653F82230984705EB002017
:102DD00080B2E38862696081010A023352F82120DF
:102DE000E3806578C2F2010690473379284014BF2A
:102DF00003F0FD0343F0020303F07F0320F07F02A2
:102E000013436070237170BD70B548F2F424C2F2B0
:102E100001040722E0886369E260020A53F8223065
:102E200098470546E08863690130020A53F822306A
:102E30009847A178E388626945EA0020084480B297
:102E4000010A0233E380608152F8213098472279E9
:102E5000A56902F0010343EA400003B222F0010237
:102E600042EA2322D2B213F0FF01608914BF02F0BC
:102E7000FD0242F0020202F07F0223F07F031343BF
:102E8000020A237155F82230BDE87040184700BF90
:102E900070B548F2F424C2F201040722E0886369A5
:102EA000E260020A48F2F42653F8223098470546B9
:102EB000E08863690130020AC2F2010653F8223049
:102EC0009847A178E388626945EA0020084480B207
:102ED000010A0233E380608152F821309847227959
:102EE000A56902F0010343EA400003B222F00102A7
:102EF00042EA232213F0FF01D2B214BF02F0FD0216
:102F000042F00202608902F07F0223F07F03134344
:102F1000020A237155F82230984760896369657801
:102F2000020A53F8223098473379284014BF03F03F
:102F3000FD0343F0020303F07F0320F07F021343FD
:102F40006070237170BD00BF10B448F2F423C2F268
:102F5000010306221978DA604A1CD2B2941C501C74
:102F600053FA84F453FA80F01A4494F8AC4590F87C
:102F7000AC0592F8AC251A71033140EA04221970AD
:102F8000DA805DF8044B704738B548F2F424C2F299
:102F900001040622E0886369E260020A411C53F8DA
:102FA0002230E1809847A378626965781844C0B2FE
:102FB000431C54FA83F3204493F8AC1490F8AC34D7
:102FC00043EA0120030A608152F8233098472379AD
:102FD000684010F0FF0014BF03F0FD0343F002034C
:102FE00003F07F0320F07F0213436070237138BD2C
:102FF00038B548F2F424C2F201040822E08863697B
:10300000E26020FA02F2411C53F82230E180984736
:10301000A37862691844C0B2431C54FA83F3204475
:1030200093F8AC1490F8AC3443EA0120030A6081B1
:1030300052F8233098472379C2074FEA50014CBF1A
:1030400043F0010303F0FE0339B303F0FD0360898D
:10305000A269050A03F07F03237152F82530C9B233
:103060009847608963696578020A53F82230984767
:1030700048F2F423C2F2010368401B7910F0FF000C
:1030800014BF03F0FD0343F0020303F07F0320F0BD
:103090007F0213436070237138BD43F00203D6E70B
:1030A00010B548F2F424C2F201040322E0886369F7
:1030B000E260020A411C53F82230E180984722184E
:1030C000637892F8AC24608153402279637014BF16
:1030D00002F0FD0242F0020202F07F0223F07F01C3
:1030E0000A43227110BD00BF70B548F2F424C2F249
:1030F00001040522E0886369E260020A411C53F87A
:103100002230E1809847636960811B689847237982
:10311000C2074FEA50014CBF43F0010303F0FE0326
:1031200069B943F002036089A26903F07F03050ACD
:10313000237152F82530C9B2BDE87040184703F03A
:10314000FD03F0E738B548F2F424C2F20104052289
:10315000E0886369E260020A411C53F82230E18092
:103160009847636960811B6898472379C2074FEAD3
:1031700050014CBF43F0010303F0FE0339B303F0E9
:10318000FD036089A269050A03F07F03237152F8E9
:103190002530C9B29847608963696578020A53F897
:1031A0002230984748F2F423C2F2010368401B79A9
:1031B00010F0FF0014BF03F0FD0343F0020303F01F
:1031C0007F0320F07F0213436070237138BD43F00A
:1031D0000203D6E748F2F423C2F2010303211A786E
:1031E000D9609918587881F8AC05013A1A7070477F
:1031F00038B548F2F424C2F201040222E08863697F
:10320000E260020A411C53F822306081E180657857
:1032100098472379684010F0FF0014BF03F0FD03C6
:1032200043F0020303F07F0320F07F02134360703A
:10323000237138BD48F2F423C2F2010302215A7807
:10324000D96012F0010F4FEA62011A79C8B214BFB7
:1032500042F0010202F0FE0231B942F0020202F035
:103260007F021A715870704702F0FD0202F07F026F
:103270001A715870704700BF38B548F2F424C2F292
:1032800001040322E0886369E260020A53F82230F5
:1032900098470546E08863690130020A53F82230F6
:1032A000984745EA002080B26081E08038BD00BFC9
:1032B00038B548F2F424C2F201040422E0886369BC
:1032C000E260020A53F8223098470546E0886369B5
:1032D0000130020A53F82230984745EA002080B2B4
:1032E000E38862696081010A0233E38052F8213089
:1032F000657898472379684010F0FF0014BF03F009
:10330000FD0343F0020303F07F0320F07F02134329
:103310006070237138BD00BF70B548F2F424C2F26A
:1033200001040622E0886369E260020A53F8223051
:1033300098470546E08863690130020A53F8223055
:10334000984745EA002080B2E38862696081010AFB
:103350000233E38052F8213098472379C2074FEABD
:1033600050014CBF43F0010303F0FE0369B943F081
:1033700002036089A26903F07F03050A237152F8F2
:103380002530C9B2BDE87040184703F0FD03F0E7EF
:1033900038B548F2F424C2F201040622E0886369D9
:1033A000E260020A53F8223098470546E0886369D4
:1033B0000130020A53F82230984745EA002080B2D3
:1033C000E38862696081010A0233E38052F82130A8
:1033D00098472379C2074FEA50014CBF43F00103DD
:1033E00003F0FE0339B303F0FD036089A269050A07
:1033F00003F07F03237152F82530C9B298476089E2
:1034000063696578020A53F82230984748F2F4233A
:10341000C2F2010368401B7910F0FF0014BF03F0F3
:10342000FD0343F0020303F07F0320F07F02134308
:103430006070237138BD43F00203D6E738B548F217
:10344000F424C2F201040522E0886369E260020A02
:10345000411C53F82230E1809847421C54FA82F212
:10346000204492F8AC2490F8AC34E07803EB0223CB
:103470009BB21844434013F0FF0F02D0E3680133BE
:10348000E36080B2020A6369608153F82230657894
:10349000984748F2F423C2F2010368401B7910F008
:1034A000FF0014BF03F0FD0343F0020303F07F03AA
:1034B00020F07F0213436070237138BD38B548F2A5
:1034C000F424C2F201040822E0886369E26020FA71
:1034D00002F2411C53F82230E18098476369608111
:1034E0001B6898472379C2074FEA50014CBF43F04D
:1034F000010303F0FE0339B303F0FD036089A26901
:10350000050A03F07F03237152F82530C9B29847AA
:10351000608963696578020A53F82230984748F257
:10352000F423C2F2010368401B7910F0FF0014BFBE
:1035300003F0FD0343F0020303F07F0320F07F025A
:1035400013436070237138BD43F00203D6E700BF18
:1035500038B548F2F424C2F201040422E088636919
:10356000E260020A411C53F82230E1809847A378B8
:103570006269657812681844C0B260819047237907
:10358000684010F0FF0014BF03F0FD0343F0020396
:1035900003F07F0320F07F0213436070237138BD76
:1035A00070B548F2F424C2F201040622E08863698F
:1035B000E260020A411CE18053F822309847A37868
:1035C00062691844C0B21368608198472379C207C2
:1035D0004FEA50014CBF43F0010303F0FE0369B909
:1035E00043F002036089A26903F07F03050A237197
:1035F00052F82530C9B2BDE87040184703F0FD030A
:10360000F0E700BF38B548F2F424C2F20104062204
:10361000E0886369E260020A411CE18053F82230CD
:103620009847A37862691844C0B2136860819847CC
:103630002379C2074FEA50014CBF43F0010303F066
:10364000FE0339B303F0FD036089A269050A03F0A4
:103650007F03237152F82530C9B2984760896369A6
:103660006578020A53F82230984748F2F423C2F2F0
:10367000010368401B7910F0FF0014BF03F0FD0345
:1036800043F0020303F07F0320F07F0213436070D6
:10369000237138BD43F00203D6E700BF48F2F4239C
:1036A000C2F2010302211A79D96022F004021A71D0
:1036B000704700BF38B548F2F424C2F20104042276
:1036C000E0886369E260020A53F822309847E5789F
:1036D000284485B2EB0502D5E3680133E360E08856
:1036E00063690130020A53F82230984705EB002045
:1036F00080B2E38862696081010A023352F82120B6
:10370000E3806578904748F2F423C2F201036840F1
:103710001B7910F0FF0014BF03F0FD0343F0020318
:1037200003F07F0320F07F0213436070237138BDE4
:1037300038B548F2F424C2F201040422E088636937
:10374000E260020A53F822309847A578284485B2EF
:10375000EB0502D5E3680133E360E088636901307B
:10376000020A53F82230984705EB002080B2E38824
:1037700062696081010A023352F82120E380657892
:10378000904748F2F423C2F2010368401B7910F01D
:10379000FF0014BF03F0FD0343F0020303F07F03B7
:1037A00020F07F0213436070237138BD70B548F27A
:1037B000F424C2F201040722E0886369E260020A8D
:1037C00053F8223098470546E08863690130020AC1
:1037D00053F822309847A178E388626945EA0020CF
:1037E000084480B2010A0233E380608152F821303C
:1037F00098472379C2074FEA50014CBF43F00103B9
:1038000003F0FE0369B943F002036089A26903F083
:103810007F03050A237152F82530C9B2BDE8704014
:10382000184703F0FD03F0E738B548F2F424C2F27C
:1038300001040722E0886369E260020A53F822303B
:1038400098470546E08863690130020A53F8223040
:103850009847E178E38862690D4405EB002080B267
:10386000010A0233E380608152F8213098472379BE
:10387000C2074FEA50014CBF43F0010303F0FE03BF
:1038800039B303F0FD036089A269050A03F07F03E1
:10389000237152F82530C9B2984760896369657809
:1038A000020A53F82230984748F2F423C2F2010387
:1038B00068401B7910F0FF0014BF03F0FD0343F0D4
:1038C000020303F07F0320F07F0213436070237133
:1038D00038BD43F00203D6E7FFF7A6BF48F2F42352
:1038E000C2F2010306211A78D960911C013253FA01
:1038F00082F253FA81F092F8AC2590F8AC05197079
:1039000042EA00220132DA80704700BFF8B548F27F
:10391000F424C2F201040622E0886369E260020A2C
:10392000411C53F82230E1809847A378626918441B
:10393000C0B2431C54FA83F3204493F8AC1490F8BB
:10394000AC3443EA0120030A608152F823309847DF
:1039500022796678130739D502F0010506F00F01C8
:1039600000F00F0329441944092906F0F00355D843
:1039700000F0F0073B440B443544054415F0FF0FBD
:103980000CBF42F0020202F0FD02DDB225F07F0121
:1039900086EA030702F07F020A4339460F0602D582
:1039A0007040060644D502F0BF0203F4F871902976
:1039B00084BF6033DDB203F47F63F02B8CBF42F031
:1039C000010222F0010222716570F8BD02F00103CC
:1039D0003344034413F0FF0502F07D0218BF25F0C5
:1039E0007F0180EA06000CBF42F002020A43000693
:1039F0000ED502F0BF0248F2F421FF2BC2F2010102
:103A00008CBF42F0010222F001020A716570F8BD1C
:103A10005E403106EDD542F04002ECE703F11007BD
:103A2000063100F0F00301F00F013B440B44A3E723
:103A300042F04002B9E700BFF8B548F2F424C2F200
:103A400001040822E0886369E26020FA02F2411C66
:103A500053F82230E1809847A37862691844C0B2D5
:103A6000431C54FA83F3204493F8AC1490F8AC341C
:103A700043EA0120030A608152F8233098472379F2
:103A8000D901C9B241EA5001C20789B24CBF43F023
:103A9000010303F0FE03002956D003F0FD03608903
:103AA000A26921F07F0503F07F032B43050A2371F0
:103AB00052F82530C9B2984760896369020A53F801
:103AC0002230984748F2F423C2F2010322795E784B
:103AD00013073CD502F0010506F00F0100F00F03BB
:103AE00029441944092906F0F00358D800F0F007DA
:103AF0003B440B443544054415F0FF0F0CBF42F026
:103B0000020202F0FD02DDB225F07F0186EA030722
:103B100002F07F020A4339460F0602D570400606BE
:103B200047D502F0BF0203F4F871902984BF6033D7
:103B3000DDB203F47F63F02B8CBF42F0010222F070
:103B4000010222716570F8BD43F00203A7E702F09D
:103B500001033344034413F0FF0502F07D0218BF54
:103B600025F07F0180EA06000CBF42F002020A4302
:103B700000060ED502F0BF0248F2F421FF2BC2F27C
:103B800001018CBF42F0010222F001020A7165704E
:103B9000F8BD5E403106EDD542F04002ECE703F19E
:103BA0001007063100F0F00301F00F013B440B4415
:103BB000A0E742F04002B6E710B548F2F424C2F2A2
:103BC00001040322E0886369E260020A411CE1808B
:103BD00053F822309847608110BD00BFF8B548F215
:103BE000F424C2F201040322E0886369E260020A5D
:103BF000411C53F82230E1809847227960812318D4
:103C0000667893F8AC54130739D502F0010006F03A
:103C10000F0105F00F0301441944092906F0F003D0
:103C200055D805F0F0073B440B443044284410F0CD
:103C3000FF0F0CBF42F0020202F0FD02D8B220F0EA
:103C40007F0186EA030702F07F020A4339460F0626
:103C500002D575402E0644D502F0BF0203F4F87178
:103C6000902984BF6033D8B203F47F63F02B8CBFFC
:103C700042F0010222F0010222716070F8BD02F0F0
:103C8000010333442B4413F0FF0002F07D0218BF00
:103C900020F07F0185EA06050CBF42F002020A43CC
:103CA0002D060ED502F0BF0248F2F421FF2BC2F21E
:103CB00001018CBF42F0010222F001020A71607022
:103CC000F8BD5E403106EDD542F04002ECE703F16D
:103CD0001007063105F0F00301F00F013B440B44DF
:103CE000A3E742F04002B9E710B548F2F424C2F26B
:103CF00001040522E0886369E260020A411C53F86E
:103D00002230E1809847237960812218D90192F806
:103D1000AC24C9B241EA5201D2074CBF43F00103BF
:103D200003F0FE0361B943F0020321F07F0203F0C8
:103D30007F031343A26923711368BDE8104018473D
:103D400003F0FD03F1E700BFF8B548F2F424C2F236
:103D500001040522E0886369E260020A411C53F80D
:103D60002230E1809847636960811B689847237916
:103D7000D901C9B241EA5001C20789B24CBF43F030
:103D8000010303F0FE03002956D003F0FD03608910
:103D9000A26921F07F0503F07F032B43050A2371FD
:103DA00052F82530C9B2984760896369020A53F80E
:103DB0002230984748F2F423C2F2010322795E7858
:103DC00013073CD502F0010506F00F0100F00F03C8
:103DD00029441944092906F0F00358D800F0F007E7
:103DE0003B440B443544054415F0FF0F0CBF42F033
:103DF000020202F0FD02DDB225F07F0186EA030730
:103E000002F07F020A4339460F0602D570400606CB
:103E100047D502F0BF0203F4F871902984BF6033E4
:103E2000DDB203F47F63F02B8CBF42F0010222F07D
:103E3000010222716570F8BD43F00203A7E702F0AA
:103E400001033344034413F0FF0502F07D0218BF61
:103E500025F07F0180EA06000CBF42F002020A430F
:103E600000060ED502F0BF0248F2F421FF2BC2F289
:103E700001018CBF42F0010222F001020A7165705B
:103E8000F8BD5E403106EDD542F04002ECE703F1AB
:103E90001007063100F0F00301F00F013B440B4422
:103EA000A0E742F04002B6E748F2F423C2F2010371
:103EB00004211A78D9600132D2B299181A7091F897
:103EC000AC255A70197942B941F0020101F07F0125
:103ED00022F07F020A431A71704701F0FD01F5E7F5
:103EE000F8B548F2F424C2F201040222E0886369C2
:103EF000E260020A411C53F822306081E180984759
:103F000022796678130739D502F0010506F00F0112
:103F100000F00F0329441944092906F0F00355D88D
:103F200000F0F0073B440B443544054415F0FF0F07
:103F30000CBF42F0020202F0FD02DDB225F07F016B
:103F400086EA030702F07F020A4339460F0602D5CC
:103F50007040060644D502F0BF0203F4F8719029C0
:103F600084BF6033DDB203F47F63F02B8CBF42F07B
:103F7000010222F0010222716570F8BD02F0010316
:103F80003344034413F0FF0502F07D0218BF25F00F
:103F90007F0180EA06000CBF42F002020A430006DD
:103FA0000ED502F0BF0248F2F421FF2BC2F201014C
:103FB0008CBF42F0010222F001020A716570F8BD67
:103FC0005E403106EDD542F04002ECE703F1100708
:103FD000063100F0F00301F00F013B440B44A3E76E
:103FE00042F04002B9E700BF48F2F422C2F20102F7
:103FF000022113795078D160D901C9B241EA500148
:10400000C0074CBF43F0010303F0FE0349B943F07E
:10401000020303F07F0321F07F000343517013710B
:10402000704703F0FD03F4E7F8B548F2F424C2F258
:1040300001040522E0886369E260020A53F8223035
:1040400098470646E08863690130020A53F8223037
:10405000984746EA002006B2B5B22A0A63692846A4
:1040600053F82230984701350746EDB206F47F40F9
:104070002843020A636953F82230984747EA002030
:1040800080B26081E080F8BDF8B548F2F424C2F255
:1040900001040422E0886369E260020A53F82230D6
:1040A00098470546E08863690130020A53F82230D8
:1040B000984745EA002080B2E38862696081010A7E
:1040C0000233E38052F8213098472279667813074B
:1040D00039D502F0010506F00F0100F00F03294465
:1040E0001944092906F0F00355D800F0F0073B44C5
:1040F0000B443544054415F0FF0F0CBF42F002029B
:1041000002F0FD02DDB225F07F0186EA030702F02E
:104110007F020A4339460F0602D57040060644D591
:1041200002F0BF0203F4F871902984BF6033DDB25E
:1041300003F47F63F02B8CBF42F0010222F00102F6
:1041400022716570F8BD02F001033344034413F09B
:10415000FF0502F07D0218BF25F07F0180EA06000E
:104160000CBF42F002020A4300060ED502F0BF0265
:1041700048F2F421FF2BC2F201018CBF42F0010290
:1041800022F001020A716570F8BD5E403106EDD57E
:1041900042F04002ECE703F11007063100F0F003B3
:1041A00001F00F013B440B44A3E742F04002B9E7A2
:1041B00070B548F2F424C2F201040622E088636973
:1041C000E260020A53F8223098470546E0886369A6
:1041D0000130020A53F82230984745EA002080B2A5
:1041E000E38862696081010A0233E38052F821307A
:1041F00098472379D901C9B241EA5001C20789B26F
:104200004CBF43F0010303F0FE0381B943F0020306
:104210006089A56921F07F0203F07F031343020A3E
:10422000237155F82230C9B2BDE87040184703F039
:10423000FD03EDE7F8B548F2F424C2F201040622CA
:10424000E0886369E260020A53F822309847054625
:10425000E08863690130020A53F82230984745EA42
:10426000002080B2E38862696081010A0233E38042
:1042700052F8213098472379D901C9B241EA500157
:10428000C20789B24CBF43F0010303F0FE030029CB
:1042900056D003F0FD036089A26921F07F0503F089
:1042A0007F032B43050A237152F82530C9B2984782
:1042B00060896369020A53F82230984748F2F42370
:1042C000C2F2010322795E7813073CD502F00105A2
:1042D00006F00F0100F00F0329441944092906F0E4
:1042E000F00358D800F0F0073B440B443544054434
:1042F00015F0FF0F0CBF42F0020202F0FD02DDB22A
:1043000025F07F0186EA030702F07F020A4339465F
:104310000F0602D57040060647D502F0BF0203F42F
:10432000F871902984BF6033DDB203F47F63F02B12
:104330008CBF42F0010222F0010222716570F8BDCB
:1043400043F00203A7E702F001033344034413F0F0
:10435000FF0502F07D0218BF25F07F0180EA06000C
:104360000CBF42F002020A4300060ED502F0BF0263
:1043700048F2F421FF2BC2F201018CBF42F001028E
:1043800022F001020A716570F8BD5E403106EDD57C
:1043900042F04002ECE703F11007063100F0F003B1
:1043A00001F00F013B440B44A0E742F04002B6E7A6
:1043B000F8B548F2F424C2F201040522E0886369EA
:1043C000E260020A411C53F82230E1809847421C07
:1043D00054FA82F2204492F8AC2490F8AC34E0789D
:1043E00003EB02239BB21844434013F0FF0F02D0AB
:1043F000E3680133E36080B2020A6369608153F8C5
:104400002230984748F2F423C2F2010322795E7801
:10441000130739D502F0010506F00F0100F00F0374
:1044200029441944092906F0F00355D800F0F00793
:104430003B440B443544054415F0FF0F0CBF42F0DC
:10444000020202F0FD02DDB225F07F0186EA0307D9
:1044500002F07F020A4339460F0602D57040060675
:1044600044D502F0BF0203F4F871902984BF603391
:10447000DDB203F47F63F02B8CBF42F0010222F027
:10448000010222716570F8BD02F001033344034458
:1044900013F0FF0502F07D0218BF25F07F0180EACE
:1044A00006000CBF42F002020A4300060ED502F0DD
:1044B000BF0248F2F421FF2BC2F201018CBF42F08F
:1044C000010222F001020A716570F8BD5E403106FA
:1044D000EDD542F04002ECE703F11007063100F0A1
:1044E000F00301F00F013B440B44A3E742F040020C
:1044F000B9E700BFF8B548F2F424C2F2010408227B
:10450000E0886369E26020FA02F2411C53F822302D
:10451000E18098472318013054FA80F293F8AC04F4
:10452000E37892F8AC146269184400EB012080B281
:10453000030A608152F8233098472379D901C9B220
:1045400041EA5001C20789B24CBF43F0010303F0B6
:10455000FE03002956D003F0FD036089A26921F013
:104560007F0503F07F032B43050A237152F82530A2
:10457000C9B2984760896369020A53F822309847A4
:1045800048F2F423C2F2010322795E7813073CD586
:1045900002F0010506F00F0100F00F032944194451
:1045A000092906F0F00358D800F0F0073B440B440B
:1045B0003544054415F0FF0F0CBF42F0020202F033
:1045C000FD02DDB225F07F0186EA030702F07F02DB
:1045D0000A4339460F0602D57040060647D502F059
:1045E000BF0203F4F871902984BF6033DDB203F495
:1045F0007F63F02B8CBF42F0010222F00102227196
:104600006570F8BD43F00203A7E702F001033344ED
:10461000034413F0FF0502F07D0218BF25F07F016F
:1046200080EA06000CBF42F002020A4300060ED5E3
:1046300002F0BF0248F2F421FF2BC2F201018CBF4D
:1046400042F0010222F001020A716570F8BD5E407D
:104650003106EDD542F04002ECE703F110070631D8
:1046600000F0F00301F00F013B440B44A0E742F0DF
:104670004002B6E7F8B548F2F424C2F2010404227D
:10468000E0886369E260020A411C53F82230E1804D
:104690009847A37862691844C0B21368608198474C
:1046A00022796678130739D502F0010506F00F016B
:1046B00000F00F0329441944092906F0F00355D8E6
:1046C00000F0F0073B440B443544054415F0FF0F60
:1046D0000CBF42F0020202F0FD02DDB225F07F01C4
:1046E00086EA030702F07F020A4339460F0602D525
:1046F0007040060644D502F0BF0203F4F871902919
:1047000084BF6033DDB203F47F63F02B8CBF42F0D3
:10471000010222F0010222716570F8BD02F001036E
:104720003344034413F0FF0502F07D0218BF25F067
:104730007F0180EA06000CBF42F002020A43000635
:104740000ED502F0BF0248F2F421FF2BC2F20101A4
:104750008CBF42F0010222F001020A716570F8BDBF
:104760005E403106EDD542F04002ECE703F1100760
:10477000063100F0F00301F00F013B440B44A3E7C6
:1047800042F04002B9E700BF70B548F2F424C2F22B
:1047900001040622E0886369E260020A411CE180AC
:1047A00053F822309847A37862691844C0B213685E
:1047B000608198472379D901C9B241EA5001C20703
:1047C00089B24CBF43F0010303F0FE0381B943F00B
:1047D00002036089A56921F07F0203F07F03134380
:1047E000020A237155F82230C9B2BDE8704018475B
:1047F00003F0FD03EDE700BFF8B548F2F424C2F280
:1048000001040622E0886369E260020A411CE1803B
:1048100053F822309847A37862691844C0B21368ED
:10482000608198472379D901C9B241EA5001C20792
:1048300089B24CBF43F0010303F0FE03002956D0B8
:1048400003F0FD036089A26921F07F0503F07F0377
:104850002B43050A237152F82530C9B29847608965
:104860006369020A53F82230984748F2F423C2F2EF
:10487000010322795E7813073CD502F0010506F0AA
:104880000F0100F00F0329441944092906F0F00331
:1048900058D800F0F0073B440B443544054415F06C
:1048A000FF0F0CBF42F0020202F0FD02DDB225F064
:1048B0007F0186EA030702F07F020A4339460F06AA
:1048C00002D57040060647D502F0BF0203F4F87126
:1048D000902984BF6033DDB203F47F63F02B8CBF7B
:1048E00042F0010222F0010222716570F8BD43F02E
:1048F0000203A7E702F001033344034413F0FF056A
:1049000002F07D0218BF25F07F0180EA06000CBF8F
:1049100042F002020A4300060ED502F0BF0248F23E
:10492000F421FF2BC2F201018CBF42F0010222F000
:1049300001020A716570F8BD5E403106EDD542F0A6
:104940004002ECE703F11007063100F0F00301F03C
:104950000F013B440B44A0E742F04002B6E700BF22
:1049600048F2F423C2F2010302211A79D96042F01D
:1049700004021A71704700BFF8B548F2F424C2F27D
:1049800001040422E0886369E260020A53F82230DD
:104990009847E578284485B2EA0502D5E3680133F3
:1049A000E360E08863690130020A53F822309847D7
:1049B00005EB002080B2E38862696081010A02335E
:1049C00052F82120E380904748F2F423C2F2010319
:1049D00022795E78130739D502F0010506F00F0140
:1049E00000F00F0329441944092906F0F00355D8B3
:1049F00000F0F0073B440B443544054415F0FF0F2D
:104A00000CBF42F0020202F0FD02DDB225F07F0190
:104A100086EA030702F07F020A4339460F0602D5F1
:104A20007040060644D502F0BF0203F4F8719029E5
:104A300084BF6033DDB203F47F63F02B8CBF42F0A0
:104A4000010222F0010222716570F8BD02F001033B
:104A50003344034413F0FF0502F07D0218BF25F034
:104A60007F0180EA06000CBF42F002020A43000602
:104A70000ED502F0BF0248F2F421FF2BC2F2010171
:104A80008CBF42F0010222F001020A716570F8BD8C
:104A90005E403106EDD542F04002ECE703F110072D
:104AA000063100F0F00301F00F013B440B44A3E793
:104AB00042F04002B9E700BFF8B548F2F424C2F270
:104AC00001040722E0886369E260020A53F8223099
:104AD00098470546E08863690130020A53F822309E
:104AE0009847E178E38862690D4405EB002080B2C5
:104AF000010A0233E380608152F82130984723791C
:104B0000D901C9B241EA5001C20789B24CBF43F092
:104B1000010303F0FE03002956D003F0FD03608972
:104B2000A26921F07F0503F07F032B43050A23715F
:104B300052F82530C9B2984760896369020A53F870
:104B40002230984748F2F423C2F2010322795E78BA
:104B500013073CD502F0010506F00F0100F00F032A
:104B600029441944092906F0F00358D800F0F00749
:104B70003B440B443544054415F0FF0F0CBF42F095
:104B8000020202F0FD02DDB225F07F0186EA030792
:104B900002F07F020A4339460F0602D5704006062E
:104BA00047D502F0BF0203F4F871902984BF603347
:104BB000DDB203F47F63F02B8CBF42F0010222F0E0
:104BC000010222716570F8BD43F00203A7E702F00D
:104BD00001033344034413F0FF0502F07D0218BFC4
:104BE00025F07F0180EA06000CBF42F002020A4372
:104BF00000060ED502F0BF0248F2F421FF2BC2F2EC
:104C000001018CBF42F0010222F001020A716570BD
:104C1000F8BD5E403106EDD542F04002ECE703F10D
:104C20001007063100F0F00301F00F013B440B4484
:104C3000A0E742F04002B6E7F8B548F2F424C2F229
:104C400001040422E0886369E260020A53F822301A
:104C50009847A578284485B2EA0502D5E368013370
:104C6000E360E08863690130020A53F82230984714
:104C700005EB002080B2E38862696081010A02339B
:104C800052F82120E380904748F2F423C2F2010356
:104C900022795E78130739D502F0010506F00F017D
:104CA00000F00F0329441944092906F0F00355D8F0
:104CB00000F0F0073B440B443544054415F0FF0F6A
:104CC0000CBF42F0020202F0FD02DDB225F07F01CE
:104CD00086EA030702F07F020A4339460F0602D52F
:104CE0007040060644D502F0BF0203F4F871902923
:104CF00084BF6033DDB203F47F63F02B8CBF42F0DE
:104D0000010222F0010222716570F8BD02F0010378
:104D10003344034413F0FF0502F07D0218BF25F071
:104D20007F0180EA06000CBF42F002020A4300063F
:104D30000ED502F0BF0248F2F421FF2BC2F20101AE
:104D40008CBF42F0010222F001020A716570F8BDC9
:104D50005E403106EDD542F04002ECE703F110076A
:104D6000063100F0F00301F00F013B440B44A3E7D0
:104D700042F04002B9E700BF70B548F2F424C2F235
:104D800001040722E0886369E260020A53F82230D6
:104D900098470546E08863690130020A53F82230DB
:104DA0009847A178E388626945EA0020084480B208
:104DB000010A0233E380608152F821309847237959
:104DC000D901C9B241EA5001C20789B24CBF43F0D0
:104DD000010303F0FE0381B943F002036089A56972
:104DE00021F07F0203F07F031343020A237155F879
:104DF0002230C9B2BDE87040184703F0FD03EDE76B
:104E0000F8B548F2F424C2F201040722E08863698D
:104E1000E260020A53F8223098470546E088636949
:104E20000130020A53F822309847A178E38862697A
:104E300045EA0020084480B2010A0233E380608121
:104E400052F8213098472379D901C9B241EA50017B
:104E5000C20789B24CBF43F0010303F0FE030029EF
:104E600056D003F0FD036089A26921F07F0503F0AD
:104E70007F032B43050A237152F82530C9B29847A6
:104E800060896369020A53F82230984748F2F42394
:104E9000C2F2010322795E7813073CD502F00105C6
:104EA00006F00F0100F00F0329441944092906F008
:104EB000F00358D800F0F0073B440B443544054458
:104EC00015F0FF0F0CBF42F0020202F0FD02DDB24E
:104ED00025F07F0186EA030702F07F020A43394684
:104EE0000F0602D57040060647D502F0BF0203F454
:104EF000F871902984BF6033DDB203F47F63F02B37
:104F00008CBF42F0010222F0010222716570F8BDEF
:104F100043F00203A7E702F001033344034413F014
:104F2000FF0502F07D0218BF25F07F0180EA060030
:104F30000CBF42F002020A4300060ED502F0BF0287
:104F400048F2F421FF2BC2F201018CBF42F00102B2
:104F500022F001020A716570F8BD5E403106EDD5A0
:104F600042F04002ECE703F11007063100F0F003D5
:104F700001F00F013B440B44A0E742F04002B6E7CA
:104F800070B548F2F424C2F201040622E088636995
:104F9000E260020A411CE18053F822309847A3786E
:104FA000A26961781844C0B2431C54FA83F32044C8
:104FB00093F8AC5490F8AC3443EA0520030A6081BE
:104FC00052F82330BDE87040184700BF70B548F272
:104FD000F424C2F201040622E0886369E260020A56
:104FE000411CE18053F822309847A378A269617888
:104FF0001844C0B2431C54FA83F3204493F8AC54D1
:1050000090F8AC3443EA0520030A608152F823305B
:1050100098476089A369A178020A53F8223098471B
:105020006089A3696178A278040A114053F824309A
:10503000BDE87040184700BF10B548F2F424C2F232
:1050400001040322E0886369E260020A411CE180F6
:1050500053F822309847A3696081E1781B68BDE866
:105060001040184710B548F2F424C2F2010403229C
:10507000E0886369E260020A411CE18053F8223053
:105080009847A369608161781B68BDE810401847A4
:1050900010B548F2F424C2F201040322E0886369E7
:1050A000E260020A411CE18053F822309847A3696C
:1050B0006081A1781B68BDE81040184710B548F220
:1050C000F424C2F201040322E0886369E260020A68
:1050D000411C53F82230E1809847A36960816178D0
:1050E0001B6898476089A369A178020A53F82230A7
:1050F00098476089A3696178A278040A114053F83F
:105100002430BDE81040184748F2F422C2F20102F0
:105110000221D378D160013BDBB2D370117943B95E
:1051200041F0020101F07F0123F07F030B43137173
:10513000704701F0FD01F5E748F2F423C2F20103E4
:1051400002219A78D9605A70197942B941F0020166
:1051500001F07F0122F07F020A431A71704701F0CB
:10516000FD01F5E770B548F2F424C2F2010404220F
:10517000E0886369E260020A53F8223098470546E6
:10518000E08863690130020A53F82230984745EA03
:105190000020E388A26980B2010A0233E3806081C3
:1051A00052F82130E178BDE87040184770B548F2F8
:1051B000F424C2F201040422E0886369E260020A76
:1051C00053F8223098470546E08863690130020AA7
:1051D00053F82230984745EA0020E388A26980B25C
:1051E000010A0233E380608152F821306178BDE822
:1051F0007040184770B548F2F424C2F2010404224A
:10520000E0886369E260020A53F822309847054655
:10521000E08863690130020A53F82230984745EA72
:105220000020E388A26980B2010A0233E380608132
:1052300052F82130A178BDE87040184770B548F2A7
:10524000F424C2F201040422E0886369E260020AE5
:1052500053F8223098470546E08863690130020A16
:1052600053F82230984745EA002080B2E388A269CB
:105270006081010A0233E38052F821306178984757
:105280006089A369A178020A53F82230984760899F
:10529000A3696178A278040A114053F82430BDE86C
:1052A0007040184770B548F2F424C2F20104062297
:1052B000E0886369E260020A411CE18053F8223011
:1052C00098472318013054FA80F293F8AC04E3783D
:1052D00092F8AC54A2696178184400EB052080B2C2
:1052E000030A608152F82330BDE87040184700BFC0
:1052F00048F2F423C2F201030622DA60704700BFCD
:1053000010B548F2F424C2F201040422E088636973
:10531000E260020A411CE18053F822309847A378EA
:10532000A269E17812681844C0B26081BDE81040FB
:10533000104700BF10B548F2F424C2F20104042261
:10534000E0886369E260020A411CE18053F8223080
:105350009847A378A269617812681844C0B2608146
:10536000BDE81040104700BF10B548F2F424C2F267
:1053700001040422E0886369E260020A411CE180C2
:1053800053F822309847E378A269A178126818444C
:10539000C0B26081BDE81040104700BF10B548F2B0
:1053A000F424C2F201040422E0886369E260020A84
:1053B000411CE18053F822309847E378A269617874
:1053C00012681844C0B2608190476089A369A178CF
:1053D000020A53F8223098476089A3696178A2785D
:1053E000040A114053F82430BDE81040184700BFAC
:1053F00048F2F423C2F201030221DA78D9605A702C
:10540000197942B941F0020101F07F0122F07F02D7
:105410000A431A71704701F0FD01F5E770B548F2D3
:10542000F424C2F201040522E0886369E260020A02
:1054300053F8223098470546E08863690130020A34
:1054400053F822309847E678E388A26961783544BA
:1054500005EB002080B2050A0233E380608152F838
:105460002530BDE87040184748F2F423C2F201032A
:1054700002219A78D9601A70704700BF70B548F25F
:10548000F424C2F201040522E0886369E260020AA2
:1054900053F8223098470546E08863690130020AD4
:1054A00053F822309847A678E388A269617845EAE4
:1054B0000020304480B2050A0233E380608152F854
:1054C0002530BDE87040184748F2F423C2F20103CA
:1054D0000522DA60704700BF10B548F2F424C2F22A
:1054E00001040222E0886369E260020A411C53F869
:1054F00022306081E18098472379E07040B943F021
:10550000020303F07F0320F07F001843207110BDD9
:1055100003F0FD03F5E700BF10B548F2F424C2F232
:1055200001040622E0886369E260020A411C53F824
:105530002230E1809847A37862691844C0B2431CC6
:1055400054FA83F3204493F8AC1490F8AC3443EA53
:105550000120030A608152F8233098472379607054
:1055600040B943F0020303F07F0320F07F001843AB
:10557000207110BD03F0FD03F5E700BF10B548F240
:10558000F424C2F201040222E0886369E260020AA4
:10559000411C53F822306081E18098472379A07044
:1055A00040B943F0020303F07F0320F07F0018436B
:1055B000207110BD03F0FD03F5E700BF10B548F200
:1055C000F424C2F201040622E0886369E260020A60
:1055D000411C53F82230E1809847A378626918444F
:1055E000C0B2431C54FA83F3204493F8AC1490F8EF
:1055F000AC3443EA0120030A608152F82330984713
:10560000227960700346E8B102F0FD0260896169A9
:1056100002F07F0223F07F031343020A237151F843
:105620002230984748F2F423C2F20103A0701B799C
:1056300058B943F0020303F07F0320F07F001843C2
:10564000207110BD42F00202E0E703F0FD03F2E733
:1056500010B548F2F424C2F201040322E088636921
:10566000E260020A411C53F82230E1809847231877
:10567000608193F8AC34E370227943B942F00202BE
:1056800002F07F0223F07F031343237110BD02F069
:10569000FD02F5E710B548F2F424C2F2010403223A
:1056A000E0886369E260020A411C53F82230E1801D
:1056B00098472318608193F8AC346370227943B91A
:1056C00042F0020202F07F0223F07F0313432371B2
:1056D00010BD02F0FD02F5E710B548F2F424C2F265
:1056E00001040322E0886369E260020A411C53F866
:1056F0002230E1809847636960811B68984723796D
:10570000A07040B943F0020303F07F0320F07F0054
:105710001843207110BD03F0FD03F5E710B548F202
:10572000F424C2F201040322E0886369E260020A01
:10573000411C53F82230E1809847636960811B68FF
:105740009847227960700346E8B102F0FD02608953
:10575000616902F07F0223F07F031343020A237181
:1057600051F82230984748F2F423C2F20103A070A6
:105770001B7958B943F0020303F07F0320F07F0048
:105780001843207110BD42F00202E0E703F0FD0370
:10579000F2E700BF48F2F423C2F2010302215A7873
:1057A000D960DA70197942B941F0020101F07F0144
:1057B00022F07F020A431A71704701F0FD01F5E7FC
:1057C00010B548F2F424C2F201040222E0886369B1
:1057D000E260020A411C53F822306081E180984760
:1057E0002379607040B943F0020303F07F0320F097
:1057F0007F001843207110BD03F0FD03F5E700BFE3
:1058000048F2F423C2F2010302215A78D9609A7057
:10581000197942B941F0020101F07F0122F07F02C3
:105820000A431A71704701F0FD01F5E710B548F21F
:10583000F424C2F201040222E0886369E260020AF1
:10584000411C53F822306081E180984722796070D2
:105850000346E8B102F0FD026089616902F07F024F
:1058600023F07F031343020A237151F82230984733
:1058700048F2F423C2F20103A0701B7958B943F037
:10588000020303F07F0320F07F001843207110BD56
:1058900042F00202E0E703F0FD03F2E738B548F218
:1058A000F424C2F201040422E0886369E260020A7F
:1058B00053F8223098470546E08863690130020AB0
:1058C00053F82230984745EA002080B2E3886269A5
:1058D0006081010A0233E38052F82130984723792E
:1058E000E07040B943F0020303F07F0320F07F0033
:1058F0001843207138BD03F0FD03F5E738B548F2D1
:10590000F424C2F201040422E0886369E260020A1E
:1059100053F8223098470546E08863690130020A4F
:1059200053F82230984745EA002080B2E388626944
:105930006081010A0233E38052F8213098472379CD
:10594000607040B943F0020303F07F0320F07F0052
:105950001843207138BD03F0FD03F5E738B548F270
:10596000F424C2F201040422E0886369E260020ABE
:1059700053F8223098470546E08863690130020AEF
:1059800053F82230984745EA002080B2E3886269E4
:105990006081010A0233E38052F82130984723796D
:1059A000A07040B943F0020303F07F0320F07F00B2
:1059B0001843207138BD03F0FD03F5E738B548F210
:1059C000F424C2F201040422E0886369E260020A5E
:1059D00053F8223098470546E08863690130020A8F
:1059E00053F82230984745EA002080B2E388626984
:1059F0006081010A0233E38052F82130984722790E
:105A000060700346E8B102F0FD026089616902F04E
:105A10007F0223F07F031343020A237151F82230DF
:105A2000984748F2F423C2F20103A0701B7958B9D9
:105A300043F0020303F07F0320F07F00184320713E
:105A400038BD42F00202E0E703F0FD03F2E700BFD9
:105A500010B548F2F424C2F201040522E08863691B
:105A6000E260020A411C53F82230E1809847421C50
:105A700054FA82F2204492F8AC2490F8AC34E078E6
:105A800003EB02239BB21844434013F0FF0F02D0F4
:105A9000E3680133E36080B2020A6369608153F80E
:105AA0002230984748F2F423C2F2010360701B7958
:105AB00040B943F0020303F07F0320F07F00184356
:105AC000207110BD03F0FD03F5E700BF10B548F2EB
:105AD000F424C2F201040522E0886369E260020A4C
:105AE000411C53F82230E1809847421C54FA82F25C
:105AF000204492F8AC2490F8AC34E07803EB022315
:105B00009BB21844434013F0FF0F02D0E368013307
:105B1000E36080B2020A6369608153F822309847DB
:105B200048F2F422C2F20102034660701279E8B131
:105B300002F0FD026089616902F07F0223F07F03B9
:105B40001343020A237151F82230984748F2F42394
:105B5000C2F20103A0701B7958B943F0020303F0AD
:105B60007F0320F07F001843207110BD42F0020235
:105B7000E0E703F0FD03F2E710B548F2F424C2F2C7
:105B800001040422E0886369E260020A411C53F8C0
:105B90002230E1809847A37862691844C0B2136844
:105BA000608198472379E07040B943F0020303F025
:105BB0007F0320F07F001843207110BD03F0FD0328
:105BC000F5E700BF10B548F2F424C2F20104042244
:105BD000E0886369E260020A411C53F82230E180E8
:105BE0009847A37862691844C0B2136860819847E7
:105BF0002379607040B943F0020303F07F0320F083
:105C00007F001843207110BD03F0FD03F5E700BFCE
:105C100010B548F2F424C2F201040422E08863695A
:105C2000E260020A411C53F82230E1809847E37891
:105C300062691844C0B21368608198472379A070E4
:105C400040B943F0020303F07F0320F07F001843C4
:105C5000207110BD03F0FD03F5E700BF10B548F259
:105C6000F424C2F201040422E0886369E260020ABB
:105C7000411C53F82230E1809847E3786269184468
:105C8000C0B2136860819847227960700346E8B11A
:105C900002F0FD026089616902F07F0223F07F0358
:105CA0001343020A237151F82230984748F2F42333
:105CB000C2F20103A0701B7958B943F0020303F04C
:105CC0007F0320F07F001843207110BD42F00202D4
:105CD000E0E703F0FD03F2E748F2F423C2F2010328
:105CE00002211A79D96022F040021A71704700BF70
:105CF00038B548F2F424C2F201040422E088636952
:105D0000E260020A53F822309847E578284485B2C9
:105D1000EB0502D5E3680133E360E0886369013095
:105D2000020A53F82230984705EB002080B2E3883E
:105D300062696081010A023352F82120E3809047B2
:105D400048F2F423C2F2010360701B7940B943F0BA
