:1000000000000320D1010000B53401006D3401006F
:100010006D3401006D3401006D3401006D34010058
:100020006D3401006D3401006D340100B534010000
:10003000B53401006D340100154C0100194D01006B
:10004000B5340100B5340100B5340100B534010008
:10005000B5340100B5340100B5340100B5340100F8
:10006000B5340100B5340100B5340100B5340100E8
:10007000B5340100B5340100B5340100B5340100D8
:10008000B5340100B5340100B5340100B5340100C8
:10009000B5340100B5340100B5340100B5340100B8
:1000A0003532010041320100B5340100B5340100A0
:1000B000B5340100B5340100B5340100B534010098
:1000C000B5340100B5340100B5340100B534010088
:1000D000B5340100B5340100B5340100B534010078
:1000E000B5340100B5340100B5340100B534010068
:1000F000B5340100B5340100B5340100B534010058
:1001000065050000790500008D050000A1050000CF
:10011000B5340100353B0100B5340100B5340100B0
:10012000B5340100B5340100B5340100B534010027
:10013000B5340100B5340100B5340100B534010017
:10014000C9490100B5340100B5340100B5340100DE
:10015000B5340100B5340100B5340100B5340100F7
:10016000B5340100B53401004D320100B534010051
:10017000B5340100B5340100B5340100B5340100D7
:10018000B534010071010100B5340100B53401003E
:10019000B5340100B5340100B5340100B5340100B7
:1001A000B5340100B5340100B5340100B5340100A7
:1001B000B5340100B5340100B5340100B534010097
:1001C000B5340100B5340100B5340100B534010087
:1001D0005C4B4CF2205210B51A804DF628121A8052
:1001E00000BF00BF13F06AF9574B4FF030621A603E
:1001F000564A9A60564ADA60564B4FF470021A60BB
:10020000554B564A1A60564A136813F4807304D14A
:1002100054490B604FF4A8531360534B1A781107DD
:1002200003D51A7842F008021A70504B5049AA229E
:100230001A70504A504B8B4204D252F8040F43F8C4
:10024000040BF8E74D4B4E4900228B4202D243F893
:10025000042BFAE74B494C4A002352F8230041F89B
:1002600023000133742BF8D1484B494A802103F80D
:10027000011B9342FBD1474B424A1A60464B8A22EC
:100280001A70A3F5805324225A70A0221A709A790A
:100290009207FCD59A79D406FCD4404A937903F0AE
:1002A0000C03082BFAD13E4B60221A7002331A78E5
:1002B000802AFCD1394B00221A714E225A719A7948
:1002C0009006FCD59979354A4906FBD5354B364918
:1002D00019600821596020231370937903F00C03EF
:1002E0000C2BFAD1314B324A1A60324B324A1A6027
:1002F00000225A60072243F8042C304AC3F80C2D20
:1003000062B613F0A9FA174B1B68DA0705D52C481B
:1003100013F010FA2B4B2C4A1A602C4B1B785B06FF
:1003200009D5284C284B22689A4204D1244813F05E
:1003300001FA0023236015F001FC13F0C5F814F056
:1003400027FEFEE70E20054030800440823F040077
:100350000100002B88ED00E0002008E0030000858C
:1003600010D0034014D0034002D0074000E0074003
:10037000E06F0120203E0500306101200070012067
:10038000988E0220005C01200000000000E400E0E4
:1003900064E400E008ED00E0005006400040064044
:1003A00001E007404480044000000701048004404D
:1003B000C010050014E000E07FA903000000202029
:1003C000CD1AB7591CE00340A5C3945A00F007406A
:1003D000FFFFFFFFFFFFFFFFFFFFFFFFFFFFFFFF2D
:1003E000FFFFFFFFFFFFFFFFFFFFFFFFFFFFFFFF1D
:1003F000FFFFFFFFFFFFFFFFFFFFFFFFFFFFFFFF0D
:10040000FFFFFFFFFFFFFFFFFFFFFFFFDEF9FFFF23
:1004100010B5054C237833B9044B13B10448AFF33E
:1004200000800123237010BD007001200000000037
:10043000243E0500084B10B51BB108490848AFF32E
:1004400000800848036803B910BD074B002BFBD0A0
:10045000BDE81040184700BF0000000004700120F4
:10046000243E0500E06F01200000000008B50421D3
:10047000034814F09FF9BDE8084000F0F9B800BF48
:100480000002FF1F30BF7047704700BF0368F0B421
:10049000FBB1002501249D60DC601B4C1A601C44EC
:1004A000241104F130056A11032692009E60174F53
:1004B0000679174B47F8241002F1604202F56142B9
:1004C00005F01F05012000FA05F5E6541560F0BCA3
:1004D0007047104C236843F40003236000BF0E4BA9
:1004E0000E4DA4F58734A4F59E7401261E602346A4
:1004F00004609C68002CD0D01033AB420360F8D16C
:10050000002303601846E2E7008FFCBF1062012061
:1005100030E400E03C800440007003404071034040
:100520000168A9B10B4BF0B40B441B110A4E0B4FE1
:100530000B4D46F8237003F1300202F01F04012333
:100540005211A340002445F822308C600460F0BCB6
:10055000704700BF008FFCBF1062012089040000BB
:1005600080E100E0024A034B012111601B6818473B
:100570000C71034010620120024A034B01211160FB
:100580005B6818471C71034010620120024A034B4C
:10059000012111609B6818472C71034010620120F3
:1005A000024A034B01211160DB6818473C7103408C
:1005B00010620120054B064AC3F854220022DA716A
:1005C00083F8302283F83122704700BF1C7001206D
:1005D00078A80400014B024A1A60FEE70CED00E027
:1005E0000400FA0510B5044B044640F8203B10F017
:1005F00099FC204610BD00BF2CA90400F8B5174D8A
:10060000174F184C2E4608E03A68338016491448B4
:10061000D2B123689B1A8B4217D82368FB61002351
:10062000BB610DF0CBF92B88013B9BB2002BEBD1CA
:1006300040F21B63338000F0A1FD01F037F93A6806
:1006400009490748002AE4D1F8BD002303600BF0F4
:10065000EBF8064B20221A60F8BD00BF2062012093
:1006600050740120041000E0FF5FE31688F00F4093
:100670002DE9F041B64CB74A2368B74FB749B8489F
:10068000B84EDFF8708384B0019340F20313019DEC
:100690003B600B600360042133601920136013F08A
:1006A00061F8B14B06F53226202774361F60012110
:1006B000262013F057F84FF40063336001210D201A
:1006C00013F050F8376009F03FFCA84808F020F814
:1006D000A749A64808F01AFBA44808F0EDFA4046DE
:1006E0000FF05EFD002840F003810023A14F47F684
:1006F00045003B700BF03EF89F49024606469F4876
:1007000010F06AFA9E4B20221A60FA2013F054F877
:100710009C4A9D48DFF8E0E240F2DC511378002B60
:1007200000F0DE8003789B0700F0DA802368DEF8B3
:1007300000C0CCEB0303182B40F2D2801E2193485B
:1007400013F034FF924814F0EFFA1E21914813F091
:100750002DFF8F4814F0E8FA08218F4813F026FF88
:100760003A788E4B8E48002A16BF184617210C2166
:1007700013F01CFF864814F0D7FA854814F0D4FA19
:100780000D21884813F012FFF021814814F01CFB62
:100790007F4814F0C9FA0D21834813F007FF782130
:1007A0007B4814F011FB7A4814F0BEFA784814F034
:1007B000BBFA10217D4813F0F9FE03217C4813F0A9
:1007C000F5FE734814F0B0FA1B217A4813F0EEFEE0
:1007D0009FED5B0B03216E4814F0FEFA6C4814F099
:1007E000A3FA1921744813F0E1FE9FED570B032182
:1007F000674814F0F1FA664814F096FA644814F069
:1008000093FA16216D4813F0D1FE2021604814F0B0
:10081000DBFA5F4814F088FA1721694813F0C6FE26
:10082000314600230A225A4814F08EFA584814F030
:100830007BFA574814F078FA1621624813F0B6FE96
:100840000A2200236049524814F07EFA504814F0FE
:100850006BFA4F4814F068FA09F0EEF900F0C4FCA6
:1008600001F05AF80DF0ACFE07F0E4FE574B2026DD
:100870001E60322012F0A0FF3B4B40F2DC521E60A3
:1008800023680393039B5B1B9342F9D90B215048C8
:10089000504C13F08BFE3E4814F046FA4E4807F0D9
:1008A0001DFE012341F6F8524C4984F81A3B04F12D
:1008B0009C00FFF7EBFDD4F89C10D02284F8A02018
:1008C00021B1474B47480B441B111A540322464998
:1008D000192012F0B3FE0AF0C1FF04B0BDE8F081A8
:1008E00023680293029B5B1B8B427FF617AF25E7C1
:1008F000A8F5157606F50C70C6F800800DF068FFB7
:10090000304601210FF06CF998B1384E06F50C779E
:10091000384631460EF0E2F800283FF4E6AE96F88D
:10092000303213F070033FF4E1AE314A0123176017
:10093000DCE6014630460FF053F90028E5D1D4E655
:10094000000000206F8BCE4000000020F20F4940D5
:10095000588B022014D0044000D0044004D004403E
:100960000CD0044010D0044004F00F403474012037
:10097000D468010074720120A0080F009472012055
:1009800088F00F403C8C0220548C0220FCC00300F5
:10099000806501201CC103003CC10300D4C00300DA
:1009A000E4C0030048C1030058C1030068C103004C
:1009B0007CC1030080C103009CC10300B8C10300D7
:1009C000D0C10300E8C103007808010008F00F401F
:1009D00000C203005074012080841E00FD05000049
:1009E000008FFCBF30E400E0D50500001C70012042
:1009F000888A022070720120908E022038B50C4C3B
:100A0000237803B138BD0123237013F0A5FD20B96D
:100A100008F0BEF90023237038BD13F061FDC5B2A4
:100A2000284608F09BF9284613F044FEF0E700BF83
:100A30003A7401202DE9F04184B027210E221C23B5
:100A4000334E0291019200931422FF231521314865
:100A5000314D324F07F03CFE32682F6000236B723D
:100A60002B612B72EB600AB94EE01A465369002BDA
:100A7000FBD155614FF00008294B2A482A4C2B60C6
:100A8000C5F81480A5F80480A5F8068010F094F944
:100A9000214810F07FF8254A25491F4815F03CF8F9
:100AA000012004F1180227604346414684F808807B
:100AB000C4F80C8060722261274600E03A6942F86F
:100AC0002310627A184801339A42F7DC3268104BDF
:100AD0000AB91BE01A465369002BFBD1546100266A
:100AE000144B114823606661A680E6800FF02EFF4C
:100AF000114B18461E721D605C605E72DE6004B0B1
:100B0000BDE8F04113F030BF3560B3E71860E6E7A9
:100B1000588C02203474012094720120D0680100A6
:100B20002CA90400B4720120787201200C6201200B
:100B3000E505000020A904003C740120064991F855
:100B4000312891F82138D20022F07F0243F01003BF
:100B5000134381F82138704750740120F0B500F03C
:100B60000F00031F83B00B2B00F20581DFE813F0A9
:100B700019001D0027002B00350057007C00A10044
:100B8000D000E000F6000C00A64B21F0100283F824
:100B90002328CA0603D5B3F82A28A3F81A2803B0D5
:100BA000F0BDA04B83F82818F9E79E4B93F8222854
:100BB00083F82918D507F2D483F81918EFE7994B71
:100BC00083F82A18EBE7974B93F8232883F82B1820
:100BD000D407E4D483F81B18E1E7924B93F8232859
:100BE00022F07F0202F0FF04002A00F0EA8093F86E
:100BF0002D5893F82E4893F82F0801F00F010A2280
:100C000012FB05124FF4167505FB042248F6A044AA
:100C100004FB002283F82C18C3F83C28BFE7814B63
:100C200093F8232812F0800F4FEA111202EB820290
:100C300001F00F0100F0C08093F82C5893F82E4873
:100C400093F82F0841EA42010A2212FB01524FF4A5
:100C5000167505FB042248F6A04404FB002283F825
:100C60002D18C3F83C289AE76E4B93F8232812F00E
:100C7000800F4FEA111200F0968093F82C4893F8F9
:100C80002D6893F82F0802EB820201F00F010A256C
:100C900041EA420115FB06444FF4167202FB014281
:100CA00048F6A04404FB002283F82E18C3F83C2821
:100CB00075E75C4A92F8233823F07F0303F0FF00C6
:100CC000002B5DD0C1F30010830049B2034400291A
:100CD00092F82C0892F82D6892F82E4801F00F0136
:100CE00041EA43014FF00A05B4BF0C2300230B4433
:100CF00015FB06014FF41670DBB200FB041048F63A
:100D0000A04101FB030182F82F38C2F83C1846E7E6
:100D1000444890F8312890F8213880F820181201C2
:100D200022F07F0243F00803134380F8213836E7AE
:100D300008066ED53B4B93F8310893F8212801F053
:100D40001F01014302F01F00014283F831183FF4F4
:100D500026AF62F07F0283F8212820E7314B21F093
:100D60001002C90683F822287FF519AFB3F82828A6
:100D7000A3F8182813E72B4B184480F814180EE733
:100D8000C1F30014A30049B20029234401F00F016C
:100D900041EA4301B8BF0C204318012182F81F38F3
:100DA00082F84018FBE602EB820201F00F0141EAF3
:100DB000420283F81E28F2E641EA420283F81D2827
:100DC000EDE6194A93F81D6812680192019F1748D1
:100DD00093F81E5883F840484FF47A7201F00F01DF
:100DE00002FB06F6642414FB01664EF6602CA0FBA1
:100DF000070193F81F48DFF83CE00D4A0CFB056043
:100E0000090E0EFB040002FB1172121AC3F83428FB
:100E1000C5E6044A92F8313823EA010182F8311814
:100E2000BDE600BF50740120588B02203BD4B53181
:100E3000005C260580EE36002DE9F04300F00F003F
:100E400087B00D2800F2A580DFE800F01217A3A3F9
:100E5000A3A3A3A31C3B6475A307994B93F8210894
:100E6000002200F09F0083F8212807B0BDE8F0833E
:100E700008F080F807B0BDE8F08308F0DFF807B0AD
:100E8000BDE8F0838E4D95F84138002B00F0F880D6
:100E9000D5F838188B4B8C4883FB0123CA17C2EB5B
:100EA000A3124FF47A7303FB121380FB0320DB17AA
:100EB000C3EBA000C0B2002385F8413807B0BDE8FD
:100EC000F0837F4B93F84128002A69D0D3F8381873
:100ED0007C4A7E487C4B82FB0142C917C1EBA212BF
:100EE00082FB00015018D117C1EB6011C1EB011159
:100EF000A2EB8102D2B283FB02139B0803EB8300B7
:100F0000A2EB40001B0140B25BB21843C0B207B075
:100F1000BDE8F0836A4B93F84128002A00F08B80EB
:100F2000D3F838186A4A6948674B82FB0142C917EF
:100F3000C1EBA232D4E7674B61481B680593D0F838
:100F400034580599644B654C654A491BA3FB015312
:100F50001B0E04FB131382FB0321DA17C2EB215291
:100F600001240B2AC0F8383880F84148D3B240F346
:100F70009A800C3B5B48DBB2A0FB0320C00800EB6F
:100F80008002A3EB420363F07F0343EA0010C0B288
:100F90006BE74B4B184490F8140807B0BDE8F0839A
:100FA0004C4AD3F8344813680193019B12680292AB
:100FB000029D494A4949434F4448434E2D1B1B1B40
:100FC000A2FB05E4240EA2FB03E201FB1455120E62
:100FD00001FB123187FB0532ED17C5EBA21487FB2D
:100FE0000123C917C1EBA31384FB008904EB090596
:100FF00083FB0001E2175818C2EB6512D917C1EB49
:101000006011C2EB0212A4EB8202C1EB0111A3EB4F
:10101000810386FB0214D11786FB0350C1EBA401A8
:10102000DB17C3EBA00301EB81011801A2EB410226
:1010300043B250B269E7274AD3F8344813680393A0
:10104000039B12680492049D234A2449204F1F48A1
:101050001D4E2D1B1B1BA2FB05E4240EA2FB03E26D
:1010600001FB1455120E01FB123187FB0532ED17FF
:10107000C5EBA23487FB0123C917C1EBA333B3E748
:10108000144BD5F834181B680093009E124C134B78
:101090000C4A0D48711AA4FB0164240E03FB1411C1
:1010A00082FB0123FAE60F48A0FB0320C00800EBF7
:1010B0008002A3EB420343EA0010C0B2D5E600BFB2
:1010C00050740120D34D62106766666689888888EF
:1010D00073B2E745588B02203BD4B531005C26053E
:1010E00059BE904ACDCCCCCC10B4234AD2F820388B
:1010F000190C01F02101012925D0DC0115D503F0DF
:10110000C041B1F1804F33D0B2F81A181A4C88425E
:1011100021DD401AB4F82A48190148BF23F0807332
:10112000201A43F40073A2F81A08D2F830281249A2
:1011300002F470621A4218BF43F40043C1F8203829
:101140005DF8044B7047B2F81818814205DB091AA4
:10115000A2F81818D1E7081AE5E7B2F82848411AAA
:10116000611A1C0348BF23F4803343F48073EFE714
:10117000D805DAD50120C7E75074012070B4154BAB
:10118000154C1B68154A164E164DD4F83C0883B012
:1011900001930199D4F83438C91A82FB0123CA1784
:1011A000C2EB236206FB121385FB0312DB17C3EBB2
:1011B000621383420BD194F8312894F821385201FC
:1011C00022F07F0243F00403134384F8213803B074
:1011D00070BC7047588B0220507401203BD4B5314D
:1011E000005C26051F85EB5138B5104C07F08EFECC
:1011F000002507F0B7FEFF2204212420227122756A
:1012000062716275A271A275E271E2752560A560D6
:10121000E56012F0A7FA064B06494FF400721A6017
:1012200024200222BDE8384012F008BA647C012074
:1012300084F00F403D0B0000F0B500F00F0085B0CA
:101240000F2811D8DFE810F0220014001000100061
:101250003B003F0049004D00570079009E00C3004D
:10126000F30005011D011600B74B184480F844181F
:1012700005B0F0BDB44B21F0100283F85328CA0624
:10128000F6D5B3F85A28A3F84A28F1E7CC43A202CE
:101290008B02AE4DAE4802F4604203F4604311F09D
:1012A000180F2B60026000F0F980A74D0191A40394
:1012B000AC870DF049F8019985F84418D8E7A24B9E
:1012C00083F85818D4E7A04B93F8522883F859189C
:1012D000D507CDD483F84918CAE79B4B83F85A1831
:1012E000C6E7994B93F8532883F85B18D407BFD40B
:1012F00083F84B18BCE7944B93F8532822F07F02F5
:1013000002F0FF04002A00F0D38093F85D5893F8B0
:101310005E4893F85F0801F00F010A2212FB0512E4
:101320004FF4167505FB042248F6A04404FB002286
:1013300083F85C18C3F86C289AE7834B93F853281A
:1013400012F0800F4FEA111202EB820201F00F013E
:1013500000F0A98093F85C5893F85E4893F85F0812
:1013600041EA42010A2212FB01524FF4167505FBB5
:10137000042248F6A04404FB002283F85D18C3F859
:101380006C2875E7704B93F8532812F0800F4FEAE2
:10139000111200F0C88093F85C4893F85D6893F8E8
:1013A0005F0802EB820201F00F010A2541EA4201C7
:1013B00015FB06444FF4167202FB014248F6A044A6
:1013C00004FB002283F85E18C3F86C2850E75E4ADD
:1013D00092F8533823F07F0303F0FF00002B00F056
:1013E0008F80C1F30010830049B20344002992F8B2
:1013F0005C0892F85D6892F85E4801F00F0141EADE
:1014000043014FF00A05B4BF0C2300230B4415FB26
:1014100006014FF41670DBB200FB041048F6A04141
:1014200001FB030182F85F38C2F86C1820E74648D8
:1014300090F8612890F8513880F85018120122F085
:101440007F0243F00803134380F8513807F034F863
:101450000EE7080670D53C4B93F8610893F85128C5
:1014600001F01F01014302F01F00014283F86118DF
:101470003FF4FEAE62F07F0283F8512807F01CF8BB
:10148000F6E6314B21F01002C90683F852287FF5A9
:10149000EFAEB3F85828A3F84828E9E6019107F021
:1014A000B5F8019901E741EA420283F84D28DFE6E9
:1014B000284A93F84D6812680392039F264893F8D0
:1014C0004E5883F870484FF47A7201F00F0102FB16
:1014D00006F6642414FB01664EF6602CA0FB07019F
:1014E00093F84F48DFF878E01C4A0CFB0560090EC2
:1014F0000EFB040002FB1172121AC3F86428B7E64F
:10150000C1F30014A30049B20029234401F00F01E4
:1015100041EA4301B8BF0C204318012182F84F383B
:1015200082F87018A4E602EB820201F00F0141EA92
:10153000420283F84E289BE6034A92F8613823EA78
:10154000010182F8611893E65074012008F00F4001
:1015500004F00F40588B02203BD4B531005C2605C7
:1015600080EE3600F0B500F00F0089B00D2800F2D3
:10157000A980DFE800F015A7A7A7A7A7A7A7224083
:101580006879A707994B93F85108002200F09F0053
:10159000019083F8512806F091FF019809B0F0BD41
:1015A000934A924B106893F84438800B03F03F0342
:1015B00043EA8010C0B209B0F0BD8C4D95F8713887
:1015C000002B00F0F480D5F868188A4B8A4883FB1A
:1015D0000123CA17C2EBA3124FF47A7303FB121351
:1015E00080FB0320DB17C3EBA000C0B2002385F80B
:1015F000713809B0F0BD7D4B93F87128002A67D08F
:10160000D3F868187B4A7D487B4B82FB0142C9179F
:10161000C1EBA21282FB00015018D117C1EB60117F
:10162000C1EB0111A2EB8102D2B283FB02139B0832
:1016300003EB8300A2EB40001B0140B25BB21843F6
:10164000C0B209B0F0BD694B93F87128002A00F0D0
:101650008980D3F868186A4A6848674B82FB014260
:10166000C917C1EBA232D5E7664B60481B680793E8
:10167000D0F864580799644B644C654A491BA3FB36
:1016800001531B0E04FB131382FB0321DA17C2EB79
:10169000215201240B2AC0F8683880F87148D3B26F
:1016A00040F398800C3B5B48DBB2A0FB0320C008F2
:1016B00000EB8002A3EB420363F07F0343EA0010D8
:1016C000C0B26BE7494B184490F8440809B0F0BD2C
:1016D0004C4AD3F86418136803930398136804936F
:1016E000049D494A494C434B444F434E6D1A411A9D
:1016F000A2FB05E0000EA2FB01E204FB1055120E56
:1017000004FB121183FB0502ED17C5EBA21483FB4A
:101710000123C917C1EBA31384FB07016518E21766
:1017200083FB07015818C2EB6512D917C1EB601192
:10173000C2EB0212A4EB8202C1EB0111A3EB810305
:1017400086FB0210D11786FB0346C1EBA000DB1716
:10175000C3EBA60300EB80001B01A2EB40005BB2D1
:1017600040B26CE7274AD3F86418136805930598CC
:1017700013680693069D244A244C214B1F4F1E4E8E
:101780006D1A411AA2FB05E0000EA2FB01E204FB68
:101790001055120E04FB121183FB0502ED17C5EB69
:1017A000A23483FB0123C917C1EBA333B4E7154B64
:1017B000D5F864181B680293029E134C134B0D4A14
:1017C0000D48711AA4FB0164240E03FB141182FB63
:1017D0000123FEE60F48A0FB0320C00800EB8002B7
:1017E000A3EB420343EA0010C0B2D7E650740120D5
:1017F00010F00F40D34D621067666666898888884E
:1018000073B2E745588B02203BD4B531005C260506
:1018100059BE904ACDCCCCCC10B4234AD2F8503823
:10182000190C01F02101012924D0DC0115D503F0A8
:10183000C041B1F1804F32D0B2F84A181A4C8842F8
:1018400020DD401AB4F85A48190148BF23F08073CC
:10185000201A43F40073A2F84A08D2F8601801F481
:101860007061194218BF43F40043C2F850385DF864
:10187000044B7047B2F84818814205DB091AA2F8F8
:101880004818D2E7081AE6E7B2F85848411A611A30
:101890001C0348BF23F4803343F48073EFE7D8057B
:1018A000DBD50120C8E700BF5074012070B4154B90
:1018B000154C1B68154A164E164DD4F86C0883B0AB
:1018C00001930199D4F86438C91A82FB0123CA171D
:1018D000C2EB236206FB121385FB0312DB17C3EB7B
:1018E000621383420BD194F8612894F85138520165
:1018F00022F07F0243F00403134384F8513803B00D
:1019000070BC7047588B0220507401203BD4B53115
:10191000005C26051F85EB5138B5104B04210025CE
:10192000FF241D609D60DD6008461C715C719C7128
:10193000DC7111F017FF04211A2011F013FF0421AC
:101940001B2011F00FFF064B4FF400504FF4804165
:101950004FF40042186019601A6038BD947C012071
:1019600004F00F40F8B5184C2279A389267A551E49
:1019700001339BB2A71854FA85F5911E033A46F03D
:10198000040E54FA81F1227146F010021E0A87F803
:101990007469A38185F87439236A81F87429072052
:1019A000606184F808E0D3F8FC334FF6FE70984786
:1019B000236A0546D3F8FC334FF6FF70984745EA93
:1019C0000020A081F8BD00BF5074012038B5184C2C
:1019D000A089236A020A411C062553F8223065615A
:1019E000A1819847A379226A65791844C0B2431C43
:1019F00054FA83F3204493F8741890F8743843EA47
:101A00000120030A208252F823309847237A284382
:101A100010F0FF0014BF03F0FD0343F0020303F0D6
:101A20007F0320F07F0213436071237238BD00BF33
:101A30005074012070B52A4C294EA089236A020AED
:101A40000825411C53F822306561A1819847A3798C
:101A5000226A1844C0B2431C54FA83F3204493F81A
:101A6000741890F8743843EA012020FA05F32082B4
:101A700052F823309847237A626A400010F47F4F6F
:101A800014BF43F0010303F0FE0310F0FF0114BF85
:101A900003F0FD0343F00203208A21F07F0503F0E9
:101AA0007F032B43050A237252F825309847208A7A
:101AB000236A6579020A53F822309847337A28431B
:101AC00010F0FF0014BF03F0FD0343F0020303F026
:101AD0007F0320F07F0213436071237270BD00BF4B
:101AE0005074012038B50F4CA089236A020A411CAA
:101AF000032553F82230A181656198472318627944
:101B000093F8743820821343227A637114BF02F071
:101B1000FD0242F0020202F07F0223F07F010A433D
:101B2000227238BD5074012070B5144CA089236A0C
:101B3000020A411C052553F82230A18165619847AE
:101B40002318208293F87418237A4900CA054CBFE1
:101B500043F0010303F0FE0311F0FF0114BF03F093
:101B6000FD0343F0020321F07F0203F07F031343E0
:101B7000626A23721368BDE87040184750740120F0
:101B800070B5224C214EA089236A020A411C05250A
:101B900053F82230A18165619847236A20821B682F
:101BA0009847237A626A400010F47F4F14BF43F0D5
:101BB000010303F0FE0310F0FF0114BF03F0FD0367
:101BC00043F00203208A21F07F0503F07F032B43BB
:101BD000050A237252F825309847208A236A6579CE
:101BE000020A53F822309847337A284310F0FF0056
:101BF00014BF03F0FD0343F0020303F07F0320F062
:101C00007F0213436071237270BD00BF50740120C6
:101C100010B4074B1A79197A981841F01001013A5B
:101C200003241A7180F874195C615DF8044B7047E5
:101C30005074012038B50F4CA089236A2082020A13
:101C40000225411C53F822306561A18165799847CE
:101C5000237A284310F0FF0014BF03F0FD0343F084
:101C6000020303F07F0320F07F02134360712372AD
:101C700038BD00BF507401200D494B7902225B0032
:101C80004A610A7AD8054CBF42F0010202F0FE0216
:101C900013F0FF0314BF02F0FD0242F0020202F053
:101CA0007F0223F07F0002434B710A72704700BF2E
:101CB0005074012038B50C4CA089236A020A042113
:101CC00053F82230616198470546A089236A0130A4
:101CD000020A53F822309847A38945EA00200233CC
:101CE0002082A38138BD00BF5074012038B5174C45
:101CF000A089236A020A0421616153F822309847BF
:101D00000546A089236A0130020A53F82230984719
:101D100045EA002080B2A389226A2082010A0233A8
:101D2000A38152F8213065799847237A284310F02F
:101D3000FF0014BF03F0FD0343F0020303F07F0331
:101D400020F07F0213436071237238BD507401206C
:101D500070B51E4CA089236A020A0621616153F8FE
:101D6000223098470546A089236A0130020A53F8B9
:101D70002230984745EA0020A389226A80B2010AEE
:101D80000233A381208252F821309847237A656A72
:101D9000400010F47F4F14BF43F0010303F0FE0333
:101DA00010F0FF0118BF03F0FD03208A08BF43F0C5
:101DB000020321F07F0203F07F031343020A237220
:101DC00055F82230BDE87040184700BF507401201C
:101DD00070B5294C284EA089236A020A0621616148
:101DE00053F8223098470546A089236A0130020A39
:101DF00053F82230984745EA002080B2A389226A2E
:101E00002082010A0233A38152F821309847237AB5
:101E1000626A400010F47F4F14BF43F0010303F0E7
:101E2000FE0310F0FF0114BF03F0FD0343F00203B3
:101E3000208A21F07F0503F07F032B43050A2372DC
:101E400052F825309847208A236A6579020A53F8A8
:101E500022309847337A284310F0FF0014BF03F074
:101E6000FD0343F0020303F07F0320F07F021343DE
:101E70006071237270BD00BF5074012070B51C4C9E
:101E8000A089236A020A411C052553F822306561A6
:101E9000A1819847431C54FA83F3204493F8742893
:101EA00090F87438E07903EB02239BB21844434066
:101EB00013F0FF0F02D063690133636180B2020A3D
:101EC000236A208253F822306579094E9847337A85
:101ED000284310F0FF0014BF03F0FD0343F002039A
:101EE00003F07F0320F07F0213436071237270BD03
:101EF0005074012070B52A4C294EA089236A020A29
:101F00000825411C53F822306561A1819847421C85
:101F1000204454FA82F2E37990F8740892F8741825
:101F2000226A184400EB012080B220FA05F32082D7
:101F300052F823309847237A626A400010F47F4FAA
:101F400014BF43F0010303F0FE0310F0FF0114BFC0
:101F500003F0FD0343F00203208A21F07F0503F024
:101F60007F032B43050A237252F825309847208AB5
:101F7000236A6579020A53F822309847337A284356
:101F800010F0FF0014BF03F0FD0343F0020303F061
:101F90007F0320F07F0213436071237270BD00BF86
:101FA0005074012038B5124CA089236A020A411CE2
:101FB000042553F822306561A1819847A379226AEC
:101FC000657912681844C0B220829047237A28436A
:101FD00010F0FF0014BF03F0FD0343F0020303F011
:101FE0007F0320F07F0213436071237238BD00BF6E
:101FF0005074012070B5184CA089236A020A411C54
:102000000625A181656153F822309847A379226A99
:102010001844C0B2136820829847237A656A40004A
:1020200010F47F4F14BF43F0010303F0FE0310F0E0
:10203000FF0118BF03F0FD03208A08BF43F002032D
:1020400021F07F0203F07F031343020A237255F845
:102050002230BDE8704018475074012070B5234C01
:10206000224EA089236A020A411C0625A18153F849
:10207000223065619847A379226A1844C0B2136878
:1020800020829847237A626A400010F47F4F14BF81
:1020900043F0010303F0FE0310F0FF0114BF03F04F
:1020A000FD0343F00203208A21F07F0503F07F0344
:1020B0002B43050A237252F825309847208A236A59
:1020C0006579020A53F822309847337A284310F092
:1020D000FF0014BF03F0FD0343F0020303F07F038E
:1020E00020F07F0213436071237270BD5074012091
:1020F000034B1A7A022122F0010259611A727047C9
:102100005074012070B51B4CA089236A020A042177
:1021100053F8223061619847E579284485B2EB0590
:1021200002D5636901336361A089236A114E0130CE
:10213000020A53F82230984705EB002080B2A389A9
:10214000226A2082010A023352F82120A381657994
:102150009047337A284310F0FF0014BF03F0FD03CB
:1021600043F0020303F07F0320F07F02134360710A
:10217000237270BD5074012070B52A4C294EA0897D
:10218000236A020A0721616153F822309847054605
:10219000A089236A0130020A53F822309847E17976
:1021A000A389226A0D4405EB002080B2010A0233A4
:1021B000A381208252F821309847237A626A400036
:1021C00010F47F4F14BF43F0010303F0FE0310F03F
:1021D000FF0114BF03F0FD0343F00203208A21F046
:1021E0007F0503F07F032B43050A237252F8253045
:1021F0009847208A236A6579020A53F82230984763
:10220000337A284310F0FF0014BF03F0FD0343F0BE
:10221000020303F07F0320F07F02134360712372F7
:1022200070BD00BF50740120014B04225A617047F9
:102230005074012070B51B4CA089236A020A042146
:1022400053F8223061619847A579284485B2EB059F
:1022500002D5636901336361A089236A114E01309D
:10226000020A53F82230984705EB002080B2A38978
:10227000226A2082010A023352F82120A381657963
:102280009047337A284310F0FF0014BF03F0FD039A
:1022900043F0020303F07F0320F07F0213436071D9
:1022A000237270BD5074012070B51F4CA089236A41
:1022B000020A0721616153F8223098470546A08938
:1022C000236A0130020A53F822309847A179A38982
:1022D000226A45EA0020084480B2010A0233A38141
:1022E000208252F821309847237A656A400010F422
:1022F0007F4F14BF43F0010303F0FE0310F0FF0112
:1023000018BF03F0FD03208A08BF43F0020321F049
:102310007F0203F07F031343020A237255F8223031
:10232000BDE87040184700BF5074012070B52A4CBA
:10233000294EA089236A020A0721616153F82230DD
:1023400098470546A089236A0130020A53F82230D3
:102350009847A179A389226A45EA0020084480B2FF
:10236000010A0233A381208252F821309847237A50
:10237000626A400010F47F4F14BF43F0010303F082
:10238000FE0310F0FF0114BF03F0FD0343F002034E
:10239000208A21F07F0503F07F032B43050A237277
:1023A00052F825309847208A236A6579020A53F843
:1023B00022309847337A284310F0FF0014BF03F00F
:1023C000FD0343F0020303F07F0320F07F02134379
:1023D0006071237270BD00BF5074012070B5134C42
:1023E000A089236A020A0621616153F822309847C6
:1023F0000546A089236A0130020A53F82230984723
:102400002279A389511E013345EA00209BB2A51809
:1024100054FA81F11E0A023A80B285F87469227179
:1024200081F874392082A08170BD00BF50740120F2
:1024300038B5174CA089236A020A411C062553F8B7
:1024400022306561A1819847A379226A6579184491
:10245000C0B2431C54FA83F3204493F8741890F8E4
:10246000743843EA0120030A208252F82330984747
:10247000237A284014BF03F0FD0343F0020303F066
:102480007F0320F07F0213436071237238BD00BFC9
:102490005074012070B52C4C2B4EA089236A020A7F
:1024A0000825411C53F822306561A1819847A37922
:1024B000226A1844C0B2431C54FA83F3204493F8B0
:1024C000741890F8743843EA012020FA05F320824A
:1024D00052F823309847237A03F0010141EA400083
:1024E00001B28AB212F47F4F14BF43F0010303F02C
:1024F000FE0312F0FF0F14BF03F0FD0343F00203CD
:10250000208A626A21F07F0503F07F032B43050ACE
:10251000237252F82530C9B29847208A236A657918
:10252000020A53F822309847337A284014BF03F048
:10253000FD0343F0020303F07F0320F07F02134307
:102540006071237270BD00BF5074012038B50F4C0C
:10255000A089236A020A411C032553F822306561D1
:10256000A18198472218237A92F8741865792082FD
:1025700021F03F0203F03F03134329420CBF43F015
:10258000020323F00203237238BD00BF5074012000
:1025900038B50F4CA089236A020A411C032553F861
:1025A00022306561A1819847236A20821B68657982
:1025B0009847237A284014BF03F0FD0343F0020339
:1025C00003F07F0320F07F0213436071237238BD54
:1025D0005074012070B5174CA089236A020A0525A2
:1025E000411C6561A18153F8223098472218237A53
:1025F00092F87418208203F0010242EA41018AB283
:10260000D5054CBF43F0010303F0FE0312F0FF0FAA
:1026100014BF03F0FD0343F0020321F07F0203F037
:102620007F031343626A23721368C9B2BDE8704026
:10263000184700BF5074012070B5244C234EA08968
:10264000236A020A411C052553F82230A1816561E5
:102650009847236A20821B689847237A03F0010178
:1026600041EA400001B28AB212F47F4F14BF43F036
:10267000010303F0FE0312F0FF0F14BF03F0FD038C
:1026800043F00203208A626A21F07F0503F07F0392
:102690002B43050A237252F82530C9B29847208A85
:1026A000236A6579020A53F822309847337A284022
:1026B00014BF03F0FD0343F0020303F07F0320F097
:1026C0007F0213436071237270BD00BF50740120FC
:1026D000074A13790133DBB2D118042091F8741939
:1026E000506121F0300141F02001137111727047E7
:1026F0005074012038B50E4CA089236A2082020A4A
:102700000225411C53F822306561A1816579984703
:10271000237A284014BF03F0FD0343F0020303F0C3
:102720007F0320F07F0213436071237238BD00BF26
:102730005074012010B4104A137A507903F001014B
:1027400041EA4001022488B25461C4054CBF43F001
:10275000010303F0FE0310F0FF0F14BF03F0FD03AD
:1027600043F0020303F07F0321F07F000343517124
:1027700013725DF8044B70475074012038B5114C4A
:10278000A089236A2082020A0225411C53F82230C4
:102790006561A18165799847237A284020F07F02FE
:1027A00003F07F03134350B103F0FD031A064CBF3F
:1027B00043F0010323F001032372607138BD43F03D
:1027C0000203F3E750740120FFF7D8BF38B5164C69
:1027D000A089236A020A0421616153F822309847D4
:1027E0000546A089236A0130020A53F8223098472F
:1027F00045EA002080B2A389226A2082010A0233BE
:10280000A38152F821309847237A627903F03F037D
:1028100000F0C0010B4310420CBF43F0020323F051
:102820000203237238BD00BF5074012038B5164C26
:10283000A089236A020A0421616153F82230984773
:102840000546A089236A0130020A53F822309847CE
:1028500045EA002080B2A389226A2082010A02335D
:10286000A38152F8213065799847237A284014BF14
:1028700003F0FD0343F0020303F07F0320F07F0227
:1028800013436071237238BD5074012070B5204C21
:10289000A089236A020A0621616153F82230984711
:1028A0000546A089236A0130020A53F8223098476E
:1028B00045EA0020A389226A80B2010A0233A3817B
:1028C000208252F821309847237A656A03F001018B
:1028D00041EA400001B28AB212F47F4F14BF43F0C4
:1028E000010303F0FE0312F0FF0F208A14BF03F070
:1028F000FD0343F0020321F07F0203F07F03134343
:10290000020A237255F82230C9B2BDE87040184758
:102910005074012070B52B4C2A4EA089236A020AFC
:102920000621616153F8223098470546A089236A41
:102930000130020A53F82230984745EA002080B25D
:10294000A389226A2082010A0233A38152F821302E
:102950009847237A03F0010141EA400001B28AB2AC
:1029600012F47F4F14BF43F0010303F0FE0312F093
:10297000FF0F14BF03F0FD0343F00203208A626AD5
:1029800021F07F0503F07F032B43050A237252F8E1
:102990002530C9B29847208A236A6579020A53F81C
:1029A00022309847337A284014BF03F0FD0343F0E8
:1029B000020303F07F0320F07F0213436071237250
:1029C00070BD00BF5074012070B51B4CA089236AF4
:1029D000020A411C052553F822306561A181984700
:1029E000431C54FA83F3204493F8742890F8743805
:1029F000E07903EB02239BB21844434013F0FF0F2E
:102A000002D063690133636180B2020A236A2082C3
:102A100053F822306579084E9847337A284014BF1E
:102A200003F0FD0343F0020303F07F0320F07F0275
:102A300013436071237270BD5074012070B52C4C2B
:102A40002B4EA089236A020A0825411C53F8223024
:102A50006561A1819847421C204454FA82F2E379CF
:102A600090F8740892F87418226A184400EB012058
:102A700080B220FA05F3208252F823309847237A57
:102A800003F0010141EA400001B28AB212F47F4F23
:102A900014BF43F0010303F0FE0312F0FF0F14BF55
:102AA00003F0FD0343F00203208A626A21F07F05F0
:102AB00003F07F032B43050A237252F82530C9B275
:102AC0009847208A236A6579020A53F8223098478A
:102AD000337A284014BF03F0FD0343F0020303F0F0
:102AE0007F0320F07F0213436071237270BD00BF2B
:102AF0005074012038B5114CA089236A020A411C88
:102B0000042553F822306561A1819847A379226A90
:102B1000657912681844C0B220829047237A284011
:102B200014BF03F0FD0343F0020303F07F0320F022
:102B30007F0213436071237238BD00BF50740120BF
:102B400070B51B4CA089236A020A411C0625A1818D
:102B5000656153F822309847A379226A1844C0B2BD
:102B6000136820829847237A656A03F0010141EADD
:102B7000400001B28AB212F47F4F14BF43F0010348
:102B800003F0FE0312F0FF0F208A14BF03F0FD03D1
:102B900043F0020321F07F0203F07F031343020A94
:102BA000237255F82230C9B2BDE87040184700BF03
:102BB0005074012070B5254C244EA089236A020A66
:102BC000411C0625A18153F8223065619847A379FD
:102BD000226A1844C0B2136820829847237A03F00F
:102BE000010141EA400001B28AB212F47F4F14BFE2
:102BF00043F0010303F0FE0312F0FF0F14BF03F0D4
:102C0000FD0343F00203208A626A21F07F0503F08E
:102C10007F032B43050A237252F82530C9B2984727
:102C2000208A236A6579020A53F822309847337A5A
:102C3000284014BF03F0FD0343F0020303F07F03B9
:102C400020F07F0213436071237270BD5074012025
:102C5000034B1A7A022142F0010259611A7270473D
:102C60005074012070B51A4CA089236A020A04210D
:102C700053F8223061619847E579284485B2EB0525
:102C800002D5636901336361A089236A104E013064
:102C9000020A53F82230984705EB002080B2A3893E
:102CA000226A2082010A023352F82120A381657929
:102CB0009047337A284014BF03F0FD0343F002032A
:102CC00003F07F0320F07F0213436071237270BD15
:102CD0005074012070B52C4C2B4EA089236A020A37
:102CE0000721616153F8223098470546A089236A7D
:102CF0000130020A53F822309847E179A389226A09
:102D00000D4405EB002080B2010A0233A38120822A
:102D100052F821309847237A03F0010141EA40003C
:102D200001B28AB212F47F4F14BF43F0010303F0E3
:102D3000FE0312F0FF0F14BF03F0FD0343F0020384
:102D4000208A626A21F07F0503F07F032B43050A86
:102D5000237252F82530C9B29847208A236A6579D0
:102D6000020A53F822309847337A284014BF03F000
:102D7000FD0343F0020303F07F0320F07F021343BF
:102D80006071237270BD00BF5074012070B51A4C81
:102D9000A089236A020A042153F82230616198470E
:102DA000A579284485B2EB0502D5636901336361D7
:102DB000A089236A104E0130020A53F82230984746
:102DC00005EB002080B2A389226A2082010A023327
:102DD00052F82120A38165799047337A284014BFA7
:102DE00003F0FD0343F0020303F07F0320F07F02B2
:102DF00013436071237270BD5074012070B5214C73
:102E0000A089236A020A0721616153F8223098479A
:102E10000546A089236A0130020A53F822309847F8
:102E2000A179A389226A45EA0020084480B2010AF8
:102E30000233A381208252F821309847237A656AB1
:102E400003F0010141EA400001B28AB212F47F4F5F
:102E500014BF43F0010303F0FE0312F0FF0F208ABA
:102E600014BF03F0FD0343F0020321F07F0203F0DF
:102E70007F031343020A237255F82230C9B2BDE81A
:102E8000704018475074012070B52C4C2B4EA0890F
:102E9000236A020A0721616153F8223098470546E8
:102EA000A089236A0130020A53F822309847A17999
:102EB000A389226A45EA0020084480B2010A02334D
:102EC000A381208252F821309847237A03F0010130
:102ED00041EA400001B28AB212F47F4F14BF43F0BE
:102EE000010303F0FE0312F0FF0F14BF03F0FD0314
:102EF00043F00203208A626A21F07F0503F07F031A
:102F00002B43050A237252F82530C9B29847208A0C
:102F1000236A6579020A53F822309847337A2840A9
:102F200014BF03F0FD0343F0020303F07F0320F01E
:102F30007F0213436071237270BD00BF5074012083
:102F400030B40D4B19794A1CD2B2941C501C53FA60
:102F500084F453FA80F01A4494F8745990F8740980
:102F600092F874291A720331062440EA0522197175
:102F70005C619A8130BC70475074012038B5184CA0
:102F8000A089236A020A411C062553F82230656194
:102F9000A1819847A379226A65791844C0B2431C7D
:102FA00054FA83F3204493F8741890F8743843EA81
:102FB0000120030A208252F823309847237A684080
:102FC00010F0FF0014BF03F0FD0343F0020303F011
:102FD0007F0320F07F0213436071237238BD00BF6E
:102FE0005074012070B5284CA089236A020A411C44
:102FF000082553F82230A18165619847A379226A98
:103000001844C0B2431C54FA83F3204493F8741854
:1030100090F8743843EA012020FA05F3208252F830
:1030200023309847237AC2074FEA50014CBF43F040
:10303000010303F0FE0321B303F0FD03208A626A5B
:10304000114E050A03F07F03237252F82530C9B2EE
:103050009847208A236A6579020A53F822309847F4
:10306000337A684010F0FF0014BF03F0FD0343F013
:10307000020303F07F0320F07F0213436071237289
:1030800070BD43F00203D9E75074012038B50F4CEE
:10309000A089236A020A411C032553F82230A1812A
:1030A000656198472218637992F87428208253400A
:1030B000227A637114BF02F0FD0242F0020202F0B4
:1030C0007F0223F07F010A43227238BD5074012031
:1030D00070B5154CA089236A020A411C052553F8D6
:1030E0002230A18165619847236A20821B68984736
:1030F000237AC2074FEA50014CBF43F0010303F0AB
:10310000FE0369B943F00203208A626A03F07F0379
:10311000050A237252F82530C9B2BDE8704018473D
:1031200003F0FD03F0E700BF5074012070B5204CA0
:10313000A089236A020A411C052553F82230A18187
:1031400065619847236A20821B689847237AC207E3
:103150004FEA50014CBF43F0010303F0FE0321B3DB
:1031600003F0FD03208A626A114E050A03F07F0313
:10317000237252F82530C9B29847208A236A6579AC
:10318000020A53F822309847337A684010F0FF0063
:1031900014BF03F0FD0343F0020303F07F0320F0AC
:1031A0007F0213436071237270BD43F00203D9E7BD
:1031B0005074012010B4064B1A7958799918013AC5
:1031C00003241A7181F874095C615DF8044B70473F
:1031D0005074012038B50F4CA089236A2082020A5E
:1031E0000225411C53F822306561A1816579984719
:1031F000237A684010F0FF0014BF03F0FD0343F092
:10320000020303F07F0320F07F02134360712372F7
:1032100038BD00BF507401200F4A537913F0010FDD
:103220004FEA6301137A4FF00200506118BF43F078
:103230000103C8B208BF03F0FE0331B943F0020333
:1032400003F07F0313725071704703F0FD0303F026
:103250007F031372507170475074012038B5114CC0
:10326000A089236A2082020A411C022553F82230D9
:103270006561A18165799847237A0A492840C20788
:103280004CBF43F0010303F0FE0303F07F0240084C
:1032900015BF03F07D0342F002020B720A726071E7
:1032A00038BD00BF5074012038B50B4CA089236A8B
:1032B000020A032153F82230616198470546A0892C
:1032C000236A0130020A53F82230984745EA002069
:1032D00080B22082A08138BD5074012038B5174CCF
:1032E000A089236A020A0421616153F822309847B9
:1032F0000546A089236A0130020A53F82230984714
:1033000045EA002080B2A389226A2082010A0233A2
:10331000A38152F8213065799847237A684010F0EC
:10332000FF0014BF03F0FD0343F0020303F07F032B
:1033300020F07F0213436071237238BD5074012066
:1033400070B51C4CA089236A020A0621616153F8FA
:10335000223098470546A089236A0130020A53F8B3
:103360002230984745EA002080B2A389226A208251
:10337000010A0233A38152F821309847237AC20709
:103380004FEA50014CBF43F0010303F0FE0369B95B
:1033900043F00203208A626A03F07F03050A237266
:1033A00052F82530C9B2BDE87040184703F0FD035C
:1033B000F0E700BF5074012070B5274CA089236A44
:1033C000020A0621616153F8223098470546A08918
:1033D000236A0130020A53F82230984745EA002058
:1033E00080B2A389226A2082010A0233A38152F8A3
:1033F00021309847237AC2074FEA50014CBF43F06F
:10340000010303F0FE0321B303F0FD03208A626A87
:10341000114E050A03F07F03237252F82530C9B21A
:103420009847208A236A6579020A53F82230984720
:10343000337A684010F0FF0014BF03F0FD0343F03F
:10344000020303F07F0320F07F02134360712372B5
:1034500070BD43F00203D9E75074012070B51C4CD5
:10346000A089236A020A411C052553F822306561B0
:10347000A1819847431C54FA83F3204493F874289D
:1034800090F87438E07903EB02239BB21844434070
:1034900013F0FF0F02D063690133636180B2020A47
:1034A000236A208253F822306579094E9847337A8F
:1034B000684010F0FF0014BF03F0FD0343F0020367
:1034C00003F07F0320F07F0213436071237270BD0D
:1034D0005074012070B5284CA089236A020A411C4F
:1034E000082553F82230A18165619847421C204489
:1034F00054FA82F2E37990F8740892F87418226A08
:10350000184400EB012080B220FA05F3208252F823
:1035100023309847237AC2074FEA50014CBF43F04B
:10352000010303F0FE0321B303F0FD03208A626A66
:10353000114E050A03F07F03237252F82530C9B2F9
:103540009847208A236A6579020A53F822309847FF
:10355000337A684010F0FF0014BF03F0FD0343F01E
:10356000020303F07F0320F07F0213436071237294
:1035700070BD43F00203D9E75074012038B5124CF6
:10358000A089236A020A411C042553F82230656190
:10359000A1819847A379226A657912681844C0B25C
:1035A00020829047237A684010F0FF0014BF03F098
:1035B000FD0343F0020303F07F0320F07F02134377
:1035C0006071237238BD00BF5074012070B5164C75
:1035D000A089236A020A411C0625A18153F82230E2
:1035E00065619847A379226A1844C0B213682082A3
:1035F0009847237AC2074FEA50014CBF43F00103BA
:1036000003F0FE0369B943F00203208A626A03F003
:103610007F03050A237252F82530C9B2BDE8704015
:10362000184703F0FD03F0E75074012070B5224CF9
:10363000A089236A020A411C0625A18153F8223081
:1036400065619847A379226A1844C0B21368208242
:103650009847237AC2074FEA50014CBF43F0010359
:1036600003F0FE0321B303F0FD03208A626A124EC9
:10367000050A03F07F03237252F82530C9B2984738
:10368000208A236A6579020A53F822309847337AF0
:10369000684010F0FF0014BF03F0FD0343F0020385
:1036A00003F07F0320F07F0213436071237270BD2B
:1036B00043F00203D9E700BF50740120034B1A7A8C
:1036C000022122F0040259611A72704750740120DD
:1036D00070B51B4CA089236A020A042153F82230DA
:1036E00061619847E579284485B2EB0502D56369A5
:1036F00001336361A089236A114E0130020A53F835
:103700002230984705EB002080B2A389226A2082EC
:10371000010A023352F82120A38165799047337A58
:10372000684010F0FF0014BF03F0FD0343F00203F4
:1037300003F07F0320F07F0213436071237270BD9A
:103740005074012070B5284CA089236A020A072111
:10375000616153F8223098470546A089236A0130F9
:10376000020A53F822309847E179A389226A0D446E
:1037700005EB002080B2010A0233A381208252F8B7
:1037800021309847237AC2074FEA50014CBF43F0DB
:10379000010303F0FE0321B303F0FD03208A626AF4
:1037A000114E050A03F07F03237252F82530C9B287
:1037B0009847208A236A6579020A53F8223098478D
:1037C000337A684010F0FF0014BF03F0FD0343F0AC
:1037D000020303F07F0320F07F0213436071237222
:1037E00070BD43F00203D9E75074012070B51B4C43
:1037F000A089236A020A042153F8223061619847A4
:10380000A579284485B2EB0502D56369013363616C
:10381000A089236A114E0130020A53F822309847DA
:1038200005EB002080B2A389226A2082010A0233BC
:1038300052F82120A38165799047337A684010F0CF
:10384000FF0014BF03F0FD0343F0020303F07F0306
:1038500020F07F0213436071237270BD5074012009
:1038600070B51D4CA089236A020A0721616153F8D3
:10387000223098470546A089236A0130020A53F88E
:1038800022309847A179A389226A45EA002008449A
:1038900080B2010A0233A381208252F82130984776
:1038A000237AC2074FEA50014CBF43F0010303F0F3
:1038B000FE0369B943F00203208A626A03F07F03C2
:1038C000050A237252F82530C9B2BDE87040184786
:1038D00003F0FD03F0E700BF5074012070B5284CE1
:1038E000A089236A020A0721616153F822309847B0
:1038F0000546A089236A0130020A53F8223098470E
:10390000A179A389226A45EA0020084480B2010A0D
:103910000233A381208252F821309847237AC207CC
:103920004FEA50014CBF43F0010303F0FE0321B303
:1039300003F0FD03208A626A114E050A03F07F033B
:10394000237252F82530C9B29847208A236A6579D4
:10395000020A53F822309847337A684010F0FF008B
:1039600014BF03F0FD0343F0020303F07F0320F0D4
:103970007F0213436071237270BD43F00203D9E7E5
:1039800050740120094B1A79911C013253FA81F0CD
:1039900053FA82F290F8740992F87429197142EA84
:1039A00000220621013259619A817047507401202A
:1039B000F8B5444CA089236A020A411C062553F835
:1039C0002230A18165619847A379226A1844C0B268
:1039D000431C54FA83F3204493F8741890F8743815
:1039E00043EA0120030A208252F823309847227AC2
:1039F0006679130737D502F0010106F00F0500F0D4
:103A00000F030D441D44092D06F0F0034DD800F0BE
:103A1000F0073B442B443144014411F0FF0F0CBF2D
:103A200042F0020202F0FD02DDB225F07F0186EADB
:103A3000030702F07F020A4339460F0602D57040A1
:103A400006063CD502F0BF0203F4F871902984BF4A
:103A50006033DDB203F47F63F02B1BD942F0010227
:103A600022726571F8BD02F001033344034413F080
:103A7000FF0502F07D0218BF25F07F0180EA0600F5
:103A80000CBF42F002020A43000608D502F0BF0252
:103A9000FF2BE3D822F0010222726571F8BD5E406F
:103AA0003106F3D542F04002F2E703F11007063584
:103AB00000F0F00305F00F053B442B44ABE742F068
:103AC0004002C1E750740120F8B5584CA089236A20
:103AD000020A411C082553F82230A18165619847EC
:103AE000A379226A1844C0B2431C54FA83F32044D9
:103AF00093F8741890F8743843EA012020FA05F31B
:103B0000208252F823309847237AD901C9B241EA7A
:103B10005001C20789B24CBF43F0010303F0FE031A
:103B2000002951D003F0FD03208A626A3F4E21F044
:103B30007F0503F07F032B43050A237252F82530DB
:103B4000C9B29847208A236A020A53F8223098475C
:103B5000227A767913073AD502F0010106F00F05B3
:103B600000F00F030D441D44092D06F0F00350D85A
:103B700000F0F0073B442B443144014411F0FF0FA7
:103B80000CBF42F0020202F0FD02DDB225F07F011F
:103B900086EA030702F07F020A4339460F0602D580
:103BA000704006063FD502F0BF0203F4F871902979
:103BB00084BF6033DDB203F47F63F02B1ED942F083
:103BC000010222726571F8BD43F00203ACE702F016
:103BD00001033344034413F0FF0502F07D0218BFD4
:103BE00025F07F0180EA06000CBF42F002020A4382
:103BF000000608D502F0BF02FF2BE0D822F0010238
:103C000022726571F8BD5E403106F3D542F0400284
:103C1000F2E703F11007063500F0F00305F00F0599
:103C20003B442B44A8E742F04002BEE75074012019
:103C300038B5064CA089236A020A411C0325656138
:103C4000A18153F822309847208238BD507401205A
:103C5000FFF7EEBFFFF7ECBFF8B53D4CA089236A34
:103C6000020A0325411C53F822306561A18198475F
:103C7000227A20822318667993F87458130737D56F
:103C800002F0010106F00F0005F00F03084418448C
:103C9000092806F0F0034DD805F0F0073B44034433
:103CA0003144294411F0FF0F0CBF42F0020202F030
:103CB000FD02D8B220F07F0186EA030702F07F02FE
:103CC0000A4339460F0602D575402E063CD502F050
:103CD000BF0203F4F871902984BF6033D8B203F4B3
:103CE0007F63F02B1BD942F0010222726071F8BD94
:103CF00002F0010333442B4413F0FF0002F07D0275
:103D000018BF20F07F0185EA06050CBF42F00202D1
:103D10000A432D0608D502F0BF02FF2BE3D822F09C
:103D2000010222726071F8BD5E403106F3D542F0A7
:103D30004002F2E703F11007063005F0F00300F04F
:103D40000F003B440344ABE742F04002C1E700BF31
:103D50005074012070B5154CA089236A020A411CD9
:103D6000052553F82230A18165619847237A208286
:103D70002218D90192F87428C9B241EA5201D20737
:103D80004CBF43F0010303F0FE0361B943F00203AB
:103D900021F07F0203F07F031343626A23721368EA
:103DA000BDE87040184703F0FD03F1E750740120AF
:103DB000F8B5504CA089236A020A411C052553F826
:103DC0002230A18165619847236A20821B68984749
:103DD000237AD901C9B241EA5001C20789B24CBF66
:103DE00043F0010303F0FE03002951D003F0FD036B
:103DF000208A626A3F4E21F07F0503F07F032B4348
:103E0000050A237252F82530C9B29847208A236ADE
:103E1000020A53F822309847227A767913073AD566
:103E200002F0010106F00F0500F00F030D441D44E0
:103E3000092D06F0F00350D800F0F0073B442B4466
:103E40003144014411F0FF0F0CBF42F0020202F0B6
:103E5000FD02DDB225F07F0186EA030702F07F0252
:103E60000A4339460F0602D5704006063FD502F0D8
:103E7000BF0203F4F871902984BF6033DDB203F40C
:103E80007F63F02B1ED942F0010222726571F8BDEA
:103E900043F00203ACE702F001033344034413F0A0
:103EA000FF0502F07D0218BF25F07F0180EA0600C1
:103EB0000CBF42F002020A43000608D502F0BF021E
:103EC000FF2BE0D822F0010222726571F8BD5E403E
:103ED0003106F3D542F04002F2E703F11007063550
:103EE00000F0F00305F00F053B442B44A8E742F037
:103EF0004002BEE7507401200C4B19790131C9B260
:103F00005A18042092F87429197158615A71197A53
:103F100042B941F0020101F07F0122F07F020A4321
:103F20001A72704701F0FD01F5E700BF50740120DF
:103F3000F8B53B4CA089236A2082020A411C022565
:103F400053F822306561A1819847227A6679130778
:103F500037D502F0010106F00F0500F00F030D4404
:103F60001D44092D06F0F0034DD800F0F0073B4446
:103F70002B443144014411F0FF0F0CBF42F0020208
:103F800002F0FD02DDB225F07F0186EA030702F0B0
:103F90007F020A4339460F0602D5704006063CD51B
:103FA00002F0BF0203F4F871902984BF6033DDB2E0
:103FB00003F47F63F02B1BD942F00102227265717A
:103FC000F8BD02F001033344034413F0FF0502F08F
:103FD0007D0218BF25F07F0180EA06000CBF42F089
:103FE00002020A43000608D502F0BF02FF2BE3D805
:103FF00022F0010222726571F8BD5E403106F3D5F0
:1040000042F04002F2E703F11007063500F0F0033A
:1040100005F00F053B442B44ABE742F04002C1E7FB
:104020005074012010B40F490B7A4879DA01D2B2EA
:10403000022442EA5002C0074C614CBF43F0010326
:1040400003F0FE035AB943F0020303F07F0322F0AA
:104050007F0003434A710B725DF8044B704703F015
:10406000FD03F2E75074012038B5394CA089236A6A
:104070002082020A411C022553F822306561A18189
:1040800065799847237ADA01190700EA0500D2B268
:1040900018D442EA5000C1B203F07F0321F07F023E
:1040A0001343002846D143F0020303F0FE0380EAE5
:1040B000400040064CBF43F0400323F0400323720E
:1040C000617138BDD90742EA50054CBF43F0800307
:1040D00003F07F035DBB43F0020380EA0502520652
:1040E00000F0010100F00F020A444CBF43F040030E
:1040F00003F0BF03052A06D9A91D01F00F0105F041
:10410000F00242EA010500F0F00200F01000104455
:10411000502817D905F1600101F0F00105F00F02F8
:1041200043F0010342EA01052372657138BD03F0D3
:10413000FD03D2E703F0FD03450648BF43F001034A
:10414000B5D4B2E723F001032372657138BD00BF17
:1041500050740120F8B5164DA8892B6A020A052172
:10416000696153F8223098470646A8892B6A0130C6
:10417000020A53F82230984746EA002006B2B4B249
:10418000220A2B6A204653F822309847013407460A
:10419000E4B206F47F402043020A2B6A53F822302F
:1041A000984747EA002080B22882A881F8BD00BF66
:1041B00050740120F8B5444CA089236A020A0421F6
:1041C000616153F8223098470546A089236A01307F
:1041D000020A53F82230984745EA002080B2A389AA
:1041E000226A2082010A0233A38152F821309847C3
:1041F000227A6679130737D502F0010106F00F0520
:1042000000F00F030D441D44092D06F0F0034DD8B6
:1042100000F0F0073B442B443144014411F0FF0F00
:104220000CBF42F0020202F0FD02DDB225F07F0178
:1042300086EA030702F07F020A4339460F0602D5D9
:10424000704006063CD502F0BF0203F4F8719029D5
:1042500084BF6033DDB203F47F63F02B1BD942F0DF
:10426000010222726571F8BD02F001033344034478
:1042700013F0FF0502F07D0218BF25F07F0180EAF0
:1042800006000CBF42F002020A43000608D502F005
:10429000BF02FF2BE3D822F0010222726571F8BD44
:1042A0005E403106F3D542F04002F2E703F1100719
:1042B000063500F0F00305F00F053B442B44ABE757
:1042C00042F04002C1E700BF5074012070B51F4C9E
:1042D000A089236A020A0621616153F822309847B7
:1042E0000546A089236A0130020A53F82230984714
:1042F00045EA002080B2A389226A2082010A0233A3
:10430000A38152F821309847237AD901C9B241EAF2
:104310005001C20789B24CBF43F0010303F0FE0312
:1043200081B943F00203208A656A21F07F0203F01D
:104330007F031343020A237255F82230C9B2BDE845
:104340007040184703F0FD03EDE700BF50740120F3
:10435000F8B5574CA089236A020A0621616153F817
:10436000223098470546A089236A0130020A53F893
:104370002230984745EA002080B2A389226A208231
:10438000010A0233A38152F821309847237AD901D8
:10439000C9B241EA5001C20789B24CBF43F00103E0
:1043A00003F0FE03002951D003F0FD03208A626A66
:1043B0003F4E21F07F0503F07F032B43050A237254
:1043C00052F82530C9B29847208A236A020A53F866
:1043D00022309847227A767913073AD502F0010104
:1043E00006F00F0500F00F030D441D44092D06F0E3
:1043F000F00350D800F0F0073B442B443144014413
:1044000011F0FF0F0CBF42F0020202F0FD02DDB21C
:1044100025F07F0186EA030702F07F020A4339464E
:104420000F0602D5704006063FD502F0BF0203F426
:10443000F871902984BF6033DDB203F47F63F02B01
:104440001ED942F0010222726571F8BD43F00203E9
:10445000ACE702F001033344034413F0FF0502F01C
:104460007D0218BF25F07F0180EA06000CBF42F0F4
:1044700002020A43000608D502F0BF02FF2BE0D873
:1044800022F0010222726571F8BD5E403106F3D55B
:1044900042F04002F2E703F11007063500F0F003A6
:1044A00005F00F053B442B44A8E742F04002BEE76D
:1044B00050740120F8B5494CA089236A020A411CB6
:1044C000052553F822306561A1819847431C54FAB1
:1044D00083F3204493F8742890F87438E07903EB60
:1044E00002239BB21844434013F0FF0F02D06369CC
:1044F0000133636180B2020A236A208253F82230BA
:10450000364D9847227A6E79130737D502F00101AC
:1045100006F00F0500F00F030D441D44092D06F0B1
:10452000F0034DD800F0F0073B442B4431440144E4
:1045300011F0FF0F0CBF42F0020202F0FD02DDB2EB
:1045400025F07F0186EA030702F07F020A4339461D
:104550000F0602D5704006063CD502F0BF0203F4F8
:10456000F871902984BF6033DDB203F47F63F02BD0
:104570001BD942F0010222726571F8BD02F00103FD
:104580003344034413F0FF0502F07D0218BF25F009
:104590007F0180EA06000CBF42F002020A430006D7
:1045A00008D502F0BF02FF2BE3D822F001022272ED
:1045B0006571F8BD5E403106F3D542F04002F2E786
:1045C00003F11007063500F0F00305F00F053B443A
:1045D0002B44ABE742F04002C1E700BF507401201A
:1045E000F8B5584CA089236A020A411C082553F8E3
:1045F0002230A181656198472318013054FA80F276
:1046000093F87408E37992F87418226A184400EB5E
:10461000012080B220FA05F3208252F82330984717
:10462000237AD901C9B241EA5001C20789B24CBF0D
:1046300043F0010303F0FE03002951D003F0FD0312
:10464000208A626A3F4E21F07F0503F07F032B43EF
:10465000050A237252F82530C9B29847208A236A86
:10466000020A53F822309847227A767913073AD50E
:1046700002F0010106F00F0500F00F030D441D4488
:10468000092D06F0F00350D800F0F0073B442B440E
:104690003144014411F0FF0F0CBF42F0020202F05E
:1046A000FD02DDB225F07F0186EA030702F07F02FA
:1046B0000A4339460F0602D5704006063FD502F080
:1046C000BF0203F4F871902984BF6033DDB203F4B4
:1046D0007F63F02B1ED942F0010222726571F8BD92
:1046E00043F00203ACE702F001033344034413F048
:1046F000FF0502F07D0218BF25F07F0180EA060069
:104700000CBF42F002020A43000608D502F0BF02C5
:10471000FF2BE0D822F0010222726571F8BD5E40E5
:104720003106F3D542F04002F2E703F110070635F7
:1047300000F0F00305F00F053B442B44A8E742F0DE
:104740004002BEE750740120F8B53E4CA089236AB0
:10475000020A411C042553F82230A1816561984763
:10476000A379226A1844C0B2136820829847227A3B
:104770006679130737D502F0010106F00F0500F046
:104780000F030D441D44092D06F0F0034DD800F031
:10479000F0073B442B443144014411F0FF0F0CBFA0
:1047A00042F0020202F0FD02DDB225F07F0186EA4E
:1047B000030702F07F020A4339460F0602D5704014
:1047C00006063CD502F0BF0203F4F871902984BFBD
:1047D0006033DDB203F47F63F02B1BD942F001029A
:1047E00022726571F8BD02F001033344034413F0F3
:1047F000FF0502F07D0218BF25F07F0180EA060068
:104800000CBF42F002020A43000608D502F0BF02C4
:10481000FF2BE3D822F0010222726571F8BD5E40E1
:104820003106F3D542F04002F2E703F110070635F6
:1048300000F0F00305F00F053B442B44ABE742F0DA
:104840004002C1E75074012070B5194CA089236A59
:10485000020A411C0625A18153F822306561984760
:10486000A379226A1844C0B2136820829847237A39
:10487000D901C9B241EA5001C20789B24CBF43F025
:10488000010303F0FE0381B943F00203208A656A45
:1048900021F07F0203F07F031343020A237255F8CD
:1048A0002230C9B2BDE87040184703F0FD03EDE7C0
:1048B00050740120F8B5524CA089236A020A411CA9
:1048C0000625A18153F8223065619847A379226AB1
:1048D0001844C0B2136820829847237AD901C9B21C
:1048E00041EA5001C20789B24CBF43F0010303F013
:1048F000FE03002951D003F0FD03208A626A404E76
:1049000021F07F0503F07F032B43050A237252F841
:104910002530C9B29847208A236A020A53F8223008
:104920009847227A767913073AD502F0010106F00A
:104930000F0500F00F030D441D44092D06F0F00390
:1049400050D800F0F0073B442B443144014411F0AF
:10495000FF0F0CBF42F0020202F0FD02DDB225F0B3
:104960007F0186EA030702F07F020A4339460F06F9
:1049700002D5704006063FD502F0BF0203F4F8717D
:10498000902984BF6033DDB203F47F63F02B1ED91E
:1049900042F0010222726571F8BD43F00203ACE7F8
:1049A00002F001033344034413F0FF0502F07D02DB
:1049B00018BF25F07F0180EA06000CBF42F002021A
:1049C0000A43000608D502F0BF02FF2BE0D822F010
:1049D000010222726571F8BD5E403106F3D542F0E6
:1049E0004002F2E703F11007063500F0F00305F08E
:1049F0000F053B442B44A8E742F04002BEE700BF4E
:104A000050740120034B1A7A022142F004025961CA
:104A10001A72704750740120F8B5484CA089236A77
:104A2000020A042153F8223061619847E57928444D
:104A300085B2EA0502D5636901336361A089236AFF
:104A40003E4E0130020A53F82230984705EB002011
:104A500080B2A389226A2082010A023352F82120FF
:104A6000A3819047227A7679130737D502F00101A6
:104A700006F00F0500F00F030D441D44092D06F04C
:104A8000F0034DD800F0F0073B442B44314401447F
:104A900011F0FF0F0CBF42F0020202F0FD02DDB286
:104AA00025F07F0186EA030702F07F020A433946B8
:104AB0000F0602D5704006063CD502F0BF0203F493
:104AC000F871902984BF6033DDB203F47F63F02B6B
:104AD0001BD942F0010222726571F8BD02F0010398
:104AE0003344034413F0FF0502F07D0218BF25F0A4
:104AF0007F0180EA06000CBF42F002020A43000672
:104B000008D502F0BF02FF2BE3D822F00102227287
:104B10006571F8BD5E403106F3D542F04002F2E720
:104B200003F11007063500F0F00305F00F053B44D4
:104B30002B44ABE742F04002C1E700BF50740120B4
:104B4000F8B5584CA089236A020A0721616153F81D
:104B5000223098470546A089236A0130020A53F89B
:104B600022309847E179A389226A0D4405EB0020A1
:104B700080B2010A0233A381208252F82130984783
:104B8000237AD901C9B241EA5001C20789B24CBFA8
:104B900043F0010303F0FE03002951D003F0FD03AD
:104BA000208A626A3F4E21F07F0503F07F032B438A
:104BB000050A237252F82530C9B29847208A236A21
:104BC000020A53F822309847227A767913073AD5A9
:104BD00002F0010106F00F0500F00F030D441D4423
:104BE000092D06F0F00350D800F0F0073B442B44A9
:104BF0003144014411F0FF0F0CBF42F0020202F0F9
:104C0000FD02DDB225F07F0186EA030702F07F0294
:104C10000A4339460F0602D5704006063FD502F01A
:104C2000BF0203F4F871902984BF6033DDB203F44E
:104C30007F63F02B1ED942F0010222726571F8BD2C
:104C400043F00203ACE702F001033344034413F0E2
:104C5000FF0502F07D0218BF25F07F0180EA060003
:104C60000CBF42F002020A43000608D502F0BF0260
:104C7000FF2BE0D822F0010222726571F8BD5E4080
:104C80003106F3D542F04002F2E703F11007063592
:104C900000F0F00305F00F053B442B44A8E742F079
:104CA0004002BEE750740120F8B5484CA089236A41
:104CB000020A042153F8223061619847A5792844FB
:104CC00085B2EA0502D5636901336361A089236A6D
:104CD0003E4E0130020A53F82230984705EB00207F
:104CE00080B2A389226A2082010A023352F821206D
:104CF000A3819047227A7679130737D502F0010114
:104D000006F00F0500F00F030D441D44092D06F0B9
:104D1000F0034DD800F0F0073B442B4431440144EC
:104D200011F0FF0F0CBF42F0020202F0FD02DDB2F3
:104D300025F07F0186EA030702F07F020A43394625
:104D40000F0602D5704006063CD502F0BF0203F400
:104D5000F871902984BF6033DDB203F47F63F02BD8
:104D60001BD942F0010222726571F8BD02F0010305
:104D70003344034413F0FF0502F07D0218BF25F011
:104D80007F0180EA06000CBF42F002020A430006DF
:104D900008D502F0BF02FF2BE3D822F001022272F5
:104DA0006571F8BD5E403106F3D542F04002F2E78E
:104DB00003F11007063500F0F00305F00F053B4442
:104DC0002B44ABE742F04002C1E700BF5074012022
:104DD00070B5204CA089236A020A0721616153F84B
:104DE000223098470546A089236A0130020A53F809
:104DF00022309847A179A389226A45EA0020084415
:104E000080B2010A0233A381208252F821309847F0
:104E1000237AD901C9B241EA5001C20789B24CBF15
:104E200043F0010303F0FE0381B943F00203208A3B
:104E3000656A21F07F0203F07F031343020A2372A5
:104E400055F82230C9B2BDE87040184703F0FD03A1
:104E5000EDE700BF50740120F8B5584CA089236AD3
:104E6000020A0721616153F8223098470546A0895C
:104E7000236A0130020A53F822309847A179A389A6
:104E8000226A45EA0020084480B2010A0233A38165
:104E9000208252F821309847237AD901C9B241EAD9
:104EA0005001C20789B24CBF43F0010303F0FE0377
:104EB000002951D003F0FD03208A626A3F4E21F0A1
:104EC0007F0503F07F032B43050A237252F8253038
:104ED000C9B29847208A236A020A53F822309847B9
:104EE000227A767913073AD502F0010106F00F0510
:104EF00000F00F030D441D44092D06F0F00350D8B7
:104F000000F0F0073B442B443144014411F0FF0F03
:104F10000CBF42F0020202F0FD02DDB225F07F017B
:104F200086EA030702F07F020A4339460F0602D5DC
:104F3000704006063FD502F0BF0203F4F8719029D5
:104F400084BF6033DDB203F47F63F02B1ED942F0DF
:104F5000010222726571F8BD43F00203ACE702F072
:104F600001033344034413F0FF0502F07D0218BF30
:104F700025F07F0180EA06000CBF42F002020A43DE
:104F8000000608D502F0BF02FF2BE0D822F0010294
:104F900022726571F8BD5E403106F3D542F04002E1
:104FA000F2E703F11007063500F0F00305F00F05F6
:104FB0003B442B44A8E742F04002BEE75074012076
:104FC00070B5104CA089236A020A411C0625656150
:104FD000A18153F822309847A379626A6179184415
:104FE000C0B2431C54FA83F3204493F8745890F8E9
:104FF000743843EA0520030A208252F82330BDE8C2
:10500000704018475074012070B5184CA089236A6D
:10501000020A411C06256561A18153F82230984798
:10502000A379626A61791844C0B2431C54FA83F3CD
:10503000204493F8745890F8743843EA0520030A22
:10504000208252F823309847208A636AA179020AA5
:1050500053F822309847208A636A6179A279040A5A
:10506000114053F82430BDE87040184750740120B7
:1050700070B5094CA089236A020A411C0325A1814D
:10508000656153F822309847636A2082E1791B6892
:10509000BDE87040184700BF5074012070B5094C3E
:1050A000A089236A020A411C0325A181656153F886
:1050B00022309847636A208261791B68BDE870409E
:1050C000184700BF5074012070B5094CA089236AAD
:1050D000020A411C0325A181656153F822309847DB
:1050E000636A2082A1791B68BDE87040184700BF41
:1050F0005074012070B5114CA089236A020A411C2A
:10510000032553F822306561A1819847636A2082A4
:1051100061791B689847208A636AA179020A53F86B
:1051200022309847208A636A6179A279040A114083
:1051300053F82430BDE87040184700BF5074012078
:105140000A4AD379013B0221DBB25161D371117A52
:1051500043B941F0020101F07F0123F07F030B43CB
:105160001372704701F0FD01F5E700BF5074012094
:10517000094A9379537102215161117A43B941F07F
:10518000020101F07F0123F07F030B43137270478C
:1051900001F0FD01F5E700BF50740120F8B5114C96
:1051A000A089226A6579A3792082010A461C022718
:1051B00052F821206761A68165F011051D409047D6
:1051C000237A284020F07F0203F07F03134320B9A5
:1051D00043F0020323726071F8BD23F002032372CF
:1051E0006071F8BD5074012070B5104CA089236A1D
:1051F000020A0421616153F8223098470546A089CC
:10520000236A0130020A53F82230984745EA002009
:10521000A389626A80B2010A0233A381208252F814
:105220002130E179BDE87040184700BF507401207B
:1052300070B5104CA089236A020A0421616153F8F9
:10524000223098470546A089236A0130020A53F8A4
:105250002230984745EA0020A389626A80B2010A99
:105260000233A381208252F821306179BDE8704079
:10527000184700BF5074012070B5104CA089236AF4
:10528000020A0421616153F8223098470546A0893B
:10529000236A0130020A53F82230984745EA002079
:1052A000A389626A80B2010A0233A381208252F884
:1052B0002130A179BDE87040184700BF507401202B
:1052C00070B5184CA089236A020A0421616153F861
:1052D000223098470546A089236A0130020A53F814
:1052E0002230984745EA002080B2A389626A208272
:1052F000010A0233A38152F8213061799847208A4C
:10530000636AA179020A53F822309847208A636AB7
:105310006179A279040A114053F82430BDE8704045
:10532000184700BF5074012070B5104CA089236A43
:10533000020A411C06256561A18153F82230984775
:10534000421C204454FA82F2E37990F8740892F8EF
:105350007458626A6179184400EB052080B2030A30
:10536000208252F82330BDE8704018475074012065
:1053700070B50A4CA089236A020A411C0425A18148
:1053800053F8223065619847A379626AE17912681F
:105390001844C0B22082BDE870401047507401200C
:1053A00070B50A4CA089236A020A411C0425A18118
:1053B00053F8223065619847A379626A617912686F
:1053C0001844C0B22082BDE87040104750740120DC
:1053D00070B50A4CA089236A020A411C0425A181E8
:1053E00053F8223065619847E379626AA1791268BF
:1053F0001844C0B22082BDE87040104750740120AC
:1054000070B5124CA089236A020A411C042565610B
:10541000A18153F822309847E379626A6179126872
:105420001844C0B220829047208A636AA179020A98
:1054300053F822309847208A636A6179A279040A76
:10544000114053F82430BDE87040184750740120D3
:10545000094AD379537102215161117A43B941F05C
:10546000020101F07F0123F07F030B4313727047A9
:1054700001F0FD01F5E700BF5074012070B5114C3B
:10548000A089236A020A0521616153F822309847F6
:105490000546A089236A0130020A53F82230984752
:1054A000E679A389626A6179354405EB002080B210
:1054B000050A0233A381208252F82530BDE87040EE
:1054C000184700BF50740120024B02219A7959619C
:1054D0001A7170475074012070B5114CA089236A6D
:1054E000020A0521616153F8223098470546A089D8
:1054F000236A0130020A53F822309847A679A3891B
:10550000626A617945EA0020304480B2050A0233BC
:10551000A381208252F82530BDE87040184700BFB3
:105520005074012038B50D4CA089236A020A052168
:1055300053F82230616198470546A089236A0130FB
:10554000020A53F822309847A389A27945EA00203D
:10555000104402332082A38138BD00BF5074012063
:1055600038B50D4CA089236A2082020A411C02250D
:1055700053F822306561A1819847237AE07140B9E0
:1055800043F0020303F07F0320F07F0018432072F2
:1055900038BD03F0FD03F5E75074012038B5164C13
:1055A000A089236A020A411C062553F82230A181F2
:1055B00065619847A379226A1844C0B2431C54FA23
:1055C00083F3204493F8741890F8743843EA012068
:1055D000030A208252F823309847237A607140B939
:1055E00043F0020303F07F0320F07F001843207292
:1055F00038BD03F0FD03F5E75074012038B50D4CBC
:10560000A089236A2082020A411C022553F8223015
:105610006561A1819847237AA07140B943F00203E4
:1056200003F07F0320F07F001843207238BD03F0A1
:10563000FD03F5E75074012038B5214CA089236A99
:10564000020A411C062553F82230A1816561984762
:10565000A379226A1844C0B2431C54FA83F320444D
:1056600093F8741890F8743843EA0120030A2082F2
:1056700052F823309847227A60710346D0B102F085
:10568000FD02208A216A0E4D02F07F0223F07F0383
:105690001343020A237251F8223098472B7AA071E3
:1056A00058B943F0020303F07F0320F07F00184352
:1056B000207238BD42F00202E3E703F0FD03F2E797
:1056C0005074012038B50F4CA089236A020A411C8E
:1056D000032553F822306561A18198472318208261
:1056E00093F87438E371227A43B942F0020202F06F
:1056F0007F0223F07F031343237238BD02F0FD02C3
:10570000F5E700BF5074012038B50F4CA089236A1B
:10571000020A411C032553F822306561A181984794
:105720002318208293F874386371227A43B942F0C7
:10573000020202F07F0223F07F031343237238BD7D
:1057400002F0FD02F5E700BF5074012038B50F4CA0
:10575000A089236A020A411C032553F82230A18143
:1057600065619847236A20821B689847237AA07155
:1057700040B943F0020303F07F0320F07F00184399
:10578000207238BD03F0FD03F5E700BF507401201F
:1057900038B51A4CA089236A020A411C032553F824
:1057A0002230A18165619847236A20821B6898474F
:1057B000227A60710346D0B102F0FD02208A216A8C
:1057C0000E4D02F07F0223F07F031343020A23727F
:1057D00051F8223098472B7AA07158B943F0020350
:1057E00003F07F0320F07F001843207238BD42F0A1
:1057F0000202E3E703F0FD03F2E700BF507401206B
:10580000094A5379D37102215161117A43B941F0A8
:10581000020101F07F0123F07F030B4313727047F5
:1058200001F0FD01F5E700BF5074012038B50D4CC3
:10583000A089236A2082020A411C022553F82230E3
:105840006561A1819847237A607140B943F00203F2
:1058500003F07F0320F07F001843207238BD03F06F
:10586000FD03F5E750740120094A53799371022131
:105870005161117A43B941F0020101F07F0123F037
:105880007F030B431372704701F0FD01F5E700BF82
:105890005074012070B5114CA089236A2082020A3D
:1058A000411C022653F822306661A1816579984730
:1058B00045F0EE05237A284020F07F0203F07F03B5
:1058C000134328B943F002032372A071607170BDC5
:1058D00023F002032372A071607170BD5074012027
:1058E00038B5164CA089236A020A0421616153F875
:1058F000223098470546A089236A0130020A53F8EE
:105900002230984745EA002080B2A389226A20828B
:10591000010A0233A38152F821309847237AE071BB
:1059200040B943F0020303F07F0320F07F001843E7
:10593000207238BD03F0FD03F5E700BF507401206D
:1059400038B5164CA089236A020A0421616153F814
:10595000223098470546A089236A0130020A53F88D
:105960002230984745EA002080B2A389226A20822B
:10597000010A0233A38152F821309847237A6071DB
:1059800040B943F0020303F07F0320F07F00184387
:10599000207238BD03F0FD03F5E700BF507401200D
:1059A00038B5164CA089236A020A0421616153F8B4
:1059B000223098470546A089236A0130020A53F82D
:1059C0002230984745EA002080B2A389226A2082CB
:1059D000010A0233A38152F821309847237AA0713B
:1059E00040B943F0020303F07F0320F07F00184327
:1059F000207238BD03F0FD03F5E700BF50740120AD
:105A000038B5214CA089236A020A0421616153F848
:105A1000223098470546A089236A0130020A53F8CC
:105A20002230984745EA002080B2A389226A20826A
:105A3000010A0233A38152F821309847227A60711B
:105A40000346D0B102F0FD02208A216A0E4D02F019
:105A50007F0223F07F031343020A237251F822309E
:105A600098472B7AA07158B943F0020303F07F03E3
:105A700020F07F001843207238BD42F00202E3E7B5
:105A800003F0FD03F2E700BF5074012038B51B4C52
:105A9000A089236A020A411C052553F8223065615A
:105AA000A1819847431C54FA83F3204493F8742847
:105AB00090F87438E07903EB02239BB2184443401A
:105AC00013F0FF0F02D063690133636180B2020AF1
:105AD000236A208253F82230084D98472B7A607150
