:1000000000000320D1010000CD3E0100853E01002B
:10001000853E0100853E0100853E0100853E0100D0
:10002000853E0100853E0100853E0100CD3E010078
:10003000CD3E0100853E0100095601000D5701002B
:10004000CD3E0100CD3E0100CD3E0100CD3E010080
:10005000CD3E0100CD3E0100CD3E0100CD3E010070
:10006000CD3E0100CD3E0100CD3E0100CD3E010060
:10007000CD3E0100CD3E0100CD3E0100CD3E010050
:10008000CD3E0100CD3E0100CD3E0100CD3E010040
:10009000CD3E0100CD3E0100CD3E0100CD3E010030
:1000A000CD3E0100CD3E0100CD3E0100CD3E010020
:1000B000CD3E0100CD3E0100CD3E0100CD3E010010
:1000C000CD3E0100CD3E0100CD3E0100CD3E010000
:1000D000CD3E0100CD3E0100CD3E0100CD3E0100F0
:1000E000CD3E0100CD3E0100CD3E0100CD3E0100E0
:1000F000CD3E0100CD3E0100CD3E0100CD3E0100D0
:1001000065050000790500008D050000A1050000CF
:10011000CD3E01004D450100CD3E0100CD3E010028
:10012000CD3E0100CD3E0100CD3E0100CD3E01009F
:10013000CD3E0100CD3E0100CD3E0100CD3E01008F
:10014000BD530100CD3E0100CD3E0100CD3E01007A
:10015000CD3E0100CD3E0100CD3E0100CD3E01006F
:10016000CD3E0100CD3E0100CD3E0100CD3E01005F
:10017000CD3E0100CD3E0100CD3E0100CD3E01004F
:10018000CD3E01007D140100CD3E0100CD3E0100B9
:10019000CD3E0100CD3E0100CD3E0100CD3E01002F
:1001A000CD3E0100CD3E0100CD3E0100CD3E01001F
:1001B000CD3E0100CD3E0100CD3E0100CD3E01000F
:1001C000CD3E0100CD3E0100CD3E0100CD3E0100FF
:1001D0005C4B4CF2205210B51A804DF628121A8052
:1001E00000BF00BF13F076FE574B4FF030621A602D
:1001F000564A9A60564ADA60564B4FF470021A60BB
:10020000554B564A1A60564A136813F4807304D14A
:1002100054490B604FF4A8531360534B1A781107DD
:1002200003D51A7842F008021A70504B5049AA229E
:100230001A70504A504B8B4204D252F8040F43F8C4
:10024000040BF8E74D4B4E4900228B4202D243F893
:10025000042BFAE74B494C4A002352F8230041F89B
:1002600023000133742BF8D1484B494A802103F80D
:10027000011B9342FBD1474B424A1A60464B8A22EC
:100280001A70A3F5805324225A70A0221A709A790A
:100290009207FCD59A79D406FCD4404A937903F0AE
:1002A0000C03082BFAD13E4B60221A7002331A78E5
:1002B000802AFCD1394B00221A714E225A719A7948
:1002C0009006FCD59979354A4906FBD5354B364918
:1002D00019600821596020231370937903F00C03EF
:1002E0000C2BFAD1314B324A1A60324B324A1A6027
:1002F00000225A60072243F8042C304AC3F80C2D20
:1003000062B613F0B5FF174B1B68DA0705D52C480A
:1003100013F01CFF2B4B2C4A1A602C4B1B785B06EE
:1003200009D5284C284B22689A4204D1244813F05E
:100330000DFF0023236016F095F913F0D1FD15F0A1
:100340004BFBFEE70E20054030800440823F040056
:100350000100002B88ED00E0002008E0030000858C
:1003600010D0034014D0034002D0074000E0074003
:10037000F86E0120A8B40500306101200070012052
:1003800030970220005C01200000000000E400E043
:1003900064E400E008ED00E0005006400040064044
:1003A00001E007404480044000000701048004404D
:1003B000C010050014E000E07FA903000000202029
:1003C0006FA60C5A1CE00340A5C3945A00F00740E6
:1003D000FFFFFFFFFFFFFFFFFFFFFFFFFFFFFFFF2D
:1003E000FFFFFFFFFFFFFFFFFFFFFFFFFFFFFFFF1D
:1003F000FFFFFFFFFFFFFFFFFFFFFFFFFFFFFFFF0D
:10040000FFFFFFFFFFFFFFFFFFFFFFFFDEF9FFFF23
:1004100010B5054C237833B9044B13B10448AFF33E
:1004200000800123237010BD007001200000000037
:10043000A4B40500084B10B51BB108490848AFF338
:1004400000800848036803B910BD074B002BFBD0A0
:10045000BDE81040184700BF0000000004700120F4
:10046000A4B40500F86E01200000000008B50421C6
:10047000034814F099FEBDE8084000F045B900BFFC
:100480000002FF1F704700BF704700BF0368F0B451
:10049000FBB1002501249D60DC601B4C1A601C44EC
:1004A000241104F130056A11032692009E60174F53
:1004B0000679174B47F8241002F1604202F56142B9
:1004C00005F01F05012000FA05F5E6541560F0BCA3
:1004D0007047104C236843F40003236000BF0E4BA9
:1004E0000E4DA4F58734A4F59E7401261E602346A4
:1004F00004609C68002CD0D01033AB420360F8D16C
:10050000002303601846E2E7008FFCBF1062012061
:1005100030E400E03C800440007003404071034040
:100520000168A9B10B4BF0B40B441B110A4E0B4FE1
:100530000B4D46F8237003F1300202F01F04012333
:100540005211A340002445F822308C600460F0BCB6
:10055000704700BF008FFCBF1062012089040000BB
:1005600080E100E0024A034B012111601B6818473B
:100570000C71034010620120024A034B01211160FB
:100580005B6818471C71034010620120024A034B4C
:10059000012111609B6818472C71034010620120F3
:1005A000024A034B01211160DB6818473C7103408C
:1005B0001062012000207047704700BF014B024AC3
:1005C0001A60FEE70CED00E00400FA052DE9F041A9
:1005D0001A4C1B4E22791B4DDFF86C8037460EE01B
:1005E0000CF036FA3388013B9BB2B3B122793B80E1
:1005F000124BEAB119682B685B1A43451AD82B686D
:1006000023620023A382E361002AE9D00CF0D6FE26
:100610003388013B9BB2002BE8D140F21B633B8047
:1006200000F04AFE01F0E8F92279044B002AE1D1FA
:10063000BDE8F081BDE8F04108F0C6B8587501206A
:1006400020620120041000E0FF43950810B5044625
:1006500014F05CFF204610BD10B5044B044640F872
:10066000083B14F053FF204610BD00BF7CAA0100D8
:1006700010B5044B044640F8203B11F0ADFA20467B
:1006800010BD00BFD41E050008B508F0C5FC012050
:1006900008BD00BFF8B5164C164F174E2046012175
:1006A00014F0CEFE154923680D681549D960154A26
:1006B0000021998340F202201A60052104221F6163
:1006C000D880D9829A60D9834020A98B98802079DC
:1006D0009A8289B221F47861020241F0200102F489
:1006E00070626FF013040A439C61AA833070F8BDF6
:1006F00038750120A47D02201B800040288A02203A
:10070000C0FEFFFF10F00F402DE9F041B84DDFF8BB
:1007100090E32B68B748B84AB84FB94CB94984B090
:100720004FF02008019340F20313019ECEF80030F1
:100730000360136002F5322202F584724FF4807078
:100740003B60236008601368AF48B04C4FF0400E28
:1007500043F0400313600421C0F800E0192013F0B7
:100760000DFDAB4B07F532277437C3F8008001212C
:10077000262013F003FD4FF400633B6001210D20A0
:1007800013F0FCFCC7F8008009F0C2FF0421A14867
:1007900014F00CFCA04814F0D5FF0DF043FA9F486C
:1007A00008F0FCF89E499D4808F010FC04F5157708
:1007B0009A4808F0E7FB384610F078FE002840F031
:1007C00073810023DFF8DC829FED960A88F8003001
:1007D00009F0AAFF9448F0EE400A10EE107A9FED5F
:1007E000930A11F05BF8FA2013F0F2FC904A40F201
:1007F000DC5113782BB92B680293029B9B1B8B4215
:10080000F7D98C4B8C4820241C601E2114F0CEFBA1
:10081000814814F097FF2321884814F0C7FB7E48D5
:1008200014F090FF0821864814F0C0FB98F80020CF
:10083000844B8548002A16BF184617210C2114F056
:10084000B5FB754814F07EFF734814F07BFF0D2153
:100850007E4814F0ABFBF0216F4814F0D9FF6E48CE
:1008600014F070FF0D217A4814F0A0FB78216A483B
:1008700014F0CEFF684814F065FF0921754814F0A4
:1008800095FB0321744814F091FB634814F05AFF60
:10089000614814F057FF1021704814F087FB0321C2
:1008A0006F4814F083FB5C4814F04CFF24216D4822
:1008B00014F07CFB9FED4A0B0321574814F0B0FF66
:1008C000554814F03FFF2221674814F06FFB9FED5D
:1008D000460B0321504814F0A3FF4F4814F032FF99
:1008E0004D4814F02FFF1621604814F05FFB21469D
:1008F000494814F08DFF484814F024FF17215C4844
:1009000014F054FB384615F04FFB41EC100B02215C
:10091000414814F085FF404814F014FF3E4814F09D
:1009200011FF1621534814F041FB0A2200235249BB
:10093000394814F02DFF384814F004FF364814F0FD
:1009400001FF09F08FFE00F0EDFC01F08BF80CF0D8
:1009500067FF07F047FF494B32201C6013F038FC5B
:100960002B4B40F2DC521C602B680393039B9B1BB8
:100970009342F9D91A214248424C14F017FB2648F9
:1009800014F0E0FEFFF786FE0A213F4814F00EFB4C
:10099000214814F0D7FE3D4807F05CFE012341F6E4
:1009A000F8523B4984F8EE3A04F1A000FFF76EFDDF
:1009B000D4F8A010FF2284F8A42021B1354B36488A
:1009C0000B441B111A5403223449192013F042FB23
:1009D00009F020FF04B0BDE8F08100BFAFF3008054
:1009E000000000206F8BCE4000000020F20F494035
:1009F000F893022004D004400CD0044010D00440EE
:100A000014D0044018D0044004F10F40E0720120DB
:100A100004F00F40DC0204003C640120E07101207E
:100A200098AA0100795BF4463C7001200B8A70495A
:100A3000DC94022088F00F40CC030400EC03040097
:100A400010040400B4020400C4020400E402040020
:100A5000F40204000403040010030400140304005F
:100A6000280304002C03040054030400780304004A
:100A700090030400A80304004C08010008F00F4094
:100A80009802040058750120C003040080841E00F1
:100A9000CD050000008FFCBF30E400E0BD05000084
:100AA00000D004401C70012004F50C7027600FF08A
:100AB00015F80121204610F019FA98B10D4C04F5F3
:100AC0000C77384621460FF08FF900283FF479AEB5
:100AD00094F8303213F070033FF474AE064A0123E9
:100AE00017606FE60146204610F000FA0028E5D1B5
:100AF00067E600BFE0720120A893022038B50D4CD4
:100B0000237803B138BD0123237014F01DFA30B9E6
:100B100008F0BEFB0DF0BAFF0023237038BD14F0BF
:100B2000C9F9C5B2284608F099FB284614F0C6FA60
:100B3000EEE700BF407501202DE9F0411C2184B093
:100B40000E2227238DE80E003B483C4E3C4D3D4F86
:100B5000FF231422152107F0DFFE3B4A3B493648AC
:100B600015F06EFD32682F6000236B722B612B72C3
:100B7000EB600AB95CE01A465369002BFBD1556162
:100B80004FF00008324B3348334C2B60C5F81480CB
:100B9000A5F80480A5F8068010F068FF284810F03A
:100BA0005BFE294A2D49264815F04AFD012004F133
:100BB000180227604346414684F80880C4F80C8038
:100BC00060722261274600E03A6942F82310627A97
:100BD000214801339A42F7DC3268184B0AB929E000
:100BE0001A465369002BFBD1546100261C4B6661E9
:100BF000A680E6801848236008F008FF194B1846C5
:100C00001E721D605C605E72DE6014F0A7FB164C05
:100C1000164B0D4A16491748DE7183F8306283F887
:100C20003162C3F8544204B0BDE8F04115F008BD8C
:100C30003560A5E71860D8E7E0710120F89402203C
:100C40003C70012094AA01000C62012059060000AA
:100C5000D41E05005C700120207001207106000088
:100C60006041040044750120C01E0500E0720120AF
:100C70004D06000038750120064991F8052891F8C5
:100C8000F537D20022F07F0243F01003134381F8BE
:100C9000F537704758750120F0B500F00F00031FBD
:100CA00083B00B2B00F20581DFE813F019001D0063
:100CB00027002B00350057007C00A100D000E00089
:100CC000F6000C00A64B21F0100283F8F727CA06A5
:100CD00003D5B3F8FE27A3F8EE2703B0F0BDA04B71
:100CE00083F8FC17F9E79E4B93F8F62783F8FD1776
:100CF000D507F2D483F8ED17EFE7994B83F8FE1789
:100D0000EBE7974B93F8F72783F8FF17D407E4D462
:100D100083F8EF17E1E7924B93F8F72722F07F0271
:100D200002F0FF04002A00F0EA8093F8015893F8DB
:100D3000024893F8030801F00F010A2212FB051282
:100D40004FF4167505FB042248F6A04404FB00226C
:100D500083F80018C3F81028BFE7814B93F8F727F2
:100D600012F0800F4FEA111202EB820201F00F0124
:100D700000F0C08093F8005893F8024893F80308F5
:100D800041EA42010A2212FB01524FF4167505FB9B
:100D9000042248F6A04404FB002283F80118C3F89B
:100DA00010289AE76E4B93F8F72712F0800F4FEA5E
:100DB000111200F0968093F8004893F8016893F8B8
:100DC000030802EB820201F00F010A2541EA420109
:100DD00015FB06444FF4167202FB014248F6A0448C
:100DE00004FB002283F80218C3F8102875E75C4A58
:100DF00092F8F73723F07F0303F0FF00002B5DD05C
:100E0000C1F30010830049B20344002992F800089E
:100E100092F8016892F8024801F00F0141EA43019B
:100E20004FF00A05B4BF0C2300230B4415FB060149
:100E30004FF41670DBB200FB041048F6A04101FB32
:100E4000030182F80338C2F8101846E7444890F8C6
:100E5000052890F8F53780F8F417120122F07F0288
:100E600043F00803134380F8F53736E708066ED5DC
:100E70003B4B93F8050893F8F52701F01F01014358
:100E800002F01F00014283F805183FF426AF62F01C
:100E90007F0283F8F52720E7314B21F01002C906C5
:100EA00083F8F6277FF519AFB3F8FC27A3F8EC27F2
:100EB00013E72B4B184480F8E8170EE7C1F3001432
:100EC000A30049B20029234401F00F0141EA430184
:100ED000B8BF0C204318012182F8F33782F81418A8
:100EE000FBE602EB820201F00F0141EA420283F8C5
:100EF000F227F2E641EA420283F8F127EDE6194AC9
:100F000093F8F16712680192019F174893F8F2571E
:100F100083F814484FF47A7201F00F0102FB06F6D1
:100F2000642414FB01664EF6602CA0FB070193F8C5
:100F3000F347DFF83CE00D4A0CFB0560090E0EFBA1
:100F4000040002FB1172121AC3F80828C5E6044A0D
:100F500092F8053823EA010182F80518BDE600BFC2
:100F600058750120F89302203BD4B531005C26056A
:100F700080EE36002DE9F04300F00F0087B00D2819
:100F800000F2A580DFE800F01217A3A3A3A3A3A398
:100F90001C3B6475A307994B93F8F507002200F0FA
:100FA0009F0083F8F52707B0BDE8F08308F06AFAE0
:100FB00007B0BDE8F08308F0EBFA07B0BDE8F083B6
:100FC0008E4D95F81538002B00F0F880D5F80C18E8
:100FD0008B4B8C4883FB0123CA17C2EBA3124FF43F
:100FE0007A7303FB121380FB0320DB17C3EBA00013
:100FF000C0B2002385F8153807B0BDE8F0837F4BF9
:1010000093F81528002A69D0D3F80C187C4A7E483A
:101010007C4B82FB0142C917C1EBA21282FB00018B
:101020005018D117C1EB6011C1EB0111A2EB810285
:10103000D2B283FB02139B0803EB8300A2EB4000B8
:101040001B0140B25BB21843C0B207B0BDE8F083E9
:101050006A4B93F81528002A00F08B80D3F80C18FF
:101060006A4A6948674B82FB0142C917C1EBA23249
:10107000D4E7674B61481B680593D0F80858059979
:10108000644B654C654A491BA3FB01531B0E04FBD3
:10109000131382FB0321DA17C2EB215201240B2A1E
:1010A000C0F80C3880F81548D3B240F39A800C3B56
:1010B0005B48DBB2A0FB0320C00800EB8002A3EB7F
:1010C000420363F07F0343EA0010C0B26BE74B4B6F
:1010D000184490F8E80707B0BDE8F0834C4AD3F80D
:1010E000084813680193019B12680292029D494AC5
:1010F0004949434F4448434E2D1B1B1BA2FB05E4AB
:10110000240EA2FB03E201FB1455120E01FB123167
:1011100087FB0532ED17C5EBA21487FB0123C91726
:10112000C1EBA31384FB008904EB090583FB0001D9
:10113000E2175818C2EB6512D917C1EB6011C2EB68
:101140000212A4EB8202C1EB0111A3EB810386FB27
:101150000214D11786FB0350C1EBA401DB17C3EBCC
:10116000A00301EB81011801A2EB410243B250B28E
:1011700069E7274AD3F8084813680393039B12686A
:101180000492049D234A2449204F1F481D4E2D1BC5
:101190001B1BA2FB05E4240EA2FB03E201FB14557A
:1011A000120E01FB123187FB0532ED17C5EBA2349D
:1011B00087FB0123C917C1EBA333B3E7144BD5F861
:1011C00008181B680093009E124C134B0C4A0D48E4
:1011D000711AA4FB0164240E03FB141182FB01238A
:1011E000FAE60F48A0FB0320C00800EB8002A3EB47
:1011F000420343EA0010C0B2D5E600BF5875012093
:10120000D34D6210676666668988888873B2E74541
:10121000F89302203BD4B531005C260559BE904AB4
:10122000CDCCCCCC10B4234AD2F8F437190C01F051
:101230002101012925D0DC0115D503F0C041B1F110
:10124000804F33D0B2F8EE171A4C884221DD401A95
:10125000B4F8FE47190148BF23F08073201A43F405
:101260000073A2F8EE07D2F80428124902F4706263
:101270001A4218BF43F40043C1F8F4375DF8044B39
:101280007047B2F8EC17814205DB091AA2F8EC1797
:10129000D1E7081AE5E7B2F8FC47411A611A1C03C6
:1012A00048BF23F4803343F48073EFE7D805DAD5E1
:1012B0000120C7E75875012070B4154B154C1B6809
:1012C000154A164E164DD4F8100883B001930199B3
:1012D000D4F80838C91A82FB0123CA17C2EB23626B
:1012E00006FB121385FB0312DB17C3EB6213834269
:1012F0000BD194F8052894F8F537520122F07F02BB
:1013000043F00403134384F8F53703B070BC70470F
:10131000F8930220587501203BD4B531005C2605B6
:101320001F85EB5138B5104C08F0B2F9002508F0D4
:10133000DBF9FF220421242022712275627162757B
:10134000A271A275E271E2752560A560E56012F0F8
:1013500015FF064B06494FF400721A602420022242
:10136000BDE8384012F076BE407D012084F00F4089
:10137000790C0000F0B500F00F0085B00F2811D8EF
:10138000DFE810F022001400100010003C004000C4
:101390004A004E0058007A009F00C400F400060185
:1013A0001E011600B84B184480F8181805B0F0BD9F
:1013B000B54B21F0100283F82728CA06F6D5B3F8FA
:1013C0002E28A3F81E28F1E7CC4314F0380F40F084
:1013D00004818A02AD48AE4EAB4D0191A30202F4E6
:1013E000604203F460433260A4030360A5F8404008
:1013F0000CF0E4F8019985F81818D7E7A24B83F8A8
:101400002C18D3E7A04B93F8262883F82D18D5077E
:10141000CCD483F81D18C9E79B4B83F82E18C5E779
:10142000994B93F8272883F82F18D407BED483F854
:101430001F18BBE7944B93F8272822F07F0202F095
:10144000FF04002A00F0D38093F8315893F8324813
:1014500093F8330801F00F010A2212FB05124FF432
:10146000167505FB042248F6A04404FB002283F80D
:101470003018C3F8402899E7834B93F8272812F0D7
:10148000800F4FEA111202EB820201F00F0100F00F
:10149000A98093F8305893F8324893F8330841EA1A
:1014A00042010A2212FB01524FF4167505FB042279
:1014B00048F6A04404FB002283F83118C3F8402802
:1014C00074E7714B93F8272812F0800F4FEA11123E
:1014D00000F0C88093F8304893F8316893F83308E7
:1014E00002EB820201F00F010A2541EA420115FBDD
:1014F00006444FF4167202FB014248F6A04404FB76
:10150000002283F83218C3F840284FE75E4A92F869
:10151000273823F07F0303F0FF00002B00F08F80BB
:10152000C1F30010830049B20344002992F8300847
:1015300092F8316892F8324801F00F0141EA430114
:101540004FF00A05B4BF0C2300230B4415FB060122
:101550004FF41670DBB200FB041048F6A04101FB0B
:10156000030182F83338C2F840181FE7464890F864
:10157000352890F8253880F82418120122F07F02CF
:1015800043F00803134380F8253807F03FF80DE7D0
:10159000080670D53C4B93F8350893F8252801F0E0
:1015A0001F01014302F01F00014283F835183FF488
:1015B000FDAE62F07F0283F8252807F027F8F5E6F4
:1015C000314B21F01002C90683F826287FF5EEAED4
:1015D000B3F82C28A3F81C28E8E6019107F0DCF802
:1015E0000199F6E641EA420283F82128DEE6294A1B
:1015F00093F8216812680392039F274893F82258B2
:1016000083F844484FF47A7201F00F0102FB06F6AA
:10161000642414FB01664EF6602CA0FB070193F8CE
:101620002348DFF87CE01D4A0CFB0560090E0EFB29
:10163000040002FB1172121AC3F83828B6E6C1F38F
:101640000014A30049B20029234401F00F0141EA2C
:101650004301B8BF0C204318012182F8233882F8D7
:101660004418A3E602EB820201F00F0141EA4202B4
:1016700083F822289AE6044A92F8353823EA0101D1
:1016800082F8351892E600BF5875012004F00F402B
:1016900008F00F40F89302203BD4B531005C2605DA
:1016A00080EE3600F0B500F00F0089B00D2800F292
:1016B000AF80DFE800F015ADADADADADADAD284606
:1016C0006E7FAD079C4B93F82508002200F09F0029
:1016D000019083F8252806F0ADFF019809B0F0BD10
:1016E000964A954B106893F81838800B03F03F0327
:1016F00043EA8010C0B2C3439B06EFD0019007F0CD
:101700004BF80198EAE78C4D95F84538002B00F02E
:10171000F480D5F83C188A4B8A4883FB0123CA170A
:10172000C2EBA3124FF47A7303FB121380FB032066
:10173000DB17C3EBA000C0B2002385F8453809B021
:10174000F0BD7D4B93F84528002A67D0D3F83C18AC
:101750007B4A7D487B4B82FB0142C917C1EBA21239
:1017600082FB00015018D117C1EB6011C1EB0111D0
:10177000A2EB8102D2B283FB02139B0803EB83002E
:10178000A2EB40001B0140B25BB21843C0B209B0EB
:10179000F0BD694B93F84528002A00F08980D3F802
:1017A0003C186A4A6848674B82FB0142C917C1EB83
:1017B000A232D5E7664B60481B680793D0F83858CB
:1017C0000799644B644C654A491BA3FB01531B0EEC
:1017D00004FB131382FB0321DA17C2EB215201240D
:1017E0000B2AC0F83C3880F84548D3B240F39880C3
:1017F0000C3B5B48DBB2A0FB0320C00800EB80027F
:10180000A3EB420363F07F0343EA0010C0B265E735
:10181000494B184490F8180809B0F0BD4C4AD3F869
:10182000381813680393039813680493049D494A76
:10183000494C434B444F434E6D1A411AA2FB05E0FD
:10184000000EA2FB01E204FB1055120E04FB121164
:1018500083FB0502ED17C5EBA21483FB0123C91717
:10186000C1EBA31384FB07016518E21783FB070193
:101870005818C2EB6512D917C1EB6011C2EB021206
:10188000A4EB8202C1EB0111A3EB810386FB0210E2
:10189000D11786FB0346C1EBA000DB17C3EBA60301
:1018A00000EB80001B01A2EB40005BB240B26CE792
:1018B000274AD3F8381813680593059813680693D8
:1018C000069D244A244C214B1F4F1E4E6D1A411A6F
:1018D000A2FB05E0000EA2FB01E204FB1055120E74
:1018E00004FB121183FB0502ED17C5EBA23483FB49
:1018F0000123C917C1EBA333B4E7154BD5F838184A
:101900001B680293029E134C134B0D4A0D48711A2B
:10191000A4FB0164240E03FB141182FB0123FEE6E9
:101920000F48A0FB0320C00800EB8002A3EB42039A
:1019300043EA0010C0B2D1E65875012010F00F4004
:10194000D34D6210676666668988888873B2E745FA
:10195000F89302203BD4B531005C260559BE904A6D
:10196000CDCCCCCC10B4234AD2F82438190C01F0D9
:101970002101012924D0DC0115D503F0C041B1F1CA
:10198000804F32D0B2F81E181A4C884220DD401A1F
:10199000B4F82E48190148BF23F08073201A43F48D
:1019A0000073A2F81E08D2F8341801F470611942CD
:1019B00018BF43F40043C2F824385DF8044B704765
:1019C000B2F81C18814205DB091AA2F81C18D2E7EC
:1019D000081AE6E7B2F82C48411A611A1C0348BFFE
:1019E00023F4803343F48073EFE7D805DBD501207F
:1019F000C8E700BF5875012070B4154B154C1B6823
:101A0000154A164E164DD4F8400883B0019301993B
:101A1000D4F83838C91A82FB0123CA17C2EB2362F3
:101A200006FB121385FB0312DB17C3EB6213834221
:101A30000BD194F8352894F82538520122F07F0212
:101A400043F00403134384F8253803B070BC704797
:101A5000F8930220587501203BD4B531005C26056F
:101A60001F85EB5138B5104B04210025FF241D6064
:101A70009D60DD6008461C715C719C71DC7112F028
:101A80007DFB04211A2012F079FB04211B2012F0A7
:101A900075FB064B4FF400504FF480414FF4004269
:101AA000186019601A6038BD707D012004F00F4085
:101AB000F8B5184C6279E389667A551E01339BB2FA
:101AC000A71854FA85F5911E033A46F0040E54FA0D
:101AD00081F1627146F010021E0A87F84869E381BD
:101AE00085F84839636A81F848290720A06184F89D
:101AF00009E0D3F8FC334FF6FE709847636A054659
:101B0000D3F8FC334FF6FF70984745EA0020E08198
:101B1000F8BD00BF5875012038B5184CE089636ADC
:101B2000020A411C062553F82230A561E18198473D
:101B3000E379626AA5791844C0B2431C54FA83F36E
:101B4000204493F8481890F8483843EA0120030AE3
:101B5000608252F823309847637A284310F0FF00E0
:101B600014BF03F0FD0343F0020303F07F0320F0F2
:101B70007F021343A071637238BD00BF5875012006
:101B800070B52A4C294EE089636A020A0825411C77
:101B900053F82230A561E1819847E379626A1844DD
:101BA000C0B2431C54FA83F3204493F8481890F8C9
:101BB000483843EA012020FA05F3608252F82330C6
:101BC0009847637AA26A400010F47F4F14BF43F035
:101BD000010303F0FE0310F0FF0114BF03F0FD0347
:101BE00043F00203608A21F07F0503F07F032B435B
:101BF000050A637252F825309847608A636AA579AE
:101C0000020A53F822309847737A284310F0FF00F5
:101C100014BF03F0FD0343F0020303F07F0320F041
:101C20007F021343A071637270BD00BF587501201D
:101C300038B50F4CE089636A020A411C032553F84A
:101C40002230E181A56198472318A27993F848389A
:101C500060821343627AA37114BF02F0FD0242F066
:101C6000020202F07F0223F07F010A43627238BD54
:101C70005875012070B5144CE089636A020A411C52
:101C8000052553F82230E181A56198472318608229
:101C900093F84818637A4900CA054CBF43F0010322
:101CA00003F0FE0311F0FF0114BF03F0FD0343F046
:101CB000020321F07F0203F07F031343A26A6372E1
:101CC0001368BDE8704018475875012070B5224C64
:101CD000214EE089636A020A411C052553F822302F
:101CE000E181A5619847636A60821B689847637ABF
:101CF000A26A400010F47F4F14BF43F0010303F0C9
:101D0000FE0310F0FF0114BF03F0FD0343F00203D4
:101D1000608A21F07F0503F07F032B43050A63727D
:101D200052F825309847608A636AA579020A53F809
:101D300022309847737A284310F0FF0014BF03F055
:101D4000FD0343F0020303F07F0320F07F021343FF
:101D5000A071637270BD00BF5875012010B4074BAD
:101D60005A79597A981841F01001013A03245A71AE
:101D700080F848199C615DF8044B70475875012044
:101D800038B50F4CE089636A6082020A0225411C63
:101D900053F82230A561E181A5799847637A2843F9
:101DA00010F0FF0014BF03F0FD0343F0020303F043
:101DB0007F0320F07F021343A071637238BD00BF20
:101DC000587501200D498B7902225B008A614A7A9D
:101DD000D8054CBF42F0010202F0FE0213F0FF03EF
:101DE00014BF02F0FD0242F0020202F07F0223F073
:101DF0007F0002438B714A72704700BF5875012003
:101E000038B50C4CE089636A020A042153F8223089
:101E1000A16198470546E089636A0130020A53F8D8
:101E200022309847E38945EA002002336082E3814B
:101E300038BD00BF5875012038B5174CE089636A7A
:101E4000020A0421A16153F8223098470546E0892F
:101E5000636A0130020A53F82230984745EA0020AD
:101E600080B2E389626A6082010A0233E38152F838
:101E70002130A5799847637A284310F0FF0014BFFA
:101E800003F0FD0343F0020303F07F0320F07F0221
:101E90001343A071637238BD5875012070B51E4C94
:101EA000E089636A020A0621A16153F8223098474B
:101EB0000546E089636A0130020A53F822309847E8
:101EC00045EA0020E389626A80B2010A0233E381B5
:101ED000608252F821309847637AA56A400010F476
:101EE0007F4F14BF43F0010303F0FE0310F0FF0126
:101EF00018BF03F0FD03608A08BF43F0020321F01E
:101F00007F0203F07F031343020A637255F8223005
:101F1000BDE87040184700BF5875012070B5294CC6
:101F2000284EE089636A020A0621A16153F8223033
:101F300098470546E089636A0130020A53F8223067
:101F4000984745EA002080B2E389626A6082010A0C
:101F50000233E38152F821309847637AA26A400045
:101F600010F47F4F14BF43F0010303F0FE0310F0A1
:101F7000FF0114BF03F0FD0343F00203608A21F068
:101F80007F0503F07F032B43050A637252F8253067
:101F90009847608A636AA579020A53F82230984705
:101FA000737A284310F0FF0014BF03F0FD0343F0E1
:101FB000020303F07F0320F07F021343A0716372DA
:101FC00070BD00BF5875012070B51C4CE089636A74
:101FD000020A411C052553F82230A561E18198478A
:101FE000431C54FA83F3204493F8482890F8483867
:101FF000207A03EB02239BB21844434013F0FF0FF7
:1020000002D0A3690133A36180B2020A636A6082CD
:1020100053F82230A579094E9847737A284310F077
:10202000FF0014BF03F0FD0343F0020303F07F033E
:1020300020F07F021343A071637270BD58750120B8
:1020400070B52A4C294EE089636A020A0825411CB2
:1020500053F82230A561E1819847421C204454FA8C
:1020600082F2237A90F8480892F84818626A184475
:1020700000EB012080B220FA05F3608252F8233091
:102080009847637AA26A400010F47F4F14BF43F070
:10209000010303F0FE0310F0FF0114BF03F0FD0382
:1020A00043F00203608A21F07F0503F07F032B4396
:1020B000050A637252F825309847608A636AA579E9
:1020C000020A53F822309847737A284310F0FF0031
:1020D00014BF03F0FD0343F0020303F07F0320F07D
:1020E0007F021343A071637270BD00BF5875012059
:1020F00038B5124CE089636A020A411C042553F882
:102100002230A561E1819847E379626AA579126876
:102110001844C0B260829047637A284310F0FF00F1
:1021200014BF03F0FD0343F0020303F07F0320F02C
:102130007F021343A071637238BD00BF5875012040
:1021400070B5184CE089636A020A411C0625E181DA
:10215000A56153F822309847E379626A1844C0B207
:10216000136860829847637AA56A400010F47F4F35
:1021700014BF43F0010303F0FE0310F0FF0118BF8A
:1021800003F0FD03608A08BF43F0020321F07F02E1
:1021900003F07F031343020A637255F82230BDE84F
:1021A000704018475875012070B5234C224EE089C5
:1021B000636A020A411C0625E18153F82230A561B9
:1021C0009847E379626A1844C0B2136860829847FE
:1021D000637AA26A400010F47F4F14BF43F00103FA
:1021E00003F0FE0310F0FF0114BF03F0FD0343F002
:1021F0000203608A21F07F0503F07F032B43050A69
:10220000637252F825309847608A636AA579020A9A
:1022100053F822309847737A284310F0FF0014BF18
:1022200003F0FD0343F0020303F07F0320F07F027D
:102230001343A071637270BD58750120034B5A7A25
:10224000022122F0010299615A72704758750120EB
:1022500070B51B4CE089636A020A042153F82230EE
:10226000A1619847257A284485B2EB0502D5A36978
:102270000133A361E089636A114E0130020A53F809
:102280002230984705EB002080B2E389626A6082C1
:10229000010A023352F82120E381A5799047737A2D
:1022A000284310F0FF0014BF03F0FD0343F00203C6
:1022B00003F07F0320F07F021343A071637270BDAF
:1022C0005875012070B52A4C294EE089636A020ACC
:1022D0000721A16153F8223098470546E089636AD7
:1022E0000130020A53F822309847217AE389626A62
:1022F0000D4405EB002080B2010A0233E3816082C5
:1023000052F821309847637AA26A400010F47F4F58
:1023100014BF43F0010303F0FE0310F0FF0114BFEC
:1023200003F0FD0343F00203608A21F07F0503F010
:102330007F032B43050A637252F825309847608A61
:10234000636AA579020A53F822309847737A2843C2
:1023500010F0FF0014BF03F0FD0343F0020303F08D
:102360007F0320F07F021343A071637270BD00BF32
:1023700058750120014B04229A617047587501205D
:1023800070B51B4CE089636A020A042153F82230BD
:10239000A1619847E579284485B2EB0502D5A36988
:1023A0000133A361E089636A114E0130020A53F8D8
:1023B0002230984705EB002080B2E389626A608290
:1023C000010A023352F82120E381A5799047737AFC
:1023D000284310F0FF0014BF03F0FD0343F0020395
:1023E00003F07F0320F07F021343A071637270BD7E
:1023F0005875012070B51F4CE089636A020A0721F5
:10240000A16153F8223098470546E089636A01309C
:10241000020A53F822309847E179E389626A45EA73
:102420000020084480B2010A0233E381608252F83E
:1024300021309847637AA56A400010F47F4F14BF9B
:1024400043F0010303F0FE0310F0FF0118BF03F097
:10245000FD03608A08BF43F0020321F07F0203F00E
:102460007F031343020A637255F82230BDE87040BF
:10247000184700BF5875012070B52A4C294EE089D5
:10248000636A020A0721A16153F822309847054682
:10249000E089636A0130020A53F822309847E179F3
:1024A000E389626A45EA0020084480B2010A0233E7
:1024B000E381608252F821309847637AA26A400033
:1024C00010F47F4F14BF43F0010303F0FE0310F03C
:1024D000FF0114BF03F0FD0343F00203608A21F003
:1024E0007F0503F07F032B43050A637252F8253002
:1024F0009847608A636AA579020A53F822309847A0
:10250000737A284310F0FF0014BF03F0FD0343F07B
:10251000020303F07F0320F07F021343A071637274
:1025200070BD00BF5875012070B5134CE089636A17
:10253000020A0621A16153F8223098470546E08936
:10254000636A0130020A53F8223098476279E389BE
:10255000511E013345EA00209BB2A51854FA81F1BF
:102560001E0A023A80B285F84869627181F84839DA
:102570006082E08170BD00BF5875012038B5174CEE
:10258000E089636A020A411C062553F82230A561DE
:10259000E1819847E379626AA5791844C0B2431C87
:1025A00054FA83F3204493F8481890F8483843EAE3
:1025B0000120030A608252F823309847637A28404A
:1025C00014BF03F0FD0343F0020303F07F0320F088
:1025D0007F021343A071637238BD00BF587501209C
:1025E00070B52C4C2B4EE089636A020A0825411C09
:1025F00053F82230A561E1819847E379626A184473
:10260000C0B2431C54FA83F3204493F8481890F85E
:10261000483843EA012020FA05F3608252F823305B
:102620009847637A03F0010141EA400001B28AB29F
:1026300012F47F4F14BF43F0010303F0FE0312F0C6
:10264000FF0F14BF03F0FD0343F00203608AA26A88
:1026500021F07F0503F07F032B43050A637252F8D4
:102660002530C9B29847608A636AA579020A53F88F
:1026700022309847737A284014BF03F0FD0343F0DB
:10268000020303F07F0320F07F021343A071637203
:1026900070BD00BF5875012038B50F4CE089636AE2
:1026A000020A411C032553F82230A561E1819847B5
:1026B0002218637A92F84818A579608221F03F02C7
:1026C00003F03F03134329420CBF43F0020323F0FE
:1026D0000203637238BD00BF5875012038B50F4C36
:1026E000E089636A020A411C032553F82230A56180
:1026F000E1819847636A60821B68A5799847637A8D
:10270000284014BF03F0FD0343F0020303F07F03EE
:1027100020F07F021343A071637238BD5875012009
:1027200070B5174CE089636A020A0525411CA56152
:10273000E18153F8223098472218637A92F84818BA
:10274000608203F0010242EA41018AB2D5054CBF22
:1027500043F0010303F0FE0312F0FF0F14BF03F078
:10276000FD0343F0020321F07F0203F07F031343D4
:10277000A26A63721368C9B2BDE87040184700BF0F
:102780005875012070B5244C234EE089636A020A13
:10279000411C052553F82230E181A5619847636A01
:1027A00060821B689847637A03F0010141EA4000A8
:1027B00001B28AB212F47F4F14BF43F0010303F059
:1027C000FE0312F0FF0F14BF03F0FD0343F00203FA
:1027D000608AA26A21F07F0503F07F032B43050A7C
:1027E000637252F82530C9B29847608A636AA57946
:1027F000020A53F822309847737A284014BF03F036
:10280000FD0343F0020303F07F0320F07F02134334
:10281000A071637270BD00BF58750120074A5379DB
:102820000133DBB2D118042091F84819906121F0EE
:10283000300141F0200153715172704758750120E9
:1028400038B50E4CE089636A6082020A0225411C99
:1028500053F82230A561E181A5799847637A284031
:1028600014BF03F0FD0343F0020303F07F0320F0E5
:102870007F021343A071637238BD00BF58750120F9
:1028800010B4104A537A907903F0010141EA4001F3
:10289000022488B29461C4054CBF43F0010303F0E5
:1028A000FE0310F0FF0F14BF03F0FD0343F002031B
:1028B00003F07F0321F07F000343917153725DF8B1
:1028C000044B70475875012038B5114CE089636A94
:1028D0006082020A0225411C53F82230A561E18181
:1028E000A5799847637A284020F07F0203F07F03A0
:1028F000134350B103F0FD031A064CBF43F001032C
:1029000023F001036372A07138BD43F00203F3E7C3
:1029100058750120FFF7D8BF38B5164CE089636AB7
:10292000020A0421A16153F8223098470546E08944
:10293000636A0130020A53F82230984745EA0020C2
:1029400080B2E389626A6082010A0233E38152F84D
:1029500021309847637AA27903F03F0300F0C00169
:102960000B4310420CBF43F0020323F002036372D7
:1029700038BD00BF5875012038B5164CE089636A30
:10298000020A0421A16153F8223098470546E089E4
:10299000636A0130020A53F82230984745EA002062
:1029A00080B2E389626A6082010A0233E38152F8ED
:1029B0002130A5799847637A284014BF03F0FD03BE
:1029C00043F0020303F07F0320F07F021343A07162
:1029D000637238BD5875012070B5204CE089636A78
:1029E000020A0621A16153F8223098470546E08982
:1029F000636A0130020A53F82230984745EA002002
:102A0000E389626A80B2010A0233E381608252F88C
:102A100021309847637AA56A03F0010141EA40003A
:102A200001B28AB212F47F4F14BF43F0010303F0E6
:102A3000FE0312F0FF0F608A14BF03F0FD0343F0A2
:102A4000020321F07F0203F07F031343020A637243
:102A500055F82230C9B2BDE87040184758750120BA
:102A600070B52B4C2A4EE089636A020A0621A161E7
:102A700053F8223098470546E089636A0130020A1C
:102A800053F82230984745EA002080B2E389626A11
:102A90006082010A0233E38152F821309847637A59
:102AA00003F0010141EA400001B28AB212F47F4F03
:102AB00014BF43F0010303F0FE0312F0FF0F14BF35
:102AC00003F0FD0343F00203608AA26A21F07F0550
:102AD00003F07F032B43050A637252F82530C9B215
:102AE0009847608A636AA579020A53F822309847AA
:102AF000737A284014BF03F0FD0343F0020303F090
:102B00007F0320F07F021343A071637270BD00BF8A
:102B10005875012070B51B4CE089636A020A411C9C
:102B2000052553F82230A561E1819847431C54FAEA
:102B300083F3204493F8482890F84838207A03EB30
:102B400002239BB21844434013F0FF0F02D0A36945
:102B50000133A36180B2020A636A608253F82230B3
:102B6000A579084E9847737A284014BF03F0FD03F7
:102B700043F0020303F07F0320F07F021343A071B0
:102B8000637270BD5875012070B52C4C2B4EE089D6
:102B9000636A020A0825411C53F82230A561E181CD
:102BA0009847421C204454FA82F2237A90F848084D
:102BB00092F84818626A184400EB012080B220FAAB
:102BC00005F3608252F823309847637A03F00101DD
:102BD00041EA400001B28AB212F47F4F14BF43F0C1
:102BE000010303F0FE0312F0FF0F14BF03F0FD0317
:102BF00043F00203608AA26A21F07F0503F07F039D
:102C00002B43050A637252F82530C9B29847608A8F
:102C1000636AA579020A53F822309847737A2840EC
:102C200014BF03F0FD0343F0020303F07F0320F021
:102C30007F021343A071637270BD00BF58750120FD
:102C400038B5114CE089636A020A411C042553F827
:102C50002230A561E1819847E379626AA57912681B
:102C60001844C0B260829047637A284014BF03F0D2
:102C7000FD0343F0020303F07F0320F07F021343C0
:102C8000A071637238BD00BF5875012070B51B4C30
:102C9000E089636A020A411C0625E181A56153F8B7
:102CA00022309847E379626A1844C0B213686082A0
:102CB0009847637AA56A03F0010141EA400001B236
:102CC0008AB212F47F4F14BF43F0010303F0FE03F6
:102CD00012F0FF0F608A14BF03F0FD0343F00203FC
:102CE00021F07F0203F07F031343020A637255F859
:102CF0002230C9B2BDE87040184700BF58750120A6
:102D000070B5254C244EE089636A020A411C0625F1
:102D1000E18153F82230A5619847E379626A18444B
:102D2000C0B2136860829847637A03F0010141EAF8
:102D3000400001B28AB212F47F4F14BF43F0010386
:102D400003F0FE0312F0FF0F14BF03F0FD0343F086
:102D50000203608AA26A21F07F0503F07F032B4300
:102D6000050A637252F82530C9B29847608A636ACF
:102D7000A579020A53F822309847737A284014BF85
:102D800003F0FD0343F0020303F07F0320F07F0212
:102D90001343A071637270BD58750120034B5A7ABA
:102DA000022142F0010299615A7270475875012060
:102DB00070B51A4CE089636A020A042153F8223084
:102DC000A1619847257A284485B2EB0502D5A3690D
:102DD0000133A361E089636A104E0130020A53F89F
:102DE0002230984705EB002080B2E389626A608256
:102DF000010A023352F82120E381A5799047737AC2
:102E0000284014BF03F0FD0343F0020303F07F03E7
:102E100020F07F021343A071637270BD58750120CA
:102E200070B52C4C2B4EE089636A020A0721A16120
:102E300053F8223098470546E089636A0130020A58
:102E400053F822309847217AE389626A0D4405EBF2
:102E5000002080B2010A0233E381608252F82130FF
:102E60009847637A03F0010141EA400001B28AB257
:102E700012F47F4F14BF43F0010303F0FE0312F07E
:102E8000FF0F14BF03F0FD0343F00203608AA26A40
:102E900021F07F0503F07F032B43050A637252F88C
:102EA0002530C9B29847608A636AA579020A53F847
:102EB00022309847737A284014BF03F0FD0343F093
:102EC000020303F07F0320F07F021343A0716372BB
:102ED00070BD00BF5875012070B51A4CE089636A57
:102EE000020A042153F82230A1619847E579284469
:102EF00085B2EB0502D5A3690133A361E089636A5A
:102F0000104E0130020A53F82230984705EB00209A
:102F100080B2E389626A6082010A023352F821209A
:102F2000E381A5799047737A284014BF03F0FD032D
:102F300043F0020303F07F0320F07F021343A071EC
:102F4000637270BD5875012070B5214CE089636AC9
:102F5000020A0721A16153F8223098470546E0890B
:102F6000636A0130020A53F822309847E179E38915
:102F7000626A45EA0020084480B2010A0233E38114
:102F8000608252F821309847637AA56A03F0010104
:102F900041EA400001B28AB212F47F4F14BF43F0FD
:102FA000010303F0FE0312F0FF0F608A14BF03F069
:102FB000FD0343F0020321F07F0203F07F0313437C
:102FC000020A637255F82230C9B2BDE87040184752
:102FD0005875012070B52C4C2B4EE089636A020AAB
:102FE0000721A16153F8223098470546E089636ABA
:102FF0000130020A53F822309847E179E389626A86
:1030000045EA0020084480B2010A0233E38160826D
:1030100052F821309847637A03F0010141EA4000F9
:1030200001B28AB212F47F4F14BF43F0010303F0E0
:10303000FE0312F0FF0F14BF03F0FD0343F0020381
:10304000608AA26A21F07F0503F07F032B43050A03
:10305000637252F82530C9B29847608A636AA579CD
:10306000020A53F822309847737A284014BF03F0BD
:10307000FD0343F0020303F07F0320F07F021343BC
:10308000A071637270BD00BF5875012030B40D4B44
:1030900059794A1CD2B2941C501C53FA84F453FA46
:1030A00080F01A4494F8485990F8480992F8482951
:1030B0005A720331062440EA052259719C61DA8173
:1030C00030BC70475875012038B5184CE089636AE8
:1030D000020A411C062553F82230A561E181984778
:1030E000E379626AA5791844C0B2431C54FA83F3A9
:1030F000204493F8481890F8483843EA0120030A1E
:10310000608252F823309847637A684010F0FF00DD
:1031100014BF03F0FD0343F0020303F07F0320F02C
:103120007F021343A071637238BD00BF5875012040
:1031300070B5284CE089636A020A411C082553F8DF
:103140002230E181A5619847E379626A1844C0B2F0
:10315000431C54FA83F3204493F8481890F84838F5
:1031600043EA012020FA05F3608252F823309847A1
:10317000637AC2074FEA50014CBF43F0010303F0EA
:10318000FE0321B303F0FD03608AA26A114E050A13
:1031900003F07F03637252F82530C9B29847608A02
:1031A000636AA579020A53F822309847737A684017
:1031B00010F0FF0014BF03F0FD0343F0020303F01F
:1031C0007F0320F07F021343A071637270BD43F050
:1031D0000203D9E75875012038B50F4CE089636ABE
:1031E000020A411C032553F82230E181A56198476A
:1031F0002218A37992F8482860825340627AA3711A
:1032000014BF02F0FD0242F0020202F07F0223F03E
:103210007F010A43627238BD5875012070B5154CA4
:10322000E089636A020A411C052553F82230E181D6
:10323000A5619847636A60821B689847637AC207F2
:103240004FEA50014CBF43F0010303F0FE0369B99C
:1032500043F00203608AA26A03F07F03050A6372E7
:1032600052F82530C9B2BDE87040184703F0FD039D
:10327000F0E700BF5875012070B5204CE089636A03
:10328000020A411C052553F82230E181A5619847C7
:10329000636A60821B689847637AC2074FEA5001ED
:1032A0004CBF43F0010303F0FE0321B303F0FD0321
:1032B000608AA26A114E050A03F07F03637252F816
:1032C0002530C9B29847608A636AA579020A53F823
:1032D00022309847737A684010F0FF0014BF03F063
:1032E000FD0343F0020303F07F0320F07F0213434A
:1032F000A071637270BD43F00203D9E758750120D5
:1033000010B4064B5A7998799918013A03245A71E6
:1033100081F848099C615DF8044B7047587501209D
:1033200038B50F4CE089636A6082020A0225411CAD
:1033300053F82230A561E181A5799847637A684006
:1033400010F0FF0014BF03F0FD0343F0020303F08D
:103350007F0320F07F021343A071637238BD00BF6A
:10336000587501200F4A937913F0010F4FEA63015A
:10337000537A4FF00200906118BF43F00103C8B2C6
:1033800008BF03F0FE0331B943F0020303F07F03EB
:1033900053729071704703F0FD0303F07F03537283
:1033A000907170475875012038B5114CE089636AF7
:1033B0006082020A411C022553F82230A561E18196
:1033C000A5799847637A0A492840C2074CBF43F061
:1033D000010303F0FE0303F07F02400815BF03F072
:1033E0007D0342F002024B724A72A07138BD00BFE9
:1033F0005875012038B50B4CE089636A020A032135
:1034000053F82230A16198470546E089636A01308C
:10341000020A53F82230984745EA002080B26082C1
:10342000E08138BD5875012038B5174CE089636AD2
:10343000020A0421A16153F8223098470546E08929
:10344000636A0130020A53F82230984745EA0020A7
:1034500080B2E389626A6082010A0233E38152F832
:103460002130A5799847637A684010F0FF0014BFB7
:1034700003F0FD0343F0020303F07F0320F07F021B
:103480001343A071637238BD5875012070B51C4C90
:10349000E089636A020A0621A16153F82230984745
:1034A0000546E089636A0130020A53F822309847E2
:1034B00045EA002080B2E389626A6082010A023331
:1034C000E38152F821309847637AC2074FEA5001EE
:1034D0004CBF43F0010303F0FE0369B943F002035C
:1034E000608AA26A03F07F03050A637252F82530EE
:1034F000C9B2BDE87040184703F0FD03F0E700BF14
:103500005875012070B5274CE089636A020A0621CC
:10351000A16153F8223098470546E089636A01307B
:10352000020A53F82230984745EA002080B2E38926
:10353000626A6082010A0233E38152F821309847BF
:10354000637AC2074FEA50014CBF43F0010303F016
:10355000FE0321B303F0FD03608AA26A114E050A3F
:1035600003F07F03637252F82530C9B29847608A2E
:10357000636AA579020A53F822309847737A684043
:1035800010F0FF0014BF03F0FD0343F0020303F04B
:103590007F0320F07F021343A071637270BD43F07C
:1035A0000203D9E75875012070B51C4CE089636AA5
:1035B000020A411C052553F82230A561E181984794
:1035C000431C54FA83F3204493F8482890F8483871
:1035D000207A03EB02239BB21844434013F0FF0F01
:1035E00002D0A3690133A36180B2020A636A6082D8
:1035F00053F82230A579094E9847737A684010F045
:10360000FF0014BF03F0FD0343F0020303F07F0348
:1036100020F07F021343A071637270BD58750120C2
:1036200070B5284CE089636A020A411C082553F8EA
:103630002230E181A5619847421C204454FA82F26D
:10364000237A90F8480892F84818626A184400EB08
:10365000012080B220FA05F3608252F823309847A7
:10366000637AC2074FEA50014CBF43F0010303F0F5
:10367000FE0321B303F0FD03608AA26A114E050A1E
:1036800003F07F03637252F82530C9B29847608A0D
:10369000636AA579020A53F822309847737A684022
:1036A00010F0FF0014BF03F0FD0343F0020303F02A
:1036B0007F0320F07F021343A071637270BD43F05B
:1036C0000203D9E75875012038B5124CE089636AC6
:1036D000020A411C042553F82230A561E181984774
:1036E000E379626AA57912681844C0B26082904793
:1036F000637A684010F0FF0014BF03F0FD0343F04D
:10370000020303F07F0320F07F021343A071637272
:1037100038BD00BF5875012070B5164CE089636A4A
:10372000020A411C0625E18153F82230A561984721
:10373000E379626A1844C0B2136860829847637A7A
:10374000C2074FEA50014CBF43F0010303F0FE03F0
:1037500069B943F00203608AA26A03F07F03050A95
:10376000637252F82530C9B2BDE87040184703F0C3
:10377000FD03F0E75875012070B5224CE089636ABB
:10378000020A411C0625E18153F82230A5619847C1
:10379000E379626A1844C0B2136860829847637A1A
:1037A000C2074FEA50014CBF43F0010303F0FE0390
:1037B00021B303F0FD03608AA26A124E050A03F0EA
:1037C0007F03637252F82530C9B29847608A636AF2
:1037D000A579020A53F822309847737A684010F0AE
:1037E000FF0014BF03F0FD0343F0020303F07F0367
:1037F00020F07F021343A071637270BD43F0020397
:10380000D9E700BF58750120034B5A7A022122F0F4
:10381000040299615A7270475875012070B51B4CAB
:10382000E089636A020A042153F82230A1619847B3
:10383000257A284485B2EB0502D5A3690133A3613B
:10384000E089636A114E0130020A53F8223098472A
:1038500005EB002080B2E389626A6082010A0233CC
:1038600052F82120E381A5799047737A684010F0DF
:10387000FF0014BF03F0FD0343F0020303F07F03D6
:1038800020F07F021343A071637270BD5875012050
:1038900070B5284CE089636A020A0721A16153F8D8
:1038A000223098470546E089636A0130020A53F8DE
:1038B00022309847217AE389626A0D4405EB0020A3
:1038C00080B2010A0233E381608252F821309847C6
:1038D000637AC2074FEA50014CBF43F0010303F083
:1038E000FE0321B303F0FD03608AA26A114E050AAC
:1038F00003F07F03637252F82530C9B29847608A9B
:10390000636AA579020A53F822309847737A6840AF
:1039100010F0FF0014BF03F0FD0343F0020303F0B7
:103920007F0320F07F021343A071637270BD43F0E8
:103930000203D9E75875012070B51B4CE089636A12
:10394000020A042153F82230A1619847E5792844FE
:1039500085B2EB0502D5A3690133A361E089636AEF
:10396000114E0130020A53F82230984705EB00202F
:1039700080B2E389626A6082010A023352F8212030
:10398000E381A5799047737A684010F0FF0014BF77
:1039900003F0FD0343F0020303F07F0320F07F02F6
:1039A0001343A071637270BD5875012070B51D4C32
:1039B000E089636A020A0721A16153F8223098471F
:1039C0000546E089636A0130020A53F822309847BD
:1039D000E179E389626A45EA0020084480B2010A7D
:1039E0000233E381608252F821309847637AC2073C
:1039F0004FEA50014CBF43F0010303F0FE0369B9E5
:103A000043F00203608AA26A03F07F03050A63722F
:103A100052F82530C9B2BDE87040184703F0FD03E5
:103A2000F0E700BF5875012070B5284CE089636A43
:103A3000020A0721A16153F8223098470546E08920
:103A4000636A0130020A53F822309847E179E3892A
:103A5000626A45EA0020084480B2010A0233E38129
:103A6000608252F821309847637AC2074FEA5001CA
:103A70004CBF43F0010303F0FE0321B303F0FD0349
:103A8000608AA26A114E050A03F07F03637252F83E
:103A90002530C9B29847608A636AA579020A53F84B
:103AA00022309847737A684010F0FF0014BF03F08B
:103AB000FD0343F0020303F07F0320F07F02134372
:103AC000A071637270BD43F00203D9E758750120FD
:103AD000094B5A79911C013253FA81F053FA82F260
:103AE00090F8480992F84829597142EA00220621C3
:103AF00001329961DA81704758750120F8B5444C5C
:103B0000E089636A020A411C062553F82230E181EC
:103B1000A5619847E379626A1844C0B2431C54FA1D
:103B200083F3204493F8481890F8483843EA01207A
:103B3000030A608252F823309847627AA679130705
:103B400037D502F0010106F00F0500F00F030D4418
:103B50001D44092D06F0F0034DD800F0F0073B445A
:103B60002B443144014411F0FF0F0CBF42F002021C
:103B700002F0FD02DDB225F07F0186EA030702F0C4
:103B80007F020A4339460F0602D5704006063CD52F
:103B900002F0BF0203F4F871902984BF6033DDB2F4
:103BA00003F47F63F02B1BD942F001026272A5710E
:103BB000F8BD02F001033344034413F0FF0502F0A3
:103BC0007D0218BF25F07F0180EA06000CBF42F09D
:103BD00002020A43000608D502F0BF02FF2BE3D819
:103BE00022F001026272A571F8BD5E403106F3D584
:103BF00042F04002F2E703F11007063500F0F0034F
:103C000005F00F053B442B44ABE742F04002C1E70F
:103C100058750120F8B5584CE089636A020A411CC6
:103C2000082553F82230E181A5619847E379626A5B
:103C30001844C0B2431C54FA83F3204493F8481844
:103C400090F8483843EA012020FA05F3608252F8E0
:103C500023309847637AD901C9B241EA5001C207BB
:103C600089B24CBF43F0010303F0FE03002951D099
:103C700003F0FD03608AA26A3F4E21F07F0503F046
:103C80007F032B43050A637252F82530C9B2984767
:103C9000608A636A020A53F822309847627AB679DA
:103CA00013073AD502F0010106F00F0500F00F03EB
:103CB0000D441D44092D06F0F00350D800F0F00724
:103CC0003B442B443144014411F0FF0F0CBF42F040
:103CD000020202F0FD02DDB225F07F0186EA030751
:103CE00002F07F020A4339460F0602D570400606ED
:103CF0003FD502F0BF0203F4F871902984BF60330E
:103D0000DDB203F47F63F02B1ED942F00102627230
:103D1000A571F8BD43F00203ACE702F001033344A0
:103D2000034413F0FF0502F07D0218BF25F07F0168
:103D300080EA06000CBF42F002020A43000608D5E2
:103D400002F0BF02FF2BE0D822F001026272A571DF
:103D5000F8BD5E403106F3D542F04002F2E703F1D0
:103D60001007063500F0F00305F00F053B442B4427
:103D7000A8E742F04002BEE75875012038B5064C6E
:103D8000E089636A020A411C0325A561E18153F8B9
:103D900022309847608238BD58750120FFF7EEBF8A
:103DA000FFF7ECBFF8B53D4CE089636A020A0325D2
:103DB000411C53F82230A561E1819847627A608204
:103DC0002318A67993F84858130737D502F0010154
:103DD00006F00F0005F00F0308441844092806F008
:103DE000F0034DD805F0F0073B4403443144294427
:103DF00011F0FF0F0CBF42F0020202F0FD02D8B238
:103E000020F07F0186EA030702F07F020A43394669
:103E10000F0602D575402E063CD502F0BF0203F412
:103E2000F871902984BF6033D8B203F47F63F02B1C
:103E30001BD942F001026272A071F8BD02F00103C9
:103E400033442B4413F0FF0002F07D0218BF20F032
:103E50007F0185EA06050CBF42F002020A432D06E7
:103E600008D502F0BF02FF2BE3D822F001026272F4
:103E7000A071F8BD5E403106F3D542F04002F2E792
:103E800003F11007063005F0F00300F00F003B448B
:103E90000344ABE742F04002C1E700BF5875012080
:103EA00070B5154CE089636A020A411C052553F878
:103EB0002230E181A5619847637A60822218D90196
:103EC00092F84828C9B241EA5201D2074CBF43F0E8
:103ED000010303F0FE0361B943F0020321F07F0206
:103EE00003F07F031343A26A63721368BDE8704056
:103EF000184703F0FD03F1E758750120F8B5504C61
:103F0000E089636A020A411C052553F82230E181E9
:103F1000A5619847636A60821B689847637AD901F4
:103F2000C9B241EA5001C20789B24CBF43F0010354
:103F300003F0FE03002951D003F0FD03608AA26A5A
:103F40003F4E21F07F0503F07F032B43050A637288
:103F500052F82530C9B29847608A636A020A53F85A
:103F600022309847627AB67913073AD502F00101F8
:103F700006F00F0500F00F030D441D44092D06F057
:103F8000F00350D800F0F0073B442B443144014487
:103F900011F0FF0F0CBF42F0020202F0FD02DDB291
:103FA00025F07F0186EA030702F07F020A433946C3
:103FB0000F0602D5704006063FD502F0BF0203F49B
:103FC000F871902984BF6033DDB203F47F63F02B76
:103FD0001ED942F001026272A571F8BD43F00203DE
:103FE000ACE702F001033344034413F0FF0502F091
:103FF0007D0218BF25F07F0180EA06000CBF42F069
:1040000002020A43000608D502F0BF02FF2BE0D8E7
:1040100022F001026272A571F8BD5E403106F3D54F
:1040200042F04002F2E703F11007063500F0F0031A
:1040300005F00F053B442B44A8E742F04002BEE7E1
:10404000587501200C4B59790131C9B25A18042016
:1040500092F84829597198619A71597A42B941F098
:10406000020101F07F0122F07F020A435A72704779
:1040700001F0FD01F5E700BF58750120F8B53B4C94
:10408000E089636A6082020A411C022553F82230EB
:10409000A561E1819847627AA679130737D502F0C6
:1040A000010106F00F0500F00F030D441D44092D1A
:1040B00006F0F0034DD800F0F0073B442B443144A8
:1040C000014411F0FF0F0CBF42F0020202F0FD02AA
:1040D000DDB225F07F0186EA030702F07F020A4382
:1040E00039460F0602D5704006063CD502F0BF02E5
:1040F00003F4F871902984BF6033DDB203F47F6369
:10410000F02B1BD942F001026272A571F8BD02F0DA
:1041100001033344034413F0FF0502F07D0218BF8E
:1041200025F07F0180EA06000CBF42F002020A433C
:10413000000608D502F0BF02FF2BE3D822F00102EF
:104140006272A571F8BD5E403106F3D542F04002BF
:10415000F2E703F11007063500F0F00305F00F0554
:104160003B442B44ABE742F04002C1E758750120C5
:1041700010B40F494B7A8879DA01D2B2022442EAAC
:104180005002C0078C614CBF43F0010303F0FE03F3
:104190005AB943F0020303F07F0322F07F00034388
:1041A0008A714B725DF8044B704703F0FD03F2E730
:1041B0005875012038B5394CE089636A6082020A7B
:1041C000411C022553F82230A561E181A579984769
:1041D000637ADA01190700EA0500D2B218D442EA7C
:1041E0005000C1B203F07F0321F07F021343002887
:1041F00046D143F0020303F0FE0380EA400040068C
:104200004CBF43F0400323F040036372A17138BDFB
:10421000D90742EA50054CBF43F0800303F07F0307
:104220005DBB43F0020380EA0502520600F0010183
:1042300000F00F020A444CBF43F0400303F0BF03F9
:10424000052A06D9A91D01F00F0105F0F00242EA86
:10425000010500F0F00200F010001044502817D9BA
:1042600005F1600101F0F00105F00F0243F00103D8
:1042700042EA01056372A57138BD03F0FD03D2E780
:1042800003F0FD03450648BF43F00103B5D4B2E790
:1042900023F001036372A57138BD00BF587501207A
:1042A000F8B5164DE8896B6A020A0521A96153F831
:1042B000223098470646E8896B6A0130020A53F8B3
:1042C0002230984746EA002006B2B4B2220A6B6A4E
:1042D000204653F82230984701340746E4B206F4EA
:1042E0007F402043020A6B6A53F82230984747EA1E
:1042F000002080B26882E881F8BD00BF58750120B7
:10430000F8B5444CE089636A020A0421A16153F8BC
:10431000223098470546E089636A0130020A53F863
:104320002230984745EA002080B2E389626A6082C1
:10433000010A0233E38152F821309847627AA67964
:10434000130737D502F0010106F00F0500F00F0347
:104350000D441D44092D06F0F0034DD800F0F00780
:104360003B442B443144014411F0FF0F0CBF42F099
:10437000020202F0FD02DDB225F07F0186EA0307AA
:1043800002F07F020A4339460F0602D57040060646
:104390003CD502F0BF0203F4F871902984BF60336A
:1043A000DDB203F47F63F02B1BD942F0010262728D
:1043B000A571F8BD02F001033344034413F0FF0577
:1043C00002F07D0218BF25F07F0180EA06000CBFD5
:1043D00042F002020A43000608D502F0BF02FF2B9A
:1043E000E3D822F001026272A571F8BD5E40310689
:1043F000F3D542F04002F2E703F11007063500F072
:10440000F00305F00F053B442B44ABE742F04002BC
:10441000C1E700BF5875012070B51F4CE089636A81
:10442000020A0621A16153F8223098470546E08927
:10443000636A0130020A53F82230984745EA0020A7
:1044400080B2E389626A6082010A0233E38152F832
:1044500021309847637AD901C9B241EA5001C207B5
:1044600089B24CBF43F0010303F0FE0381B943F06E
:104470000203608AA56A21F07F0203F07F031343E1
:10448000020A637255F82230C9B2BDE8704018477D
:1044900003F0FD03EDE700BF58750120F8B5574C58
:1044A000E089636A020A0621A16153F82230984725
:1044B0000546E089636A0130020A53F822309847C2
:1044C00045EA002080B2E389626A6082010A023311
:1044D000E38152F821309847637AD901C9B241EAA1
:1044E0005001C20789B24CBF43F0010303F0FE0341
:1044F000002951D003F0FD03608AA26A3F4E21F0EB
:104500007F0503F07F032B43050A637252F82530C1
:10451000C9B29847608A636A020A53F82230984702
:10452000627AB67913073AD502F0010106F00F0559
:1045300000F00F030D441D44092D06F0F00350D880
:1045400000F0F0073B442B443144014411F0FF0FCD
:104550000CBF42F0020202F0FD02DDB225F07F0145
:1045600086EA030702F07F020A4339460F0602D5A6
:10457000704006063FD502F0BF0203F4F87190299F
:1045800084BF6033DDB203F47F63F02B1ED942F0A9
:1045900001026272A571F8BD43F00203ACE702F0BC
:1045A00001033344034413F0FF0502F07D0218BFFA
:1045B00025F07F0180EA06000CBF42F002020A43A8
:1045C000000608D502F0BF02FF2BE0D822F001025E
:1045D0006272A571F8BD5E403106F3D542F040022B
:1045E000F2E703F11007063500F0F00305F00F05C0
:1045F0003B442B44A8E742F04002BEE75875012037
:10460000F8B5494CE089636A020A411C052553F854
:104610002230A561E1819847431C54FA83F320447A
:1046200093F8482890F84838207A03EB02239BB28D
:104630001844434013F0FF0F02D0A3690133A36174
:1046400080B2020A636A608253F82230364D98477E
:10465000627AAE79130737D502F0010106F00F0533
:1046600000F00F030D441D44092D06F0F0034DD852
:1046700000F0F0073B442B443144014411F0FF0F9C
:104680000CBF42F0020202F0FD02DDB225F07F0114
:1046900086EA030702F07F020A4339460F0602D575
:1046A000704006063CD502F0BF0203F4F871902971
:1046B00084BF6033DDB203F47F63F02B1BD942F07B
:1046C00001026272A571F8BD02F001033344034494
:1046D00013F0FF0502F07D0218BF25F07F0180EA8C
:1046E00006000CBF42F002020A43000608D502F0A1
:1046F000BF02FF2BE3D822F001026272A571F8BD60
:104700005E403106F3D542F04002F2E703F11007B4
:10471000063500F0F00305F00F053B442B44ABE7F2
:1047200042F04002C1E700BF58750120F8B5584C6F
:10473000E089636A020A411C082553F82230E181AE
:10474000A56198472318013054FA80F293F848087D
:10475000237A92F84818626A184400EB012080B26C
:1047600020FA05F3608252F823309847637AD90122
:10477000C9B241EA5001C20789B24CBF43F00103FC
:1047800003F0FE03002951D003F0FD03608AA26A02
:104790003F4E21F07F0503F07F032B43050A637230
:1047A00052F82530C9B29847608A636A020A53F802
:1047B00022309847627AB67913073AD502F00101A0
:1047C00006F00F0500F00F030D441D44092D06F0FF
:1047D000F00350D800F0F0073B442B44314401442F
:1047E00011F0FF0F0CBF42F0020202F0FD02DDB239
:1047F00025F07F0186EA030702F07F020A4339466B
:104800000F0602D5704006063FD502F0BF0203F442
:10481000F871902984BF6033DDB203F47F63F02B1D
:104820001ED942F001026272A571F8BD43F0020385
:10483000ACE702F001033344034413F0FF0502F038
:104840007D0218BF25F07F0180EA06000CBF42F010
:1048500002020A43000608D502F0BF02FF2BE0D88F
:1048600022F001026272A571F8BD5E403106F3D5F7
:1048700042F04002F2E703F11007063500F0F003C2
:1048800005F00F053B442B44A8E742F04002BEE789
:1048900058750120F8B53E4CE089636A020A411C54
:1048A000042553F82230E181A5619847E379626AD3
:1048B0001844C0B2136860829847627AA6791307D9
:1048C00037D502F0010106F00F0500F00F030D448B
:1048D0001D44092D06F0F0034DD800F0F0073B44CD
:1048E0002B443144014411F0FF0F0CBF42F002028F
:1048F00002F0FD02DDB225F07F0186EA030702F037
:104900007F020A4339460F0602D5704006063CD5A1
:1049100002F0BF0203F4F871902984BF6033DDB266
:1049200003F47F63F02B1BD942F001026272A57180
:10493000F8BD02F001033344034413F0FF0502F015
:104940007D0218BF25F07F0180EA06000CBF42F00F
:1049500002020A43000608D502F0BF02FF2BE3D88B
:1049600022F001026272A571F8BD5E403106F3D5F6
:1049700042F04002F2E703F11007063500F0F003C1
:1049800005F00F053B442B44ABE742F04002C1E782
:104990005875012070B5194CE089636A020A411C00
:1049A0000625E18153F82230A5619847E379626AD0
:1049B0001844C0B2136860829847637AD901C9B2BB
:1049C00041EA5001C20789B24CBF43F0010303F032
:1049D000FE0381B943F00203608AA56A21F07F02D9
:1049E00003F07F031343020A637255F82230C9B201
:1049F000BDE87040184703F0FD03EDE7587501204E
:104A0000F8B5524CE089636A020A411C0625E1812F
:104A100053F82230A5619847E379626A1844C0B21E
:104A2000136860829847637AD901C9B241EA50019C
:104A3000C20789B24CBF43F0010303F0FE03002913
:104A400051D003F0FD03608AA26A404E21F07F0539
:104A500003F07F032B43050A637252F82530C9B275
:104A60009847608A636A020A53F822309847627A4C
:104A7000B67913073AD502F0010106F00F0500F0F0
:104A80000F030D441D44092D06F0F00350D800F02B
:104A9000F0073B442B443144014411F0FF0F0CBF9D
:104AA00042F0020202F0FD02DDB225F07F0186EA4B
:104AB000030702F07F020A4339460F0602D5704011
:104AC00006063FD502F0BF0203F4F871902984BFB7
:104AD0006033DDB203F47F63F02B1ED942F0010294
:104AE0006272A571F8BD43F00203ACE702F0010366
:104AF0003344034413F0FF0502F07D0218BF25F094
:104B00007F0180EA06000CBF42F002020A43000661
:104B100008D502F0BF02FF2BE0D822F0010262723A
:104B2000A571F8BD5E403106F3D542F04002F2E7D0
:104B300003F11007063500F0F00305F00F053B44C4
:104B40002B44A8E742F04002BEE700BF58750120A1
:104B5000034B5A7A022142F0040299615A7270475B
:104B600058750120F8B5484CE089636A020A0421AF
:104B700053F82230A1619847257A284485B2EA0586
:104B800002D5A3690133A361E089636A3E4E013017
:104B9000020A53F82230984705EB002080B2E389DF
:104BA000626A6082010A023352F82120E381904751
:104BB000627AB679130737D502F0010106F00F05C6
:104BC00000F00F030D441D44092D06F0F0034DD8ED
:104BD00000F0F0073B442B443144014411F0FF0F37
:104BE0000CBF42F0020202F0FD02DDB225F07F01AF
:104BF00086EA030702F07F020A4339460F0602D510
:104C0000704006063CD502F0BF0203F4F87190290B
:104C100084BF6033DDB203F47F63F02B1BD942F015
:104C200001026272A571F8BD02F00103334403442E
:104C300013F0FF0502F07D0218BF25F07F0180EA26
:104C400006000CBF42F002020A43000608D502F03B
:104C5000BF02FF2BE3D822F001026272A571F8BDFA
:104C60005E403106F3D542F04002F2E703F110074F
:104C7000063500F0F00305F00F053B442B44ABE78D
:104C800042F04002C1E700BF58750120F8B5584C0A
:104C9000E089636A020A0721A16153F8223098472C
:104CA0000546E089636A0130020A53F822309847CA
:104CB000217AE389626A0D4405EB002080B2010A83
:104CC0000233E381608252F821309847637AD90138
:104CD000C9B241EA5001C20789B24CBF43F0010397
:104CE00003F0FE03002951D003F0FD03608AA26A9D
:104CF0003F4E21F07F0503F07F032B43050A6372CB
:104D000052F82530C9B29847608A636A020A53F89C
:104D100022309847627AB67913073AD502F001013A
:104D200006F00F0500F00F030D441D44092D06F099
:104D3000F00350D800F0F0073B442B4431440144C9
:104D400011F0FF0F0CBF42F0020202F0FD02DDB2D3
:104D500025F07F0186EA030702F07F020A43394605
:104D60000F0602D5704006063FD502F0BF0203F4DD
:104D7000F871902984BF6033DDB203F47F63F02BB8
:104D80001ED942F001026272A571F8BD43F0020320
:104D9000ACE702F001033344034413F0FF0502F0D3
:104DA0007D0218BF25F07F0180EA06000CBF42F0AB
:104DB00002020A43000608D502F0BF02FF2BE0D82A
:104DC00022F001026272A571F8BD5E403106F3D592
:104DD00042F04002F2E703F11007063500F0F0035D
:104DE00005F00F053B442B44A8E742F04002BEE724
:104DF00058750120F8B5484CE089636A020A04211D
:104E000053F82230A1619847E579284485B2EA0534
:104E100002D5A3690133A361E089636A3E4E013084
:104E2000020A53F82230984705EB002080B2E3894C
:104E3000626A6082010A023352F82120E3819047BE
:104E4000627AB679130737D502F0010106F00F0533
:104E500000F00F030D441D44092D06F0F0034DD85A
:104E600000F0F0073B442B443144014411F0FF0FA4
:104E70000CBF42F0020202F0FD02DDB225F07F011C
:104E800086EA030702F07F020A4339460F0602D57D
:104E9000704006063CD502F0BF0203F4F871902979
:104EA00084BF6033DDB203F47F63F02B1BD942F083
:104EB00001026272A571F8BD02F00103334403449C
:104EC00013F0FF0502F07D0218BF25F07F0180EA94
:104ED00006000CBF42F002020A43000608D502F0A9
:104EE000BF02FF2BE3D822F001026272A571F8BD68
:104EF0005E403106F3D542F04002F2E703F11007BD
:104F0000063500F0F00305F00F053B442B44ABE7FA
:104F100042F04002C1E700BF5875012070B5204C37
:104F2000E089636A020A0721A16153F82230984799
:104F30000546E089636A0130020A53F82230984737
:104F4000E179E389626A45EA0020084480B2010AF7
:104F50000233E381608252F821309847637AD901A5
:104F6000C9B241EA5001C20789B24CBF43F0010304
:104F700003F0FE0381B943F00203608AA56A21F0C1
:104F80007F0203F07F031343020A637255F8223055
:104F9000C9B2BDE87040184703F0FD03EDE700BF5C
:104FA00058750120F8B5584CE089636A020A072158
:104FB000A16153F8223098470546E089636A0130C1
:104FC000020A53F822309847E179E389626A45EA98
:104FD0000020084480B2010A0233E381608252F863
:104FE00021309847637AD901C9B241EA5001C2071A
:104FF00089B24CBF43F0010303F0FE03002951D0F6
:1050000003F0FD03608AA26A3F4E21F07F0503F0A2
:105010007F032B43050A637252F82530C9B29847C3
:10502000608A636A020A53F822309847627AB67936
:1050300013073AD502F0010106F00F0500F00F0347
:105040000D441D44092D06F0F00350D800F0F00780
:105050003B442B443144014411F0FF0F0CBF42F09C
:10506000020202F0FD02DDB225F07F0186EA0307AD
:1050700002F07F020A4339460F0602D57040060649
:105080003FD502F0BF0203F4F871902984BF60336A
:10509000DDB203F47F63F02B1ED942F0010262728D
:1050A000A571F8BD43F00203ACE702F001033344FD
:1050B000034413F0FF0502F07D0218BF25F07F01C5
:1050C00080EA06000CBF42F002020A43000608D53F
:1050D00002F0BF02FF2BE0D822F001026272A5713C
:1050E000F8BD5E403106F3D542F04002F2E703F12D
:1050F0001007063500F0F00305F00F053B442B4484
:10510000A8E742F04002BEE75875012070B5104C88
:10511000E089636A020A411C0625A561E18153F812
:1051200022309847E379A26AA1791844C0B2431C9F
:1051300054FA83F3204493F8485890F8483843EAE7
:105140000520030A608252F82330BDE870401847FA
:105150005875012070B5184CE089636A020A411C39
:105160000625A561E18153F822309847E379A26AC8
:10517000A1791844C0B2431C54FA83F3204493F835
:10518000485890F8483843EA0520030A608252F8EC
:1051900023309847608AA36AE179020A53F82230E3
:1051A0009847608AA36AA179E279040A114053F80A
:1051B0002430BDE8704018475875012070B5094C7F
:1051C000E089636A020A411C0325E181A56153F865
:1051D00022309847A36A6082217A1B68BDE870403C
:1051E000184700BF5875012070B5094CE089636A03
:1051F000020A411C0325E181A56153F8223098473A
:10520000A36A6082A1791B68BDE87040184700BF9F
:105210005875012070B5094CE089636A020A411C87
:105220000325E181A56153F822309847A36A608283
:10523000E1791B68BDE87040184700BF5875012030
:1052400070B5114CE089636A020A411C032553F8CA
:105250002230A561E1819847A36A6082A1791B6829
:105260009847608AA36AE179020A53F82230984786
:10527000608AA36AA179E279040A114053F82430C4
:10528000BDE87040184700BF587501200A4A137ADC
:10529000013B0221DBB291611372517A43B941F0B3
:1052A000020101F07F0123F07F030B43537270472B
:1052B00001F0FD01F5E700BF58750120094AD379D7
:1052C000937102219161517A43B941F0020101F0D9
:1052D0007F0123F07F030B435372704701F0FD0100
:1052E000F5E700BF58750120F8B5114CE089626AF6
:1052F000A579E3796082010A461C022752F8212031
:10530000A761E68165F011051D409047637A28404A
:1053100020F07F0203F07F03134320B943F0020320
:105320006372A071F8BD23F002036372A071F8BD2F
:105330005875012070B5104CE089636A020A042197
:10534000A16153F8223098470546E089636A01302D
:10535000020A53F82230984745EA0020E389A26AFE
:1053600080B2010A0233E381608252F82130217A4F
:10537000BDE87040184700BF5875012070B5104C4B
:10538000E089636A020A0421A16153F82230984738
:105390000546E089636A0130020A53F822309847D3
:1053A00045EA0020E389A26A80B2010A0233E38160
:1053B000608252F82130A179BDE87040184700BFE3
:1053C0005875012070B5104CE089636A020A042107
:1053D000A16153F8223098470546E089636A01309D
:1053E000020A53F82230984745EA0020E389A26A6E
:1053F00080B2010A0233E381608252F82130E17900
:10540000BDE87040184700BF5875012070B5184CB2
:10541000E089636A020A0421A16153F822309847A7
:105420000546E089636A0130020A53F82230984742
:1054300045EA002080B2E389A26A6082010A023351
:10544000E38152F82130A1799847608AA36AE17913
:10545000020A53F822309847608AA36AA179E27958
:10546000040A114053F82430BDE87040184700BFCB
:105470005875012070B5104CE089636A020A411C1E
:105480000625A561E18153F822309847421C20444B
:1054900054FA82F2237A90F8480892F84858A26A9F
:1054A000A179184400EB052080B2030A608252F80B
:1054B0002330BDE8704018475875012070B50A4C7C
:1054C000E089636A020A411C0425E18153F8223015
:1054D000A5619847E379A26A217A12681844C0B29C
:1054E0006082BDE8704010475875012070B50A4CC5
:1054F000E089636A020A411C0425E18153F82230E5
:10550000A5619847E379A26AA17912681844C0B2EC
:105510006082BDE8704010475875012070B50A4C94
:10552000E089636A020A411C0425E18153F82230B4
:10553000A5619847237AA26AE17912681844C0B23B
:105540006082BDE8704010475875012070B5124C5C
:10555000E089636A020A411C0425A561E18153F8D0
:1055600022309847237AA26AA17912681844C0B2FF
:1055700060829047608AA36AE179020A53F8223078
:105580009847608AA36AA179E279040A114053F826
:105590002430BDE87040184758750120094A137A35
:1055A000937102219161517A43B941F0020101F0F6
:1055B0007F0123F07F030B435372704701F0FD011D
:1055C000F5E700BF5875012070B5114CE089636A9A
:1055D000020A0521A16153F8223098470546E08967
:1055E000636A0130020A53F822309847267AE38929
:1055F000A26AA179354405EB002080B2050A023386
:10560000E381608252F82530BDE87040184700BF42
:1056100058750120024B0221DA7999615A7170475D
:105620005875012070B5114CE089636A020A0521A2
:10563000A16153F8223098470546E089636A01303A
:10564000020A53F822309847E679E389A26AA179E1
:1056500045EA0020304480B2050A0233E3816082CB
:1056600052F82530BDE87040184700BF587501203A
:1056700038B50D4CE089636A020A052153F82230DF
:10568000A16198470546E089636A0130020A53F830
:1056900022309847E389E27945EA0020104402333A
:1056A0006082E38138BD00BF5875012038B50D4CCC
:1056B000E089636A6082020A411C022553F82230A5
:1056C000A561E1819847637A207240B943F00203F3
:1056D00003F07F0320F07F001843607238BD03F0B1
:1056E000FD03F5E75875012038B5164CE089636A6B
:1056F000020A411C062553F82230E181A561984732
:10570000E379626A1844C0B2431C54FA83F320441C
:1057100093F8481890F8483843EA0120030A608259
:1057200052F823309847637AA07140B943F00203DE
:1057300003F07F0320F07F001843607238BD03F050
:10574000FD03F5E75875012038B50D4CE089636A13
:105750006082020A411C022553F82230A561E181D2
:105760009847637AE07140B943F0020303F07F0386
:1057700020F07F001843607238BD03F0FD03F5E7A9
:105780005875012038B5214CE089636A020A411C32
:10579000062553F82230E181A5619847E379626AD2
:1057A0001844C0B2431C54FA83F3204493F84818B9
:1057B00090F8483843EA0120030A608252F8233007
:1057C0009847627AA0710346D0B102F0FD02608A68
:1057D000616A0E4D02F07F0223F07F031343020A39
:1057E000637251F8223098476B7AE07158B943F0F0
:1057F000020303F07F0320F07F001843607238BD7E
:1058000042F00202E3E703F0FD03F2E758750120DE
:1058100038B50F4CE089636A020A411C032553F82E
:105820002230A561E18198472318608293F84838B7
:105830002372627A43B942F0020202F07F0223F03F
:105840007F031343637238BD02F0FD02F5E700BF2A
:105850005875012038B50F4CE089636A020A411C73
:10586000032553F82230A561E1819847231860820F
:1058700093F84838A371627A43B942F0020202F009
:105880007F0223F07F031343637238BD02F0FD02F1
:10589000F5E700BF5875012038B50F4CE089636A01
:1058A000020A411C032553F82230E181A561984783
:1058B000636A60821B689847637AE07140B943F07D
:1058C000020303F07F0320F07F001843607238BDAD
:1058D00003F0FD03F5E700BF5875012038B51A4CF9
:1058E000E089636A020A411C032553F82230E181F2
:1058F000A5619847636A60821B689847627AA071C5
:105900000346D0B102F0FD02608A616A0E4D02F0DA
:105910007F0223F07F031343020A637251F822309F
:1059200098476B7AE07158B943F0020303F07F03A4
:1059300020F07F001843607238BD42F00202E3E7B6
:1059400003F0FD03F2E700BF58750120094A93797F
:10595000137202219161517A43B941F0020101F0C1
:105960007F0123F07F030B435372704701F0FD0169
:10597000F5E700BF5875012038B50D4CE089636A22
:105980006082020A411C022553F82230A561E181A0
:105990009847637AA07140B943F0020303F07F0394
:1059A00020F07F001843607238BD03F0FD03F5E777
:1059B00058750120094A9379D37102219161517A76
:1059C00043B941F0020101F07F0123F07F030B4353
:1059D0005372704701F0FD01F5E700BF58750120D3
:1059E00070B5114CE089636A6082020A411C02268C
:1059F00053F82230A661E181A579984745F0EE057C
:105A0000637A284020F07F0203F07F03134328B914
:105A100043F002036372E071A07170BD23F00203D2
:105A20006372E071A07170BD5875012038B5164CD5
:105A3000E089636A020A0421A16153F82230984781
:105A40000546E089636A0130020A53F8223098471C
:105A500045EA002080B2E389626A6082010A02336B
:105A6000E38152F821309847637A207240B943F0BD
:105A7000020303F07F0320F07F001843607238BDFB
:105A800003F0FD03F5E700BF5875012038B5164C4B
:105A9000E089636A020A0421A16153F82230984721
:105AA0000546E089636A0130020A53F822309847BC
:105AB00045EA002080B2E389626A6082010A02330B
:105AC000E38152F821309847637AA07140B943F0DE
:105AD000020303F07F0320F07F001843607238BD9B
