:1000000000000320D101000049300100013001004F
:100010000130010001300100013001000130010018
:1000200001300100013001000130010049300100C0
:100030004930010001300100854701008948010075
:1000400049300100493001004930010049300100C8
:1000500049300100493001004930010049300100B8
:1000600049300100493001004930010049300100A8
:100070004930010049300100493001004930010098
:100080004930010049300100493001004930010088
:100090004930010049300100493001004930010078
:1000A0004930010049300100493001004930010068
:1000B0004930010049300100493001004930010058
:1000C0004930010049300100493001004930010048
:1000D0004930010049300100493001004930010038
:1000E0004930010049300100493001004930010028
:1000F0004930010049300100493001004930010018
:1001000065050000790500008D050000A1050000CF
:1001100049300100C9360100493001004930010071
:1001200049300100493001004930010049300100E7
:1001300049300100493001004930010049300100D7
:1001400039450100493001004930010049300100C2
:1001500049300100493001004930010049300100B7
:1001600049300100493001004930010049300100A7
:100170004930010049300100493001004930010097
:1001800049300100FD020100493001004930010001
:100190004930010049300100493001004930010077
:1001A0004930010049300100493001004930010067
:1001B0004930010049300100493001004930010057
:1001C0004930010049300100493001004930010047
:1001D0005C4B4CF2205210B51A804DF628121A8052
:1001E00000BF00BF12F034FF574B4FF030621A606F
:1001F000564A9A60564ADA60564B4FF470021A60BB
:10020000554B564A1A60564A136813F4807304D14A
:1002100054490B604FF4A8531360534B1A781107DD
:1002200003D51A7842F008021A70504B5049AA229E
:100230001A70504A504B8B4204D252F8040F43F8C4
:10024000040BF8E74D4B4E4900228B4202D243F893
:10025000042BFAE74B494C4A002352F8230041F89B
:1002600023000133742BF8D1484B494A802103F80D
:10027000011B9342FBD1474B424A1A60464B8A22EC
:100280001A70A3F5805324225A70A0221A709A790A
:100290009207FCD59A79D406FCD4404A937903F0AE
:1002A0000C03082BFAD13E4B60221A7002331A78E5
:1002B000802AFCD1394B00221A714E225A719A7948
:1002C0009006FCD59979354A4906FBD5354B364918
:1002D00019600821596020231370937903F00C03EF
:1002E0000C2BFAD1314B324A1A60324B324A1A6027
:1002F00000225A60072243F8042C304AC3F80C2D20
:1003000062B613F073F8174B1B68DA0705D52C4853
:1003100012F0DAFF2B4B2C4A1A602C4B1B785B0631
:1003200009D5284C284B22689A4204D1244812F05F
:10033000CBFF0023236015F03DFA12F08FFE14F07E
:10034000F3FBFEE70E20054030800440823F0400AE
:100350000100002B88ED00E0002008E0030000858C
:1003600010D0034014D0034002D0074000E0074003
:10037000807901201C6F0500A86B01208079012085
:10038000808E0220005C01200000000000E400E0FC
:1003900064E400E008ED00E0005006400040064044
:1003A00001E007404480044000000701048004404D
:1003B000C010050014E000E07FA903000000202029
:1003C000CCA4EF591CE00340A5C3945A00F00740A9
:1003D000FFFFFFFFFFFFFFFFFFFFFFFFFFFFFFFF2D
:1003E000FFFFFFFFFFFFFFFFFFFFFFFFFFFFFFFF1D
:1003F000FFFFFFFFFFFFFFFFFFFFFFFFFFFFFFFF0D
:10040000FFFFFFFFFFFFFFFFFFFFFFFFDEF9FFFF23
:1004100010B5054C237833B9044B13B10448AFF33E
:1004200000800123237010BD8079012000000000AE
:10043000206F0500084B10B51BB108490848AFF301
:1004400000800848036803B910BD074B002BFBD0A0
:10045000BDE81040184700BF00000000847901206B
:10046000206F0500807901200000000008B50421FC
:10047000034813F057FFBDE8084000F005B900BF7E
:100480000002FF1F20BF7047704700BF0368F0B431
:10049000FBB1002501249D60DC601B4C1A601C44EC
:1004A000241104F130056A11032692009E60174F53
:1004B0000679174B47F8241002F1604202F56142B9
:1004C00005F01F05012000FA05F5E6541560F0BCA3
:1004D0007047104C236843F40003236000BF0E4BA9
:1004E0000E4DA4F58734A4F59E7401261E602346A4
:1004F00004609C68002CD0D01033AB420360F8D16C
:10050000002303601846E2E7008FFCBF9C6C0120CB
:1005100030E400E03C800440007003404071034040
:100520000168A9B10B4BF0B40B441B110A4E0B4FE1
:100530000B4D46F8237003F1300202F01F04012333
:100540005211A340002445F822308C600460F0BCB6
:10055000704700BF008FFCBF9C6C01208904000025
:1005600080E100E0024A034B012111601B6818473B
:100570000C7103409C6C0120024A034B0121116065
:100580005B6818471C7103409C6C0120024A034BB6
:10059000012111609B6818472C7103409C6C01205D
:1005A000024A034B01211160DB6818473C7103408C
:1005B0009C6C012000207047704700BF014B024A2D
:1005C0001A60FEE70CED00E00400FA052DE9F041A9
:1005D0001A4C1B4E22791B4DDFF86C8037460EE01B
:1005E0000DF09CF93388013B9BB2B3B122793B807B
:1005F000124BEAB119682B685B1A43451AD82B686D
:1006000023620023A382E361002AE9D00DF032FEC9
:100610003388013B9BB2002BE8D140F21B633B8047
:1006200000F0DEFD01F076F92279044B002AE1D1D9
:10063000BDE8F081BDE8F04108F054B8D07E01205B
:10064000AC6C0120041000E0FFAF710B10B5044B3F
:10065000044640F8203B10F07DFB204610BD00BF53
:10066000B8DA040008B508F065FC012008BD00BF39
:1006700010B5044B044640F8083B14F005F820463A
:1006800010BD00BF9C6401002DE9F041BE4DDFF8B4
:10069000A0E32B68BD48BE4ABE4FBF4CBF4984B0E3
:1006A0004FF02008019340F20313019ECEF8003072
:1006B0000360136002F5322202F584724FF48070F9
:1006C0003B60236008601368B548B64C4FF0400E9D
:1006D00043F0400313600421C0F800E0192012F039
:1006E0000BFEB14B07F532277437C3F800800121A8
:1006F000262012F001FE4FF400633B6001210D2023
:1007000012F0FAFDC7F800800BF014F809F00CFFA6
:10071000A64808F0D1F8A649A44808F0E5FB04F57E
:100720001577A24808F0BCFB38460FF0FFFD002803
:1007300040F0FD800023DFF8FC8247F62D2088F88A
:1007400000300BF003F89B49024607469A4810F028
:100750005BF9FA2012F0FAFD984A40F2DC51137866
:100760002BB92B680293029B9B1B8B42F7D9944BAE
:10077000944820241C601E2113F0D6FC924814F0EB
:100780009FF81E21914813F0CFFC8F4814F098F881
:1007900008218F4813F0C8FC98F800208D4B8E4834
:1007A000002A16BF184617210C2113F0BDFC8648FD
:1007B00014F086F8844814F083F80D21874813F06C
:1007C000B3FCF021804814F0CBF87F4814F078F89F
:1007D0000D21834813F0A8FC78217B4814F0C0F861
:1007E000794814F06DF809217E4813F09DFC03212F
:1007F0007D4813F099FC744814F062F8724814F0C4
:100800005FF81021794813F08FFC0321784813F02A
:100810008BFC6D4814F054F82421764813F084FCC6
:100820009FED550B0321684814F0A2F8664814F0B8
:1008300047F82221704813F077FC9FED510B0321FC
:10084000614814F095F8604814F03AF85E4814F0E6
:1008500037F81621694813F067FC21465A4814F00E
:100860007FF8594814F02CF81721654813F05CFC08
:1008700000230A223946544814F032F8524814F042
:100880001FF8514814F01CF816215E4813F04CFC78
:100890000A2200235C494C4814F022F84A4814F01C
:1008A0000FF8494814F00CF809F0B6FC00F0CEFC43
:1008B00001F066F80DF01AFF07F022FF534B3220CB
:1008C0001C6012F043FD384B40F2DC521C602B6878
:1008D0000393039B9B1B9342F9D90B214C484D4C2E
:1008E00013F022FC384813F0EBFF4B4807F040FEB2
:1008F000012341F6F852494984F8563C04F1B80006
:10090000FFF7C4FDD4F8B810FF2284F8BC2021B151
:10091000434B44480B441B111A54032242491920EB
:1009200012F056FC0AF092FF04B0BDE8F08104F525
:100930000C7027600EF012F8012120460FF016FA15
:1009400098B1184C04F50C77384621460EF08CF916
:1009500000283FF4EFAE94F8303213F070033FF408
:10096000EAAE324A01231760E5E6014620460FF061
:10097000FDF90028E5D1DDE6000000206F8BCE40B8
:1009800000000020F20F4940488B022004D00440B0
:100990000CD0044010D0044014D0044018D00440BF
:1009A00004F10F40607C012004F00F40607B0120C7
:1009B000AC640100A0080F00BC7901202C8C02203F
:1009C00088F00F40BCBD0300C46E0120DCBD0300F5
:1009D000FCBD0300ACBC0300BCBC0300D4BC0300E2
:1009E000E4BC0300F4BC030000BD030004BD03002D
:1009F00018BD03001CBD030044BD030068BD030017
:100A000080BD030098BD0300B409010008F00F4049
:100A1000B0BD0300D07E012080841E00CD05000003
:100A2000008FFCBF30E400E0BD050000F88A022022
:100A300000D004409C79012038B50C4C237803B1D8
:100A400038BD0123237013F03DFB28B908F0AEFB3D
:100A50000023237020BF38BD13F0EAFAC5B2284640
:100A600008F08AFB284613F0E7FBEFE7B87E012089
:100A70002DE9F0411C2184B00E2227238DE80E00C1
:100A800039483A4E3A4D3B4FFF231422152107F0C7
:100A9000D1FE394A3949344814F07AFE32682F6061
:100AA00000236B722B612B72EB600AB957E01A4678
:100AB0005369002BFBD155614FF00008304B314892
:100AC000314C2B60C5F81480A5F80480A5F8068089
:100AD00010F08AF826480FF075FF274A2B49244862
:100AE00014F056FE012004F11802276043464146E7
:100AF00084F80880C4F80C8060722261274600E008
:100B00003A6942F82310627A1F4801339A42F7DCAF
:100B10003268164B0AB924E01A465369002BFBD100
:100B2000546100261A4B184823606661A680E6804F
:100B300008F04CFD174B18461E721D605C605E721B
:100B4000DE6013F0C9FC144B144ADE7183F8306286
:100B500083F83162C3F8542204B0BDE8F0813560F7
:100B6000AAE71860DDE700BF607B0120488C022007
:100B7000BC79012090640100986C0120710600008E
:100B8000B8DA0400DC790120A07901204D060000CC
:100B9000D4FA0300BC7E0120607C012010DA04003E
:100BA000064991F86D2991F85D39D20022F07F0253
:100BB00043F01003134381F85D397047D07E012064
:100BC000F0B500F00F00031F83B00B2B00F205817E
:100BD000DFE813F019001D0027002B003500570037
:100BE0007C00A100D000E000F6000C00A64B21F034
:100BF000100283F85F29CA0603D5B3F86629A3F863
:100C0000562903B0F0BDA04B83F86419F9E79E4B59
:100C100093F85E2983F86519D507F2D483F855193E
:100C2000EFE7994B83F86619EBE7974B93F85F2949
:100C300083F86719D407E4D483F85719E1E7924B96
:100C400093F85F2922F07F0202F0FF04002A00F0EF
:100C5000EA8093F8695993F86A4993F86B0901F0AF
:100C60000F010A2212FB05124FF4167505FB042230
:100C700048F6A04404FB002283F86819C3F87829D9
:100C8000BFE7814B93F85F2912F0800F4FEA1112F2
:100C900002EB820201F00F0100F0C08093F8685966
:100CA00093F86A4993F86B0941EA42010A2212FB60
:100CB00001524FF4167505FB042248F6A04404FBCC
:100CC000002283F86919C3F878299AE76E4B93F8E4
:100CD0005F2912F0800F4FEA111200F0968093F80E
:100CE000684993F8696993F86B0902EB820201F095
:100CF0000F010A2541EA420115FB06444FF4167222
:100D000002FB014248F6A04404FB002283F86A1962
:100D1000C3F8782975E75C4A92F85F3923F07F03BE
:100D200003F0FF00002B5DD0C1F30010830049B237
:100D30000344002992F8680992F8696992F86A49AF
:100D400001F00F0141EA43014FF00A05B4BF0C2343
:100D500000230B4415FB06014FF41670DBB200FBB9
:100D6000041048F6A04101FB030182F86B39C2F878
:100D7000781946E7444890F86D2990F85D3980F875
:100D80005C19120122F07F0243F00803134380F83C
:100D90005D3936E708066ED53B4B93F86D0993F83D
:100DA0005D2901F01F01014302F01F00014283F899
:100DB0006D193FF426AF62F07F0283F85D2920E7CA
:100DC000314B21F01002C90683F85E297FF519AF77
:100DD000B3F86429A3F8542913E72B4B184480F87F
:100DE00050190EE7C1F30014A30049B200292344AF
:100DF00001F00F0141EA4301B8BF0C204318012163
:100E000082F85B3982F87C19FBE602EB820201F082
:100E10000F0141EA420283F85A29F2E641EA42020E
:100E200083F85929EDE6194A93F859691268019235
:100E3000019F174893F85A5983F87C494FF47A7206
:100E400001F00F0102FB06F6642414FB01664EF666
:100E5000602CA0FB070193F85B49DFF83CE00D4AEA
:100E60000CFB0560090E0EFB040002FB1172121A46
:100E7000C3F87029C5E6044A92F86D3923EA0101E6
:100E800082F86D19BDE600BFD07E0120488B02209C
:100E90003BD4B531005C260580EE36002DE9F043E9
:100EA00000F00F0087B00D2800F2A580DFE800F009
:100EB0001217A3A3A3A3A3A31C3B6475A307994B79
:100EC00093F85D09002200F09F0083F85D2907B0C8
:100ED000BDE8F08308F010FA07B0BDE8F08308F031
:100EE0006FFA07B0BDE8F0838E4D95F87D39002B81
:100EF00000F0F880D5F874198B4B8C4883FB0123E4
:100F0000CA17C2EBA3124FF47A7303FB121380FBD0
:100F10000320DB17C3EBA000C0B2002385F87D39A6
:100F200007B0BDE8F0837F4B93F87D29002A69D094
:100F3000D3F874197C4A7E487C4B82FB0142C91766
:100F4000C1EBA21282FB00015018D117C1EB601156
:100F5000C1EB0111A2EB8102D2B283FB02139B0809
:100F600003EB8300A2EB40001B0140B25BB21843CD
:100F7000C0B207B0BDE8F0836A4B93F87D29002A20
:100F800000F08B80D3F874196A4A6948674B82FB7A
:100F90000142C917C1EBA232D4E7674B61481B6815
:100FA0000593D0F870590599644B654C654A491B07
:100FB000A3FB01531B0E04FB131382FB0321DA175F
:100FC000C2EB215201240B2AC0F8743980F87D4904
:100FD000D3B240F39A800C3B5B48DBB2A0FB03200A
:100FE000C00800EB8002A3EB420363F07F0343EAF7
:100FF0000010C0B26BE74B4B184490F8500907B093
:10100000BDE8F0834C4AD3F8704913680193019B03
:1010100012680292029D494A4949434F4448434E4F
:101020002D1B1B1BA2FB05E4240EA2FB03E201FB0C
:101030001455120E01FB123187FB0532ED17C5EB7B
:10104000A21487FB0123C917C1EBA31384FB0089FA
:1010500004EB090583FB0001E2175818C2EB651287
:10106000D917C1EB6011C2EB0212A4EB8202C1EBF3
:101070000111A3EB810386FB0214D11786FB0350F9
:10108000C1EBA401DB17C3EBA00301EB8101180145
:10109000A2EB410243B250B269E7274AD3F8704944
:1010A00013680393039B12680492049D234A244906
:1010B000204F1F481D4E2D1B1B1BA2FB05E4240EB9
:1010C000A2FB03E201FB1455120E01FB123187FB58
:1010D0000532ED17C5EBA23487FB0123C917C1EB1D
:1010E000A333B3E7144BD5F870191B680093009E27
:1010F000124C134B0C4A0D48711AA4FB0164240EC8
:1011000003FB141182FB0123FAE60F48A0FB032026
:10111000C00800EB8002A3EB420343EA0010C0B218
:10112000D5E600BFD07E0120D34D621067666666AB
:101130008988888873B2E745488B02203BD4B53153
:10114000005C260559BE904ACDCCCCCC10B4234AC5
:10115000D2F85C39190C01F02101012925D0DC01FC
:1011600015D503F0C041B1F1804F33D0B2F8561914
:101170001A4C884221DD401AB4F86649190148BF6B
:1011800023F08073201A43F40073A2F85609D2F8B2
:101190006C29124902F470621A4218BF43F40043EA
:1011A000C1F85C395DF8044B7047B2F854198142BC
:1011B00005DB091AA2F85419D1E7081AE5E7B2F8D5
:1011C0006449411A611A1C0348BF23F4803343F475
:1011D0008073EFE7D805DAD50120C7E7D07E01207C
:1011E00070B4154B154C1B68154A164E164DD4F8A5
:1011F000780983B001930199D4F87039C91A82FB38
:101200000123CA17C2EB236206FB121385FB0312EC
:10121000DB17C3EB621383420BD194F86D2994F86A
:101220005D39520122F07F0243F00403134384F836
:101230005D3903B070BC7047488B0220D07E01201E
:101240003BD4B531005C26051F85EB5138B5104CF9
:1012500008F01CF9002508F045F9FF22042124209C
:101260002271227562716275A271A275E271E275D6
:101270002560A560E56012F03FF8064B06494FF483
:1012800000721A6024200222BDE8384011F0A0BF8D
:101290002088012084F00F40A10B0000F0B500F081
:1012A0000F0085B00F2811D8DFE810F022001400DD
:1012B000100010003C0040004A004E0058007A0028
:1012C0009F00C400F40006011E011600B84B18442C
:1012D00080F8801905B0F0BDB54B21F0100283F8FD
:1012E0008F29CA06F6D5B3F89629A3F88629F1E71F
:1012F00011F0180F00F00581CB4388029A02AD4E21
:10130000AD4DAB4C019102F4604200F4604030609E
:101310009B032A60A4F858300DF0ACF8019984F8CA
:101320008019D7E7A24B83F89419D3E7A04B93F821
:101330008E2983F89519D507CCD483F88519C9E788
:101340009B4B83F89619C5E7994B93F88F2983F83F
:101350009719D407BED483F88719BBE7944B93F849
:101360008F2922F07F0202F0FF04002A00F0D380D0
:1013700093F8995993F89A4993F89B0901F00F0152
:101380000A2212FB05124FF4167505FB042248F6DB
:10139000A04404FB002283F89819C3F8A82999E710
:1013A000834B93F88F2912F0800F4FEA111202EB52
:1013B000820201F00F0100F0A98093F8985993F888
:1013C0009A4993F89B0941EA42010A2212FB015211
:1013D0004FF4167505FB042248F6A04404FB0022D6
:1013E00083F89919C3F8A82974E7714B93F88F29EA
:1013F00012F0800F4FEA111200F0C88093F898495C
:1014000093F8996993F89B0902EB820201F00F01AE
:101410000A2541EA420115FB06444FF4167202FB0D
:10142000014248F6A04404FB002283F89A19C3F84D
:10143000A8294FE75E4A92F88F3923F07F0303F023
:10144000FF00002B00F08F80C1F30010830049B231
:101450000344002992F8980992F8996992F89A49F8
:1014600001F00F0141EA43014FF00A05B4BF0C231C
:1014700000230B4415FB06014FF41670DBB200FB92
:10148000041048F6A04101FB030182F89B39C2F821
:10149000A8191FE7464890F89D2990F88D3980F8E3
:1014A0008C19120122F07F0243F00803134380F8E5
:1014B0008D3907F039F80DE7080670D53C4B93F8E5
:1014C0009D0993F88D2901F01F01014302F01F00CF
:1014D000014283F89D193FF4FDAE62F07F0283F86C
:1014E0008D2907F021F8F5E6314B21F01002C906ED
:1014F00083F88E297FF5EEAEB3F89429A3F88429FA
:10150000E8E6019107F0D6F80199F5E641EA4202D2
:1015100083F88929DEE6294A93F8896912680392DB
:10152000039F274893F88A5983F8AC494FF47A729D
:1015300001F00F0102FB06F6642414FB01664EF66F
:10154000602CA0FB070193F88B49DFF87CE01D4A73
:101550000CFB0560090E0EFB040002FB1172121A4F
:10156000C3F8A029B6E6C1F30014A30049B20029CC
:10157000234401F00F0141EA4301B8BF0C20431896
:10158000012182F88B3982F8AC19A3E602EB8202C2
:1015900001F00F0141EA420283F88A299AE6044ADF
:1015A00092F89D3923EA010182F89D1992E600BF65
:1015B000D07E012008F00F4004F00F40488B02203D
:1015C0003BD4B531005C260580EE3600F0B500F066
:1015D0000F0089B00D2800F2A980DFE800F015A700
:1015E000A7A7A7A7A7A722406879A707994B93F8B1
:1015F0008D09002200F09F00019083F88D2906F0EC
:10160000A7FF019809B0F0BD934A924B106893F878
:101610008039800B03F03F0343EA8010C0B209B069
:10162000F0BD8C4D95F8AD39002B00F0F480D5F865
:10163000A4198A4B8A4883FB0123CA17C2EBA31261
:101640004FF47A7303FB121380FB0320DB17C3EB09
:10165000A000C0B2002385F8AD3909B0F0BD7D4BC4
:1016600093F8AD29002A67D0D3F8A4197B4A7D48A6
:101670007B4B82FB0142C917C1EBA21282FB000126
:101680005018D117C1EB6011C1EB0111A2EB81021F
:10169000D2B283FB02139B0803EB8300A2EB400052
:1016A0001B0140B25BB21843C0B209B0F0BD694B38
:1016B00093F8AD29002A00F08980D3F8A4196A4A6A
:1016C0006848674B82FB0142C917C1EBA232D5E7DC
:1016D000664B60481B680793D0F8A0590799644B84
:1016E000644C654A491BA3FB01531B0E04FB1313F7
:1016F00082FB0321DA17C2EB215201240B2AC0F826
:10170000A43980F8AD49D3B240F398800C3B5B48D4
:10171000DBB2A0FB0320C00800EB8002A3EB420376
:1017200063F07F0343EA0010C0B26BE7494B1844F3
:1017300090F8800909B0F0BD4C4AD3F8A01913689D
:101740000393039813680493049D494A494C434BFF
:10175000444F434E6D1A411AA2FB05E0000EA2FB56
:1017600001E204FB1055120E04FB121183FB05026B
:10177000ED17C5EBA21483FB0123C917C1EBA3131B
:1017800084FB07016518E21783FB07015818C2EBB9
:101790006512D917C1EB6011C2EB0212A4EB8202F1
:1017A000C1EB0111A3EB810386FB0210D11786FB6D
:1017B0000346C1EBA000DB17C3EBA60300EB8000E0
:1017C0001B01A2EB40005BB240B26CE7274AD3F8A2
:1017D000A01913680593059813680693069D244A7B
:1017E000244C214B1F4F1E4E6D1A411AA2FB05E0DF
:1017F000000EA2FB01E204FB1055120E04FB1211B5
:1018000083FB0502ED17C5EBA23483FB0123C91747
:10181000C1EBA333B4E7154BD5F8A0191B680293AD
:10182000029E134C134B0D4A0D48711AA4FB016420
:10183000240E03FB141182FB0123FEE60F48A0FBDC
:101840000320C00800EB8002A3EB420343EA001030
:10185000C0B2D7E6D07E012010F00F40D34D621009
:10186000676666668988888873B2E745488B022078
:101870003BD4B531005C260559BE904ACDCCCCCCCA
:1018800010B4234AD2F88C39190C01F02101012936
:1018900024D0DC0115D503F0C041B1F1804F32D026
:1018A000B2F886191A4C884220DD401AB4F89649DD
:1018B000190148BF23F08073201A43F40073A2F883
:1018C0008609D2F89C1901F47061194218BF43F4DB
:1018D0000043C2F88C395DF8044B7047B2F88419A4
:1018E000814205DB091AA2F88419D2E7081AE6E753
:1018F000B2F89449411A611A1C0348BF23F480339B
:1019000043F48073EFE7D805DBD50120C8E700BFBB
:10191000D07E012070B4154B154C1B68154A164E2D
:10192000164DD4F8A80983B001930199D4F8A039D1
:10193000C91A82FB0123CA17C2EB236206FB1213EA
:1019400085FB0312DB17C3EB621383420BD194F8C0
:101950009D2994F88D39520122F07F0243F004034F
:10196000134384F88D3903B070BC7047488B022054
:10197000D07E01203BD4B531005C26051F85EB519C
:1019800038B5104B04210025FF241D609D60DD60EB
:1019900008461C715C719C71DC7111F0ADFC042176
:1019A0001A2011F0A9FC04211B2011F0A5FC064B04
:1019B0004FF400504FF480414FF40042186019601A
:1019C0001A6038BD5088012004F00F40F8B5184C5B
:1019D0006279E389667A551E01339BB2A71854FADF
:1019E00085F5911E033A46F0040E54FA81F16271B6
:1019F00046F010021E0A87F8B06AE38185F8B03A13
:101A0000636A81F8B02A0720A06184F809E0D3F85E
:101A1000FC334FF6FE709847636A0546D3F8FC33F3
:101A20004FF6FF70984745EA0020E081F8BD00BFFF
:101A3000D07E012038B5184CE089636A020A411C47
:101A4000062553F82230A561E1819847E379626A5F
:101A5000A5791844C0B2431C54FA83F3204493F888
:101A6000B01990F8B03943EA0120030A608252F8B5
:101A700023309847637A284310F0FF0014BF03F027
:101A8000FD0343F0020303F07F0320F07F021343C2
:101A9000A071637238BD00BFD07E012070B52A4CA2
:101AA000294EE089636A020A0825411C53F8223056
:101AB000A561E1819847E379626A1844C0B2431C8A
:101AC00054FA83F3204493F8B01990F8B03943EAFC
:101AD000012020FA05F3608252F823309847637A98
:101AE000A26A400010F47F4F14BF43F0010303F0DB
:101AF000FE0310F0FF0114BF03F0FD0343F00203E7
:101B0000608A21F07F0503F07F032B43050A63728F
:101B100052F825309847608A636AA579020A53F81B
:101B200022309847737A284310F0FF0014BF03F067
:101B3000FD0343F0020303F07F0320F07F02134311
:101B4000A071637270BD00BFD07E012038B50F4C0C
:101B5000E089636A020A411C032553F82230E181BF
:101B6000A56198472318A27993F8B039608213438E
:101B7000627AA37114BF02F0FD0242F0020202F089
:101B80007F0223F07F010A43627238BDD07E0120BC
:101B900070B5144CE089636A020A411C052553F8AC
:101BA0002230E181A56198472318608293F8B0192B
:101BB000637A4900CA054CBF43F0010303F0FE03FA
:101BC00011F0FF0114BF03F0FD0343F0020321F005
:101BD0007F0203F07F031343A26A63721368BDE8B8
:101BE00070401847D07E012070B5224C214EE0890C
:101BF000636A020A411C052553F82230E181A56180
:101C00009847636A60821B689847637AA26A4000BB
:101C100010F47F4F14BF43F0010303F0FE0310F0F4
:101C2000FF0114BF03F0FD0343F00203608A21F0BB
:101C30007F0503F07F032B43050A637252F82530BA
:101C40009847608A636AA579020A53F82230984758
:101C5000737A284310F0FF0014BF03F0FD0343F034
:101C6000020303F07F0320F07F021343A07163722D
:101C700070BD00BFD07E012010B4074B5A79597A4D
:101C8000981841F01001013A03245A7180F8B01AF3
:101C90009C615DF8044B7047D07E012038B50F4C35
:101CA000E089636A6082020A0225411C53F82230EF
:101CB000A561E181A5799847637A284310F0FF0078
:101CC00014BF03F0FD0343F0020303F07F0320F091
:101CD0007F021343A071637238BD00BFD07E012024
:101CE0000D498B7902225B008A614A7AD8054CBF84
:101CF00042F0010202F0FE0213F0FF0314BF02F0F3
:101D0000FD0242F0020202F07F0223F07F00024354
:101D10008B714A72704700BFD07E012038B50C4CE1
:101D2000E089636A020A042153F82230A1619847CE
:101D30000546E089636A0130020A53F82230984769
:101D4000E38945EA002002336082E38138BD00BFA9
:101D5000D07E012038B5174CE089636A020A04215D
:101D6000A16153F8223098470546E089636A013043
:101D7000020A53F82230984745EA002080B2E389EE
:101D8000626A6082010A0233E38152F82130A57948
:101D90009847637A284310F0FF0014BF03F0FD0357
:101DA00043F0020303F07F0320F07F021343A0718E
:101DB000637238BDD07E012070B51E4CE089636A25
:101DC000020A0621A16153F8223098470546E089AE
:101DD000636A0130020A53F82230984745EA00202E
:101DE000E389626A80B2010A0233E381608252F8B9
:101DF00021309847637AA56A400010F47F4F14BFE2
:101E000043F0010303F0FE0310F0FF0118BF03F0DD
:101E1000FD03608A08BF43F0020321F07F0203F054
:101E20007F031343020A637255F82230BDE8704005
:101E3000184700BFD07E012070B5294C284EE0899C
:101E4000636A020A0621A16153F8223098470546C9
:101E5000E089636A0130020A53F82230984745EA64
:101E6000002080B2E389626A6082010A0233E38162
:101E700052F821309847637AA26A400010F47F4FED
:101E800014BF43F0010303F0FE0310F0FF0114BF81
:101E900003F0FD0343F00203608A21F07F0503F0A5
:101EA0007F032B43050A637252F825309847608AF6
:101EB000636AA579020A53F822309847737A284357
:101EC00010F0FF0014BF03F0FD0343F0020303F022
:101ED0007F0320F07F021343A071637270BD00BFC7
:101EE000D07E012070B51C4CE089636A020A411C57
:101EF000052553F82230A561E1819847431C54FA27
:101F000083F3204493F8B02990F8B039207A03EB9A
:101F100002239BB21844434013F0FF0F02D0A36981
:101F20000133A36180B2020A636A608253F82230EF
:101F3000A579094E9847737A284310F0FF0014BF23
:101F400003F0FD0343F0020303F07F0320F07F0260
:101F50001343A071637270BDD07E012070B52A4C0E
:101F6000294EE089636A020A0825411C53F8223091
:101F7000A561E1819847421C204454FA82F2237AF9
:101F800090F8B00992F8B019626A184400EB012089
:101F900080B220FA05F3608252F823309847637AC2
:101FA000A26A400010F47F4F14BF43F0010303F016
:101FB000FE0310F0FF0114BF03F0FD0343F0020322
:101FC000608A21F07F0503F07F032B43050A6372CB
:101FD00052F825309847608A636AA579020A53F857
:101FE00022309847737A284310F0FF0014BF03F0A3
:101FF000FD0343F0020303F07F0320F07F0213434D
:10200000A071637270BD00BFD07E012038B5124C44
:10201000E089636A020A411C042553F82230A56155
:10202000E1819847E379626AA57912681844C0B2E1
:1020300060829047637A284310F0FF0014BF03F0DA
:10204000FD0343F0020303F07F0320F07F021343FC
:10205000A071637238BD00BFD07E012070B5184CEE
:10206000E089636A020A411C0625E181A56153F8F3
:1020700022309847E379626A1844C0B213686082DC
:102080009847637AA56A400010F47F4F14BF43F06D
:10209000010303F0FE0310F0FF0118BF03F0FD037E
:1020A000608A08BF43F0020321F07F0203F07F0340
:1020B0001343020A637255F82230BDE87040184796
:1020C000D07E012070B5234C224EE089636A020A5B
:1020D000411C0625E18153F82230A5619847E37938
:1020E000626A1844C0B2136860829847637AA26A31
:1020F000400010F47F4F14BF43F0010303F0FE03D0
:1021000010F0FF0114BF03F0FD0343F00203608AE7
:1021100021F07F0503F07F032B43050A637252F819
:1021200025309847608A636AA579020A53F82230FD
:102130009847737A284310F0FF0014BF03F0FD03A3
:1021400043F0020303F07F0320F07F021343A071EA
:10215000637270BDD07E0120034B5A7A022122F0B7
:10216000010299615A727047D07E012070B51B4CF4
:10217000E089636A020A042153F82230A16198477A
:10218000257A284485B2EB0502D5A3690133A36102
:10219000E089636A114E0130020A53F822309847F1
:1021A00005EB002080B2E389626A6082010A023393
:1021B00052F82120E381A5799047737A284310F0E3
:1021C000FF0014BF03F0FD0343F0020303F07F039D
:1021D00020F07F021343A071637270BDD07E012096
:1021E00070B52A4C294EE089636A020A0721A16171
:1021F00053F8223098470546E089636A0130020AA5
:1022000053F822309847217AE389626A0D4405EB3E
:10221000002080B2010A0233E381608252F821304B
:102220009847637AA26A400010F47F4F14BF43F0CE
:10223000010303F0FE0310F0FF0114BF03F0FD03E0
:1022400043F00203608A21F07F0503F07F032B43F4
:10225000050A637252F825309847608A636AA57947
:10226000020A53F822309847737A284310F0FF008F
:1022700014BF03F0FD0343F0020303F07F0320F0DB
:102280007F021343A071637270BD00BFD07E012036
:10229000014B04229A617047D07E012070B51B4C1F
:1022A000E089636A020A042153F82230A161984749
:1022B000E579284485B2EB0502D5A3690133A36112
:1022C000E089636A114E0130020A53F822309847C0
:1022D00005EB002080B2E389626A6082010A023362
:1022E00052F82120E381A5799047737A284310F0B2
:1022F000FF0014BF03F0FD0343F0020303F07F036C
:1023000020F07F021343A071637270BDD07E012064
:1023100070B51F4CE089636A020A0721A16153F876
:10232000223098470546E089636A0130020A53F873
:1023300022309847E179E389626A45EA002008443F
:1023400080B2010A0233E381608252F8213098475B
:10235000637AA56A400010F47F4F14BF43F0010375
:1023600003F0FE0310F0FF0118BF03F0FD03608AC5
:1023700008BF43F0020321F07F0203F07F03134301
:10238000020A637255F82230BDE87040184700BF5A
:10239000D07E012070B52A4C294EE089636A020A7A
:1023A0000721A16153F8223098470546E089636A06
:1023B0000130020A53F822309847E179E389626AD2
:1023C00045EA0020084480B2010A0233E3816082BA
:1023D00052F821309847637AA26A400010F47F4F88
:1023E00014BF43F0010303F0FE0310F0FF0114BF1C
:1023F00003F0FD0343F00203608A21F07F0503F040
:102400007F032B43050A637252F825309847608A90
:10241000636AA579020A53F822309847737A2843F1
:1024200010F0FF0014BF03F0FD0343F0020303F0BC
:102430007F0320F07F021343A071637270BD00BF61
:10244000D07E012070B5134CE089636A020A062130
:10245000A16153F8223098470546E089636A01304C
:10246000020A53F8223098476279E389511E0133FA
:1024700045EA00209BB2A51854FA81F11E0A023ADF
:1024800080B285F8B06A627181F8B03A6082E0810A
:1024900070BD00BFD07E012038B5174CE089636A5B
:1024A000020A411C062553F82230A561E1819847B4
:1024B000E379626AA5791844C0B2431C54FA83F3E5
:1024C000204493F8B01990F8B03943EA0120030A88
:1024D000608252F823309847637A284014BF03F093
:1024E000FD0343F0020303F07F0320F07F02134358
:1024F000A071637238BD00BFD07E012070B52C4C36
:102500002B4EE089636A020A0825411C53F82230E9
:10251000A561E1819847E379626A1844C0B2431C1F
:1025200054FA83F3204493F8B01990F8B03943EA91
:10253000012020FA05F3608252F823309847637A2D
:1025400003F0010141EA400001B28AB212F47F4F68
:1025500014BF43F0010303F0FE0312F0FF0F14BF9A
:1025600003F0FD0343F00203608AA26A21F07F05B5
:1025700003F07F032B43050A637252F82530C9B27A
:102580009847608A636AA579020A53F8223098470F
:10259000737A284014BF03F0FD0343F0020303F0F5
:1025A0007F0320F07F021343A071637270BD00BFF0
:1025B000D07E012038B50F4CE089636A020A411CC5
:1025C000032553F82230A561E18198472218637AE8
:1025D00092F8B019A579608221F03F0203F03F0321
:1025E000134329420CBF43F0020323F0020363723A
:1025F00038BD00BFD07E012038B50F4CE089636A3A
:10260000020A411C032553F82230A561E181984755
:10261000636A60821B68A5799847637A284014BF73
:1026200003F0FD0343F0020303F07F0320F07F0279
:102630001343A071637238BDD07E012070B5174C72
:10264000E089636A020A0525411CA561E18153F80E
:10265000223098472218637A92F8B019608203F00A
:10266000010242EA41018AB2D5054CBF43F00103A1
:1026700003F0FE0312F0FF0F14BF03F0FD0343F05D
:10268000020321F07F0203F07F031343A26A637207
:102690001368C9B2BDE87040184700BFD07E012062
:1026A00070B5244C234EE089636A020A411C05255B
:1026B00053F82230E181A5619847636A60821B6804
:1026C0009847637A03F0010141EA400001B28AB2FF
:1026D00012F47F4F14BF43F0010303F0FE0312F026
:1026E000FF0F14BF03F0FD0343F00203608AA26AE8
:1026F00021F07F0503F07F032B43050A637252F834
:102700002530C9B29847608A636AA579020A53F8EE
:1027100022309847737A284014BF03F0FD0343F03A
:10272000020303F07F0320F07F021343A071637262
:1027300070BD00BFD07E0120074A53790133DBB260
:10274000D118042091F8B01A906121F0300141F0C5
:102750002001537151727047D07E012038B50E4C64
:10276000E089636A6082020A0225411C53F8223024
:10277000A561E181A5799847637A284014BF03F0E9
:10278000FD0343F0020303F07F0320F07F021343B5
:10279000A071637238BD00BFD07E012010B4104A12
:1027A000537A907903F0010141EA4001022488B292
:1027B0009461C4054CBF43F0010303F0FE0310F025
:1027C000FF0F14BF03F0FD0343F0020303F07F0388
:1027D00021F07F000343917153725DF8044B704701
:1027E000D07E012038B5114CE089636A6082020A0C
:1027F0000225411C53F82230A561E181A579984753
:10280000637A284020F07F0203F07F03134350B126
:1028100003F0FD031A064CBF43F0010323F001034C
:102820006372A07138BD43F00203F3E7D07E01204C
:10283000FFF7D8BF38B5164CE089636A020A042155
:10284000A16153F8223098470546E089636A013058
:10285000020A53F82230984745EA002080B2E38903
:10286000626A6082010A0233E38152F8213098479C
:10287000637AA27903F03F0300F0C0010B431042DA
:102880000CBF43F0020323F00203637238BD00BFA4
:10289000D07E012038B5164CE089636A020A042113
:1028A000A16153F8223098470546E089636A0130F8
:1028B000020A53F82230984745EA002080B2E389A3
:1028C000626A6082010A0233E38152F82130A579FD
:1028D0009847637A284014BF03F0FD0343F00203D6
:1028E00003F07F0320F07F021343A071637238BDB1
:1028F000D07E012070B5204CE089636A020A06216F
:10290000A16153F8223098470546E089636A013097
:10291000020A53F82230984745EA0020E389626AA8
:1029200080B2010A0233E381608252F82130984775
:10293000637AA56A03F0010141EA400001B28AB25C
:1029400012F47F4F14BF43F0010303F0FE0312F0B3
:10295000FF0F608A14BF03F0FD0343F0020321F070
:102960007F0203F07F031343020A637255F822309B
:10297000C9B2BDE870401847D07E012070B52B4C1D
:102980002A4EE089636A020A0621A16153F82230C7
:1029900098470546E089636A0130020A53F82230FD
:1029A000984745EA002080B2E389626A6082010AA2
:1029B0000233E38152F821309847637A03F0010132
:1029C00041EA400001B28AB212F47F4F14BF43F0D3
:1029D000010303F0FE0312F0FF0F14BF03F0FD0329
:1029E00043F00203608AA26A21F07F0503F07F03AF
:1029F0002B43050A637252F82530C9B29847608AA2
:102A0000636AA579020A53F822309847737A2840FE
:102A100014BF03F0FD0343F0020303F07F0320F033
:102A20007F021343A071637270BD00BFD07E01208E
:102A300070B51B4CE089636A020A411C052553F8F6
:102A40002230A561E1819847431C54FA83F3204466
:102A500093F8B02990F8B039207A03EB02239BB2A7
:102A60001844434013F0FF0F02D0A3690133A36160
:102A700080B2020A636A608253F82230A579084E58
:102A80009847737A284014BF03F0FD0343F0020314
:102A900003F07F0320F07F021343A071637270BDC7
:102AA000D07E012070B52C4C2B4EE089636A020A5F
:102AB0000825411C53F82230A561E1819847421C4A
:102AC000204454FA82F2237A90F8B00992F8B019AF
:102AD000626A184400EB012080B220FA05F360829C
:102AE00052F823309847637A03F0010141EA40002D
:102AF00001B28AB212F47F4F14BF43F0010303F016
:102B0000FE0312F0FF0F14BF03F0FD0343F00203B6
:102B1000608AA26A21F07F0503F07F032B43050A38
:102B2000637252F82530C9B29847608A636AA57902
:102B3000020A53F822309847737A284014BF03F0F2
:102B4000FD0343F0020303F07F0320F07F021343F1
:102B5000A071637270BD00BFD07E012038B5114CEA
:102B6000E089636A020A411C042553F82230A561FA
:102B7000E1819847E379626AA57912681844C0B286
:102B800060829047637A284014BF03F0FD0343F04E
:102B9000020303F07F0320F07F021343A0716372EE
:102BA00038BD00BFD07E012070B51B4CE089636A40
:102BB000020A411C0625E181A56153F8223098479D
:102BC000E379626A1844C0B2136860829847637AF6
:102BD000A56A03F0010141EA400001B28AB212F491
:102BE0007F4F14BF43F0010303F0FE0312F0FF0F09
:102BF000608A14BF03F0FD0343F0020321F07F025B
:102C000003F07F031343020A637255F82230C9B2FE
:102C1000BDE87040184700BFD07E012070B5254C3C
:102C2000244EE089636A020A411C0625E18153F8BB
:102C30002230A5619847E379626A1844C0B21368EC
:102C400060829847637A03F0010141EA400001B2D3
:102C50008AB212F47F4F14BF43F0010303F0FE0366
:102C600012F0FF0F14BF03F0FD0343F00203608A6C
:102C7000A26A21F07F0503F07F032B43050A6372EC
:102C800052F82530C9B29847608A636AA579020A6A
:102C900053F822309847737A284014BF03F0FD039D
:102CA00043F0020303F07F0320F07F021343A0717F
:102CB000637270BDD07E0120034B5A7A022142F02C
:102CC000010299615A727047D07E012070B51A4C8A
:102CD000E089636A020A042153F82230A16198470F
:102CE000257A284485B2EB0502D5A3690133A36197
:102CF000E089636A104E0130020A53F82230984787
:102D000005EB002080B2E389626A6082010A023327
:102D100052F82120E381A5799047737A284014BFA7
:102D200003F0FD0343F0020303F07F0320F07F0272
:102D30001343A071637270BDD07E012070B52C4C1E
:102D40002B4EE089636A020A0721A16153F8223001
:102D500098470546E089636A0130020A53F8223039
:102D60009847217AE389626A0D4405EB002080B21E
:102D7000010A0233E381608252F821309847637A76
:102D800003F0010141EA400001B28AB212F47F4F20
:102D900014BF43F0010303F0FE0312F0FF0F14BF52
:102DA00003F0FD0343F00203608AA26A21F07F056D
:102DB00003F07F032B43050A637252F82530C9B232
:102DC0009847608A636AA579020A53F822309847C7
:102DD000737A284014BF03F0FD0343F0020303F0AD
:102DE0007F0320F07F021343A071637270BD00BFA8
:102DF000D07E012070B51A4CE089636A020A042172
:102E000053F82230A1619847E579284485B2EB0553
:102E100002D5A3690133A361E089636A104E0130D2
:102E2000020A53F82230984705EB002080B2E3896C
:102E3000626A6082010A023352F82120E381A57997
:102E40009047737A284014BF03F0FD0343F0020358
:102E500003F07F0320F07F021343A071637270BD03
:102E6000D07E012070B5214CE089636A020A0721F7
:102E7000A16153F8223098470546E089636A013022
:102E8000020A53F822309847E179E389626A45EAF9
:102E90000020084480B2010A0233E381608252F8C4
:102EA00021309847637AA56A03F0010141EA4000A6
:102EB00001B28AB212F47F4F14BF43F0010303F052
:102EC000FE0312F0FF0F608A14BF03F0FD0343F00E
:102ED000020321F07F0203F07F031343020A6372AF
:102EE00055F82230C9B2BDE870401847D07E0120A5
:102EF00070B52C4C2B4EE089636A020A0721A16150
:102F000053F8223098470546E089636A0130020A87
:102F100053F822309847E179E389626A45EA002054
:102F2000084480B2010A0233E381608252F8213002
:102F30009847637A03F0010141EA400001B28AB286
:102F400012F47F4F14BF43F0010303F0FE0312F0AD
:102F5000FF0F14BF03F0FD0343F00203608AA26A6F
:102F600021F07F0503F07F032B43050A637252F8BB
:102F70002530C9B29847608A636AA579020A53F876
:102F800022309847737A284014BF03F0FD0343F0C2
:102F9000020303F07F0320F07F021343A0716372EA
:102FA00070BD00BFD07E012030B40D4B59794A1C52
:102FB000D2B2941C501C53FA84F453FA80F01A4491
:102FC00094F8B05A90F8B00A92F8B02A5A720331C5
:102FD000062440EA052259719C61DA8130BC7047B1
:102FE000D07E012038B5184CE089636A020A411C82
:102FF000062553F82230A561E1819847E379626A9A
:10300000A5791844C0B2431C54FA83F3204493F8C2
:10301000B01990F8B03943EA0120030A608252F8EF
:1030200023309847637A684010F0FF0014BF03F024
:10303000FD0343F0020303F07F0320F07F021343FC
:10304000A071637238BD00BFD07E012070B5284CDE
:10305000E089636A020A411C082553F82230E181A5
:10306000A5619847E379626A1844C0B2431C54FAD8
:1030700083F3204493F8B01990F8B03943EA012063
:1030800020FA05F3608252F823309847637AC2072A
:103090004FEA50014CBF43F0010303F0FE0321B39C
:1030A00003F0FD03608AA26A114E050A03F07F0354
:1030B000637252F82530C9B29847608A636AA5796D
:1030C000020A53F822309847737A684010F0FF00E4
:1030D00014BF03F0FD0343F0020303F07F0320F06D
:1030E0007F021343A071637270BD43F00203D9E7FE
:1030F000D07E012038B50F4CE089636A020A411C7A
:10310000032553F82230E181A56198472218A3795D
:1031100092F8B02960825340627AA37114BF02F022
:10312000FD0242F0020202F07F0223F07F010A4317
:10313000627238BDD07E012070B5154CE089636A9B
:10314000020A411C052553F82230E181A561984708
:10315000636A60821B689847637AC2074FEA50012E
:103160004CBF43F0010303F0FE0369B943F00203CF
:10317000608AA26A03F07F03050A637252F8253061
:10318000C9B2BDE87040184703F0FD03F0E700BF87
:10319000D07E012070B5204CE089636A020A411C90
:1031A000052553F82230E181A5619847636A608262
:1031B0001B689847637AC2074FEA50014CBF43F03F
:1031C000010303F0FE0321B303F0FD03608AA26A4A
:1031D000114E050A03F07F03637252F82530C9B21D
:1031E0009847608A636AA579020A53F822309847A3
:1031F000737A684010F0FF0014BF03F0FD0343F042
:10320000020303F07F0320F07F021343A071637277
:1032100070BD43F00203D9E7D07E012010B4064B05
:103220005A7998799918013A03245A7181F8B00AA9
:103230009C615DF8044B7047D07E012038B50F4C7F
:10324000E089636A6082020A0225411C53F8223039
:10325000A561E181A5799847637A684010F0FF0085
:1032600014BF03F0FD0343F0020303F07F0320F0DB
:103270007F021343A071637238BD00BFD07E01206E
:103280000F4A937913F0010F4FEA6301537A4FF01D
:103290000200906118BF43F00103C8B208BF03F0F9
:1032A000FE0331B943F0020303F07F0353729071C0
:1032B000704703F0FD0303F07F0353729071704772
:1032C000D07E012038B5114CE089636A6082020A21
:1032D000411C022553F82230A561E181A579984768
:1032E000637A0A492840C2074CBF43F0010303F048
:1032F000FE0303F07F02400815BF03F07D0342F098
:1033000002024B724A72A07138BD00BFD07E01200C
:1033100038B50B4CE089636A020A032153F8223066
:10332000A16198470546E089636A0130020A53F8B3
:103330002230984745EA002080B26082E08138BDA3
:10334000D07E012038B5174CE089636A020A042157
:10335000A16153F8223098470546E089636A01303D
:10336000020A53F82230984745EA002080B2E389E8
:10337000626A6082010A0233E38152F82130A57942
:103380009847637A684010F0FF0014BF03F0FD0314
:1033900043F0020303F07F0320F07F021343A07188
:1033A000637238BDD07E012070B51C4CE089636A21
:1033B000020A0621A16153F8223098470546E089A8
:1033C000636A0130020A53F82230984745EA002028
:1033D00080B2E389626A6082010A0233E38152F8B3
:1033E00021309847637AC2074FEA50014CBF43F03F
:1033F000010303F0FE0369B943F00203608AA26A85
:1034000003F07F03050A637252F82530C9B2BDE8A4
:103410007040184703F0FD03F0E700BFD07E0120A5
:1034200070B5274CE089636A020A0621A16153F84E
:10343000223098470546E089636A0130020A53F852
:103440002230984745EA002080B2E389626A6082B0
:10345000010A0233E38152F821309847637AC207A8
:103460004FEA50014CBF43F0010303F0FE0321B3C8
:1034700003F0FD03608AA26A114E050A03F07F0380
:10348000637252F82530C9B29847608A636AA57999
:10349000020A53F822309847737A684010F0FF0010
:1034A00014BF03F0FD0343F0020303F07F0320F099
:1034B0007F021343A071637270BD43F00203D9E72A
:1034C000D07E012070B51C4CE089636A020A411C61
:1034D000052553F82230A561E1819847431C54FA31
:1034E00083F3204493F8B02990F8B039207A03EBA5
:1034F00002239BB21844434013F0FF0F02D0A3698C
:103500000133A36180B2020A636A608253F82230F9
:10351000A579094E9847737A684010F0FF0014BFF0
:1035200003F0FD0343F0020303F07F0320F07F026A
:103530001343A071637270BDD07E012070B5284C1A
:10354000E089636A020A411C082553F82230E181B0
:10355000A5619847421C204454FA82F2237A90F8DD
:10356000B00992F8B019626A184400EB012080B2E9
:1035700020FA05F3608252F823309847637AC20735
:103580004FEA50014CBF43F0010303F0FE0321B3A7
:1035900003F0FD03608AA26A114E050A03F07F035F
:1035A000637252F82530C9B29847608A636AA57978
:1035B000020A53F822309847737A684010F0FF00EF
:1035C00014BF03F0FD0343F0020303F07F0320F078
:1035D0007F021343A071637270BD43F00203D9E709
:1035E000D07E012038B5124CE089636A020A411C82
:1035F000042553F82230A561E1819847E379626A96
:10360000A57912681844C0B260829047637A684016
:1036100010F0FF0014BF03F0FD0343F0020303F0BA
:103620007F0320F07F021343A071637238BD00BF97
:10363000D07E012070B5164CE089636A020A411CF5
:103640000625E18153F82230A5619847E379626A43
:103650001844C0B2136860829847637AC2074FEA81
:1036600050014CBF43F0010303F0FE0369B943F07E
:103670000203608AA26A03F07F03050A637252F8AC
:103680002530C9B2BDE87040184703F0FD03F0E7EC
:10369000D07E012070B5224CE089636A020A411C89
:1036A0000625E18153F82230A5619847E379626AE3
:1036B0001844C0B2136860829847637AC2074FEA21
:1036C00050014CBF43F0010303F0FE0321B303F0AC
:1036D000FD03608AA26A124E050A03F07F0363723B
:1036E00052F82530C9B29847608A636AA579020A00
:1036F00053F822309847737A684010F0FF0014BFE7
:1037000003F0FD0343F0020303F07F0320F07F0288
:103710001343A071637270BD43F00203D9E700BF89
:10372000D07E0120034B5A7A022122F004029961D3
:103730005A727047D07E012070B51B4CE089636AD5
:10374000020A042153F82230A1619847257A2844BF
:1037500085B2EB0502D5A3690133A361E089636AF1
:10376000114E0130020A53F82230984705EB002031
:1037700080B2E389626A6082010A023352F8212032
:10378000E381A5799047737A684010F0FF0014BF79
:1037900003F0FD0343F0020303F07F0320F07F02F8
:1037A0001343A071637270BDD07E012070B5284CA8
:1037B000E089636A020A0721A16153F82230984721
:1037C0000546E089636A0130020A53F822309847BF
:1037D000217AE389626A0D4405EB002080B2010A78
:1037E0000233E381608252F821309847637AC2073E
:1037F0004FEA50014CBF43F0010303F0FE0321B335
:1038000003F0FD03608AA26A114E050A03F07F03EC
:10381000637252F82530C9B29847608A636AA57905
:10382000020A53F822309847737A684010F0FF007C
:1038300014BF03F0FD0343F0020303F07F0320F005
:103840007F021343A071637270BD43F00203D9E796
:10385000D07E012070B51B4CE089636A020A042106
:1038600053F82230A1619847E579284485B2EB05E9
:1038700002D5A3690133A361E089636A114E013067
:10388000020A53F82230984705EB002080B2E38902
:10389000626A6082010A023352F82120E381A5792D
:1038A0009047737A684010F0FF0014BF03F0FD03E7
:1038B00043F0020303F07F0320F07F021343A07163
:1038C000637270BDD07E012070B51D4CE089636AC3
:1038D000020A0721A16153F8223098470546E08982
:1038E000636A0130020A53F822309847E179E3898C
:1038F000626A45EA0020084480B2010A0233E3818B
:10390000608252F821309847637AC2074FEA50012B
:103910004CBF43F0010303F0FE0369B943F0020317
:10392000608AA26A03F07F03050A637252F82530A9
:10393000C9B2BDE87040184703F0FD03F0E700BFCF
:10394000D07E012070B5284CE089636A020A072105
:10395000A16153F8223098470546E089636A013037
:10396000020A53F822309847E179E389626A45EA0E
:103970000020084480B2010A0233E381608252F8D9
:1039800021309847637AC2074FEA50014CBF43F099
:10399000010303F0FE0321B303F0FD03608AA26A72
:1039A000114E050A03F07F03637252F82530C9B245
:1039B0009847608A636AA579020A53F822309847CB
:1039C000737A684010F0FF0014BF03F0FD0343F06A
:1039D000020303F07F0320F07F021343A0716372A0
:1039E00070BD43F00203D9E7D07E0120094B5A791C
:1039F000911C013253FA81F053FA82F290F8B00A26
:103A000092F8B02A597142EA0022062101329961E6
:103A1000DA817047D07E0120F8B5444CE089636AB2
:103A2000020A411C062553F82230E181A56198471E
:103A3000E379626A1844C0B2431C54FA83F3204409
:103A400093F8B01990F8B03943EA0120030A608274
:103A500052F823309847627AA679130737D502F0D7
:103A6000010106F00F0500F00F030D441D44092D60
:103A700006F0F0034DD800F0F0073B442B443144EE
:103A8000014411F0FF0F0CBF42F0020202F0FD02F0
:103A9000DDB225F07F0186EA030702F07F020A43C8
:103AA00039460F0602D5704006063CD502F0BF022B
:103AB00003F4F871902984BF6033DDB203F47F63AF
:103AC000F02B1BD942F001026272A571F8BD02F021
:103AD00001033344034413F0FF0502F07D0218BFD5
:103AE00025F07F0180EA06000CBF42F002020A4383
:103AF000000608D502F0BF02FF2BE3D822F0010236
:103B00006272A571F8BD5E403106F3D542F0400205
:103B1000F2E703F11007063500F0F00305F00F059A
:103B20003B442B44ABE742F04002C1E7D07E01208A
:103B3000F8B5584CE089636A020A411C082553F81D
:103B40002230E181A5619847E379626A1844C0B2E6
:103B5000431C54FA83F3204493F8B01990F8B03919
:103B600043EA012020FA05F3608252F82330984797
:103B7000637AD901C9B241EA5001C20789B24CBF88
:103B800043F0010303F0FE03002951D003F0FD03CD
:103B9000608AA26A3F4E21F07F0503F07F032B432A
:103BA000050A637252F82530C9B29847608A636A81
:103BB000020A53F822309847627AB67913073AD549
:103BC00002F0010106F00F0500F00F030D441D4443
:103BD000092D06F0F00350D800F0F0073B442B44C9
:103BE0003144014411F0FF0F0CBF42F0020202F019
:103BF000FD02DDB225F07F0186EA030702F07F02B5
:103C00000A4339460F0602D5704006063FD502F03A
:103C1000BF0203F4F871902984BF6033DDB203F46E
:103C20007F63F02B1ED942F001026272A571F8BDCC
:103C300043F00203ACE702F001033344034413F002
:103C4000FF0502F07D0218BF25F07F0180EA060023
:103C50000CBF42F002020A43000608D502F0BF0280
:103C6000FF2BE0D822F001026272A571F8BD5E4020
:103C70003106F3D542F04002F2E703F110070635B2
:103C800000F0F00305F00F053B442B44A8E742F099
:103C90004002BEE7D07E012038B5064CE089636A59
:103CA000020A411C0325A561E18153F8223098479F
:103CB000608238BDD07E0120FFF7EEBFFFF7ECBF7A
:103CC000F8B53D4CE089636A020A0325411C53F8AC
:103CD0002230A561E1819847627A60822318A67933
:103CE00093F8B059130737D502F0010106F00F0021
:103CF00005F00F0308441844092806F0F0034DD8D6
:103D000005F0F0073B4403443144294411F0FF0F10
:103D10000CBF42F0020202F0FD02D8B220F07F0197
:103D200086EA030702F07F020A4339460F0602D5EE
:103D300075402E063CD502F0BF0203F4F8719029BD
:103D400084BF6033D8B203F47F63F02B1BD942F0F9
:103D500001026272A071F8BD02F0010333442B44EA
:103D600013F0FF0002F07D0218BF20F07F0185EA0A
:103D700006050CBF42F002020A432D0608D502F0E8
:103D8000BF02FF2BE3D822F001026272A071F8BDDE
:103D90005E403106F3D542F04002F2E703F110072E
:103DA000063005F0F00300F00F003B440344ABE79E
:103DB00042F04002C1E700BFD07E012070B5154C33
:103DC000E089636A020A411C052553F82230E1812B
:103DD000A5619847637A60822218D90192F8B029C8
:103DE000C9B241EA5201D2074CBF43F0010303F0CC
:103DF000FE0361B943F0020321F07F0203F07F0369
:103E00001343A26A63721368BDE87040184703F059
:103E1000FD03F1E7D07E0120F8B5504CE089636ADC
:103E2000020A411C052553F82230E181A56198471B
:103E3000636A60821B689847637AD901C9B241EA14
:103E40005001C20789B24CBF43F0010303F0FE03E7
:103E5000002951D003F0FD03608AA26A3F4E21F091
:103E60007F0503F07F032B43050A637252F8253068
:103E7000C9B29847608A636A020A53F822309847A9
:103E8000627AB67913073AD502F0010106F00F0500
:103E900000F00F030D441D44092D06F0F00350D827
:103EA00000F0F0073B442B443144014411F0FF0F74
:103EB0000CBF42F0020202F0FD02DDB225F07F01EC
:103EC00086EA030702F07F020A4339460F0602D54D
:103ED000704006063FD502F0BF0203F4F871902946
:103EE00084BF6033DDB203F47F63F02B1ED942F050
:103EF00001026272A571F8BD43F00203ACE702F063
:103F000001033344034413F0FF0502F07D0218BFA0
:103F100025F07F0180EA06000CBF42F002020A434E
:103F2000000608D502F0BF02FF2BE0D822F0010204
:103F30006272A571F8BD5E403106F3D542F04002D1
:103F4000F2E703F11007063500F0F00305F00F0566
:103F50003B442B44A8E742F04002BEE7D07E01205C
:103F60000C4B59790131C9B25A18042092F8B02A81
:103F7000597198619A71597A42B941F0020101F080
:103F80007F0122F07F020A435A72704701F0FD015F
:103F9000F5E700BFD07E0120F8B53B4CE089636AAD
:103FA0006082020A411C022553F82230A561E1819A
:103FB0009847627AA679130737D502F0010106F017
:103FC0000F0500F00F030D441D44092D06F0F0030A
:103FD0004DD800F0F0073B442B443144014411F02C
:103FE000FF0F0CBF42F0020202F0FD02DDB225F02D
:103FF0007F0186EA030702F07F020A4339460F0673
:1040000002D5704006063CD502F0BF0203F4F871F9
:10401000902984BF6033DDB203F47F63F02B1BD99A
:1040200042F001026272A571F8BD02F0010333444F
:10403000034413F0FF0502F07D0218BF25F07F0155
:1040400080EA06000CBF42F002020A43000608D5CF
:1040500002F0BF02FF2BE3D822F001026272A571C9
:10406000F8BD5E403106F3D542F04002F2E703F1BD
:104070001007063500F0F00305F00F053B442B4414
:10408000ABE742F04002C1E7D07E012010B40F49F7
:104090004B7A8879DA01D2B2022442EA5002C00790
:1040A0008C614CBF43F0010303F0FE035AB943F0A7
:1040B000020303F07F0322F07F0003438A714B72F7
:1040C0005DF8044B704703F0FD03F2E7D07E01205A
:1040D00038B5394CE089636A6082020A411C0225C6
:1040E00053F82230A561E181A5799847637ADA0116
:1040F000190700EA0500D2B218D442EA5000C1B252
:1041000003F07F0321F07F021343002846D143F0E0
:10411000020303F0FE0380EA400040064CBF43F078
:10412000400323F040036372A17138BDD90742EA0E
:1041300050054CBF43F0800303F07F035DBB43F0A9
:10414000020380EA0502520600F0010100F00F02AE
:104150000A444CBF43F0400303F0BF03052A06D9CD
:10416000A91D01F00F0105F0F00242EA010500F07F
:10417000F00200F010001044502817D905F160013A
:1041800001F0F00105F00F0243F0010342EA0105DE
:104190006372A57138BD03F0FD03D2E703F0FD03A0
:1041A000450648BF43F00103B5D4B2E723F001034D
:1041B0006372A57138BD00BFD07E0120F8B5164DE1
:1041C000E8896B6A020A0521A96153F822309847F1
:1041D0000646E8896B6A0130020A53F82230984794
:1041E00046EA002006B2B4B2220A6B6A204653F8AF
:1041F0002230984701340746E4B206F47F4020435A
:10420000020A6B6A53F82230984747EA002080B2CE
:104210006882E881F8BD00BFD07E0120F8B5444C2B
:10422000E089636A020A0421A16153F822309847A9
:104230000546E089636A0130020A53F82230984744
:1042400045EA002080B2E389626A6082010A023393
:10425000E38152F821309847627AA679130737D55F
:1042600002F0010106F00F0500F00F030D441D449C
:10427000092D06F0F0034DD800F0F0073B442B4425
:104280003144014411F0FF0F0CBF42F0020202F072
:10429000FD02DDB225F07F0186EA030702F07F020E
:1042A0000A4339460F0602D5704006063CD502F097
:1042B000BF0203F4F871902984BF6033DDB203F4C8
:1042C0007F63F02B1BD942F001026272A571F8BD29
:1042D00002F001033344034413F0FF0502F07D02B2
:1042E00018BF25F07F0180EA06000CBF42F00202F1
:1042F0000A43000608D502F0BF02FF2BE3D822F0E4
:1043000001026272A571F8BD5E403106F3D542F03C
:104310004002F2E703F11007063500F0F00305F064
:104320000F053B442B44ABE742F04002C1E700BF1E
:10433000D07E012070B51F4CE089636A020A062115
:10434000A16153F8223098470546E089636A01303D
:10435000020A53F82230984745EA002080B2E389E8
:10436000626A6082010A0233E38152F82130984781
:10437000637AD901C9B241EA5001C20789B24CBF80
:1043800043F0010303F0FE0381B943F00203608AA6
:10439000A56A21F07F0203F07F031343020A6372D0
:1043A00055F82230C9B2BDE87040184703F0FD034C
:1043B000EDE700BFD07E0120F8B5574CE089636A75
:1043C000020A0621A16153F8223098470546E08988
:1043D000636A0130020A53F82230984745EA002008
:1043E00080B2E389626A6082010A0233E38152F893
:1043F00021309847637AD901C9B241EA5001C20716
:1044000089B24CBF43F0010303F0FE03002951D0F1
:1044100003F0FD03608AA26A3F4E21F07F0503F09E
:104420007F032B43050A637252F82530C9B29847BF
:10443000608A636A020A53F822309847627AB67932
:1044400013073AD502F0010106F00F0500F00F0343
:104450000D441D44092D06F0F00350D800F0F0077C
:104460003B442B443144014411F0FF0F0CBF42F098
:10447000020202F0FD02DDB225F07F0186EA0307A9
:1044800002F07F020A4339460F0602D57040060645
:104490003FD502F0BF0203F4F871902984BF603366
:1044A000DDB203F47F63F02B1ED942F00102627289
:1044B000A571F8BD43F00203ACE702F001033344F9
:1044C000034413F0FF0502F07D0218BF25F07F01C1
:1044D00080EA06000CBF42F002020A43000608D53B
:1044E00002F0BF02FF2BE0D822F001026272A57138
:1044F000F8BD5E403106F3D542F04002F2E703F129
:104500001007063500F0F00305F00F053B442B447F
:10451000A8E742F04002BEE7D07E0120F8B5494C42
:10452000E089636A020A411C052553F82230A5611F
:10453000E1819847431C54FA83F3204493F8B0294F
:1045400090F8B039207A03EB02239BB21844434021
:1045500013F0FF0F02D0A3690133A36180B2020AF6
:10456000636A608253F82230364D9847627AAE799A
:10457000130737D502F0010106F00F0500F00F0315
:104580000D441D44092D06F0F0034DD800F0F0074E
:104590003B442B443144014411F0FF0F0CBF42F067
:1045A000020202F0FD02DDB225F07F0186EA030778
:1045B00002F07F020A4339460F0602D57040060614
:1045C0003CD502F0BF0203F4F871902984BF603338
:1045D000DDB203F47F63F02B1BD942F0010262725B
:1045E000A571F8BD02F001033344034413F0FF0545
:1045F00002F07D0218BF25F07F0180EA06000CBFA3
:1046000042F002020A43000608D502F0BF02FF2B67
:10461000E3D822F001026272A571F8BD5E40310656
:10462000F3D542F04002F2E703F11007063500F03F
:10463000F00305F00F053B442B44ABE742F040028A
:10464000C1E700BFD07E0120F8B5584CE089636A0D
:10465000020A411C082553F82230E181A5619847E0
:104660002318013054FA80F293F8B009237A92F8B3
:10467000B019626A184400EB012080B220FA05F3F9
:10468000608252F823309847637AD901C9B241EA6F
:104690005001C20789B24CBF43F0010303F0FE038F
:1046A000002951D003F0FD03608AA26A3F4E21F039
:1046B0007F0503F07F032B43050A637252F8253010
:1046C000C9B29847608A636A020A53F82230984751
:1046D000627AB67913073AD502F0010106F00F05A8
:1046E00000F00F030D441D44092D06F0F00350D8CF
:1046F00000F0F0073B442B443144014411F0FF0F1C
:104700000CBF42F0020202F0FD02DDB225F07F0193
:1047100086EA030702F07F020A4339460F0602D5F4
:10472000704006063FD502F0BF0203F4F8719029ED
:1047300084BF6033DDB203F47F63F02B1ED942F0F7
:1047400001026272A571F8BD43F00203ACE702F00A
:1047500001033344034413F0FF0502F07D0218BF48
:1047600025F07F0180EA06000CBF42F002020A43F6
:10477000000608D502F0BF02FF2BE0D822F00102AC
:104780006272A571F8BD5E403106F3D542F0400279
:10479000F2E703F11007063500F0F00305F00F050E
:1047A0003B442B44A8E742F04002BEE7D07E012004
:1047B000F8B53E4CE089636A020A411C042553F8AF
:1047C0002230E181A5619847E379626A1844C0B25A
:1047D000136860829847627AA679130737D502F08A
:1047E000010106F00F0500F00F030D441D44092DD3
:1047F00006F0F0034DD800F0F0073B442B44314461
:10480000014411F0FF0F0CBF42F0020202F0FD0262
:10481000DDB225F07F0186EA030702F07F020A433A
:1048200039460F0602D5704006063CD502F0BF029D
:1048300003F4F871902984BF6033DDB203F47F6321
:10484000F02B1BD942F001026272A571F8BD02F093
:1048500001033344034413F0FF0502F07D0218BF47
:1048600025F07F0180EA06000CBF42F002020A43F5
:10487000000608D502F0BF02FF2BE3D822F00102A8
:104880006272A571F8BD5E403106F3D542F0400278
:10489000F2E703F11007063500F0F00305F00F050D
:1048A0003B442B44ABE742F04002C1E7D07E0120FD
:1048B00070B5194CE089636A020A411C0625E18142
:1048C00053F82230A5619847E379626A1844C0B270
:1048D000136860829847637AD901C9B241EA5001EE
:1048E000C20789B24CBF43F0010303F0FE0381B954
:1048F00043F00203608AA56A21F07F0203F07F0380
:104900001343020A637255F82230C9B2BDE8704001
:10491000184703F0FD03EDE7D07E0120F8B5524CB7
:10492000E089636A020A411C0625E18153F82230BE
:10493000A5619847E379626A1844C0B2136860823F
:104940009847637AD901C9B241EA5001C20789B2D6
:104950004CBF43F0010303F0FE03002951D003F0E4
:10496000FD03608AA26A404E21F07F0503F07F03B9
:104970002B43050A637252F82530C9B29847608A02
:10498000636A020A53F822309847627AB6791307AD
:104990003AD502F0010106F00F0500F00F030D44B7
:1049A0001D44092D06F0F00350D800F0F0073B44F9
:1049B0002B443144014411F0FF0F0CBF42F00202BE
:1049C00002F0FD02DDB225F07F0186EA030702F066
:1049D0007F020A4339460F0602D5704006063FD5CE
:1049E00002F0BF0203F4F871902984BF6033DDB296
:1049F00003F47F63F02B1ED942F001026272A571AD
:104A0000F8BD43F00203ACE702F001033344034472
:104A100013F0FF0502F07D0218BF25F07F0180EA48
:104A200006000CBF42F002020A43000608D502F05D
:104A3000BF02FF2BE0D822F001026272A571F8BD1F
:104A40005E403106F3D542F04002F2E703F1100771
:104A5000063500F0F00305F00F053B442B44A8E7B2
:104A600042F04002BEE700BFD07E0120034B5A7ADD
:104A7000022142F0040299615A727047D07E0120EF
:104A8000F8B5484CE089636A020A042153F82230E1
:104A9000A1619847257A284485B2EA0502D5A36921
:104AA0000133A361E089636A3E4E0130020A53F884
:104AB0002230984705EB002080B2E389626A608269
:104AC000010A023352F82120E3819047627AB679D5
:104AD000130737D502F0010106F00F0500F00F03B0
:104AE0000D441D44092D06F0F0034DD800F0F007E9
:104AF0003B442B443144014411F0FF0F0CBF42F002
:104B0000020202F0FD02DDB225F07F0186EA030712
:104B100002F07F020A4339460F0602D570400606AE
:104B20003CD502F0BF0203F4F871902984BF6033D2
:104B3000DDB203F47F63F02B1BD942F001026272F5
:104B4000A571F8BD02F001033344034413F0FF05DF
:104B500002F07D0218BF25F07F0180EA06000CBF3D
:104B600042F002020A43000608D502F0BF02FF2B02
:104B7000E3D822F001026272A571F8BD5E403106F1
:104B8000F3D542F04002F2E703F11007063500F0DA
:104B9000F00305F00F053B442B44ABE742F0400225
:104BA000C1E700BFD07E0120F8B5584CE089636AA8
:104BB000020A0721A16153F8223098470546E0898F
:104BC000636A0130020A53F822309847217AE38958
:104BD000626A0D4405EB002080B2010A0233E381D2
:104BE000608252F821309847637AD901C9B241EA0C
:104BF0005001C20789B24CBF43F0010303F0FE032A
:104C0000002951D003F0FD03608AA26A3F4E21F0D3
:104C10007F0503F07F032B43050A637252F82530AA
:104C2000C9B29847608A636A020A53F822309847EB
:104C3000627AB67913073AD502F0010106F00F0542
:104C400000F00F030D441D44092D06F0F00350D869
:104C500000F0F0073B442B443144014411F0FF0FB6
:104C60000CBF42F0020202F0FD02DDB225F07F012E
:104C700086EA030702F07F020A4339460F0602D58F
:104C8000704006063FD502F0BF0203F4F871902988
:104C900084BF6033DDB203F47F63F02B1ED942F092
:104CA00001026272A571F8BD43F00203ACE702F0A5
:104CB00001033344034413F0FF0502F07D0218BFE3
:104CC00025F07F0180EA06000CBF42F002020A4391
:104CD000000608D502F0BF02FF2BE0D822F0010247
:104CE0006272A571F8BD5E403106F3D542F0400214
:104CF000F2E703F11007063500F0F00305F00F05A9
:104D00003B442B44A8E742F04002BEE7D07E01209E
:104D1000F8B5484CE089636A020A042153F822304E
:104D2000A1619847E579284485B2EA0502D5A369CF
:104D30000133A361E089636A3E4E0130020A53F8F1
:104D40002230984705EB002080B2E389626A6082D6
:104D5000010A023352F82120E3819047627AB67942
:104D6000130737D502F0010106F00F0500F00F031D
:104D70000D441D44092D06F0F0034DD800F0F00756
:104D80003B442B443144014411F0FF0F0CBF42F06F
:104D9000020202F0FD02DDB225F07F0186EA030780
:104DA00002F07F020A4339460F0602D5704006061C
:104DB0003CD502F0BF0203F4F871902984BF603340
:104DC000DDB203F47F63F02B1BD942F00102627263
:104DD000A571F8BD02F001033344034413F0FF054D
:104DE00002F07D0218BF25F07F0180EA06000CBFAB
:104DF00042F002020A43000608D502F0BF02FF2B70
:104E0000E3D822F001026272A571F8BD5E4031065E
:104E1000F3D542F04002F2E703F11007063500F047
:104E2000F00305F00F053B442B44ABE742F0400292
:104E3000C1E700BFD07E012070B5204CE089636AD5
:104E4000020A0721A16153F8223098470546E089FC
:104E5000636A0130020A53F822309847E179E38906
:104E6000626A45EA0020084480B2010A0233E38105
:104E7000608252F821309847637AD901C9B241EA79
:104E80005001C20789B24CBF43F0010303F0FE0397
:104E900081B943F00203608AA56A21F07F0203F022
:104EA0007F031343020A637255F82230C9B2BDE88A
:104EB0007040184703F0FD03EDE700BFD07E0120EE
:104EC000F8B5584CE089636A020A0721A16153F8DA
:104ED000223098470546E089636A0130020A53F898
:104EE00022309847E179E389626A45EA0020084464
:104EF00080B2010A0233E381608252F82130984780
:104F0000637AD901C9B241EA5001C20789B24CBFE4
:104F100043F0010303F0FE03002951D003F0FD0329
:104F2000608AA26A3F4E21F07F0503F07F032B4386
:104F3000050A637252F82530C9B29847608A636ADD
:104F4000020A53F822309847627AB67913073AD5A5
:104F500002F0010106F00F0500F00F030D441D449F
:104F6000092D06F0F00350D800F0F0073B442B4425
:104F70003144014411F0FF0F0CBF42F0020202F075
:104F8000FD02DDB225F07F0186EA030702F07F0211
:104F90000A4339460F0602D5704006063FD502F097
:104FA000BF0203F4F871902984BF6033DDB203F4CB
:104FB0007F63F02B1ED942F001026272A571F8BD29
:104FC00043F00203ACE702F001033344034413F05F
:104FD000FF0502F07D0218BF25F07F0180EA060080
:104FE0000CBF42F002020A43000608D502F0BF02DD
:104FF000FF2BE0D822F001026272A571F8BD5E407D
:105000003106F3D542F04002F2E703F1100706350E
:1050100000F0F00305F00F053B442B44A8E742F0F5
:105020004002BEE7D07E012070B5104CE089636A73
:10503000020A411C0625A561E18153F822309847F8
:10504000E379A26AA1791844C0B2431C54FA83F3ED
:10505000204493F8B05990F8B03943EA0520030A88
:10506000608252F82330BDE870401847D07E01209E
:1050700070B5184CE089636A020A411C0625A561D7
:10508000E18153F822309847E379A26AA179184464
:10509000C0B2431C54FA83F3204493F8B05990F8FB
:1050A000B03943EA0520030A608252F8233098475A
:1050B000608AA36AE179020A53F822309847608A2D
:1050C000A36AA179E279040A114053F82430BDE8BB
:1050D00070401847D07E012070B5094CE089636AA2
:1050E000020A411C0325E181A56153F8223098474B
:1050F000A36A6082217A1B68BDE87040184700BF30
:10510000D07E012070B5094CE089636A020A411C17
:105110000325E181A56153F822309847A36A608294
:10512000A1791B68BDE87040184700BFD07E012000
:1051300070B5094CE089636A020A411C0325E181CC
:10514000A56153F822309847A36A6082E1791B6811
:10515000BDE87040184700BFD07E012070B5114CEB
:10516000E089636A020A411C032553F82230A561D5
:10517000E1819847A36A6082A1791B689847608A99
:10518000A36AE179020A53F822309847608AA36A39
:10519000A179E279040A114053F82430BDE8704047
:1051A000184700BFD07E01200A4A137A013B022132
:1051B000DBB291611372517A43B941F0020101F0FF
:1051C0007F0123F07F030B435372704701F0FD0111
:1051D000F5E700BFD07E0120094AD37993710221FF
:1051E0009161517A43B941F0020101F07F0123F04E
:1051F0007F030B435372704701F0FD01F5E700BFD9
:10520000D07E0120F8B5114CE089626AA579E37976
:105210006082010A461C022752F82120A761E6811C
:1052200065F011051D409047637A284020F07F0209
:1052300003F07F03134320B943F002036372A071AC
:10524000F8BD23F002036372A071F8BDD07E012087
:1052500070B5104CE089636A020A0421A16153F819
:10526000223098470546E089636A0130020A53F804
:105270002230984745EA0020E389A26A80B2010AF9
:105280000233E381608252F82130217ABDE8704018
:10529000184700BFD07E012070B5104CE089636ACA
:1052A000020A0421A16153F8223098470546E0899B
:1052B000636A0130020A53F82230984745EA002019
:1052C000E389A26A80B2010A0233E381608252F864
:1052D0002130A179BDE87040184700BFD07E012081
:1052E00070B5104CE089636A020A0421A16153F889
:1052F000223098470546E089636A0130020A53F874
:105300002230984745EA0020E389A26A80B2010A68
:105310000233E381608252F82130E179BDE87040C8
:10532000184700BFD07E012070B5184CE089636A31
:10533000020A0421A16153F8223098470546E0890A
:10534000636A0130020A53F82230984745EA002088
:1053500080B2E389A26A6082010A0233E38152F8D3
:105360002130A1799847608AA36AE179020A53F84B
:1053700022309847608AA36AA179E279040A114031
:1053800053F82430BDE87040184700BFD07E01209C
:1053900070B5104CE089636A020A411C0625A561BC
:1053A000E18153F822309847421C204454FA82F29B
:1053B000237A90F8B00992F8B059A26AA1791844FA
:1053C00000EB052080B2030A608252F82330BDE86A
:1053D00070401847D07E012070B50A4CE089636A9E
:1053E000020A411C0425E18153F82230A561984747
:1053F000E379A26A217A12681844C0B26082BDE8DB
:1054000070401047D07E012070B50A4CE089636A75
:10541000020A411C0425E18153F82230A561984716
:10542000E379A26AA17912681844C0B26082BDE82B
:1054300070401047D07E012070B50A4CE089636A45
:10544000020A411C0425E18153F82230A5619847E6
:10545000237AA26AE17912681844C0B26082BDE87A
:1054600070401047D07E012070B5124CE089636A0D
:10547000020A411C0425A561E18153F822309847B6
:10548000237AA26AA17912681844C0B26082904758
:10549000608AA36AE179020A53F822309847608A49
:1054A000A36AA179E279040A114053F82430BDE8D7
:1054B00070401847D07E0120094A137A9371022167
:1054C0009161517A43B941F0020101F07F0123F06B
:1054D0007F030B435372704701F0FD01F5E700BFF6
:1054E000D07E012070B5114CE089636A020A052163
:1054F000A16153F8223098470546E089636A01307C
:10550000020A53F822309847267AE389A26AA179E1
:10551000354405EB002080B2050A0233E381608246
:1055200052F82530BDE87040184700BFD07E0120FA
:10553000024B0221DA7999615A717047D07E0120BD
:1055400070B5114CE089636A020A0521A16153F824
:10555000223098470546E089636A0130020A53F811
:1055600022309847E679E389A26AA17945EA0020CA
:10557000304480B2050A0233E381608252F825305C
:10558000BDE87040184700BFD07E012038B50D4CF3
:10559000E089636A020A052153F82230A161984725
:1055A0000546E089636A0130020A53F822309847C1
:1055B000E389E27945EA0020104402336082E38106
:1055C00038BD00BFD07E012038B50D4CE089636A3C
:1055D0006082020A411C022553F82230A561E18154
:1055E0009847637A207240B943F0020303F07F03C7
:1055F00020F07F001843607238BD03F0FD03F5E72B
:10560000D07E012038B5164CE089636A020A411C3D
:10561000062553F82230E181A5619847E379626A53
:105620001844C0B2431C54FA83F3204493F8B019D1
:1056300090F8B03943EA0120030A608252F823301F
:105640009847637AA07140B943F0020303F07F03E7
:1056500020F07F001843607238BD03F0FD03F5E7CA
:10566000D07E012038B50D4CE089636A6082020A61
:10567000411C022553F82230A561E1819847637AE5
:10568000E07140B943F0020303F07F0320F07F0094
:105690001843607238BD03F0FD03F5E7D07E0120AA
:1056A00038B5214CE089636A020A411C062553F88B
:1056B0002230E181A5619847E379626A1844C0B25B
:1056C000431C54FA83F3204493F8B01990F8B0398E
:1056D00043EA0120030A608252F823309847627A35
:1056E000A0710346D0B102F0FD02608A616A0E4DDE
:1056F00002F07F0223F07F031343020A637251F822
:10570000223098476B7AE07158B943F0020303F0F6
:105710007F0320F07F001843607238BD42F0020220
:10572000E3E703F0FD03F2E7D07E012038B50F4C2C
:10573000E089636A020A411C032553F82230A561FF
:10574000E18198472318608293F8B0392372627A16
:1057500043B942F0020202F07F0223F07F031343B9
:10576000637238BD02F0FD02F5E700BFD07E012074
:1057700038B50F4CE089636A020A411C032553F8CF
:105780002230A561E18198472318608293F8B039EF
:10579000A371627A43B942F0020202F07F0223F061
:1057A0007F031343637238BD02F0FD02F5E700BFCB
:1057B000D07E012038B50F4CE089636A020A411C93
:1057C000032553F82230E181A5619847636A60821E
:1057D0001B689847637AE07140B943F0020303F015
:1057E0007F0320F07F001843607238BD03F0FD0393
:1057F000F5E700BFD07E012038B51A4CE089636A16
:10580000020A411C032553F82230E181A561984723
:10581000636A60821B689847627AA0710346D0B1C0
:1058200002F0FD02608A616A0E4D02F07F0223F0F1
:105830007F031343020A637251F8223098476B7A50
:10584000E07158B943F0020303F07F0320F07F00BA
:105850001843607238BD42F00202E3E703F0FD0333
:10586000F2E700BFD07E0120094A9379137202212A
:105870009161517A43B941F0020101F07F0123F0B7
:105880007F030B435372704701F0FD01F5E700BF42
:10589000D07E012038B50D4CE089636A6082020A2F
:1058A000411C022553F82230A561E1819847637AB3
:1058B000A07140B943F0020303F07F0320F07F00A2
:1058C0001843607238BD03F0FD03F5E7D07E012078
:1058D000094A9379D37102219161517A43B941F018
:1058E000020101F07F0123F07F030B4353727047E5
:1058F00001F0FD01F5E700BFD07E012070B5114C2D
:10590000E089636A6082020A411C022653F8223051
:10591000A661E181A579984745F0EE05637A2840B4
:1059200020F07F0203F07F03134328B943F0020302
:105930006372E071A07170BD23F002036372E071C5
:10594000A07170BDD07E012038B5164CE089636A25
:10595000020A0421A16153F8223098470546E089E4
:10596000636A0130020A53F82230984745EA002062
:1059700080B2E389626A6082010A0233E38152F8ED
:1059800021309847637A207240B943F0020303F054
:105990007F0320F07F001843607238BD03F0FD03E1
:1059A000F5E700BFD07E012038B5164CE089636A68
:1059B000020A0421A16153F8223098470546E08984
:1059C000636A0130020A53F82230984745EA002002
:1059D00080B2E389626A6082010A0233E38152F88D
:1059E00021309847637AA07140B943F0020303F075
:1059F0007F0320F07F001843607238BD03F0FD0381
:105A0000F5E700BFD07E012038B5164CE089636A07
:105A1000020A0421A16153F8223098470546E08923
:105A2000636A0130020A53F82230984745EA0020A1
:105A300080B2E389626A6082010A0233E38152F82C
:105A400021309847637AE07140B943F0020303F0D4
:105A50007F0320F07F001843607238BD03F0FD0320
:105A6000F5E700BFD07E012038B5214CE089636A9C
:105A7000020A0421A16153F8223098470546E089C3
:105A8000636A0130020A53F82230984745EA002041
:105A900080B2E389626A6082010A0233E38152F8CC
:105AA00021309847627AA0710346D0B102F0FD021E
:105AB000608A616A0E4D02F07F0223F07F03134378
:105AC000020A637251F8223098476B7AE07158B934
:105AD00043F0020303F07F0320F07F00184360725D
